{
	"array.sol": {
		"Array": {
			"abi": [
				{
					"inputs": [
						{
							"internalType": "uint256",
							"name": "",
							"type": "uint256"
						}
					],
					"name": "arr",
					"outputs": [
						{
							"internalType": "uint256",
							"name": "",
							"type": "uint256"
						}
					],
					"stateMutability": "view",
					"type": "function"
				},
				{
					"inputs": [
						{
							"internalType": "uint256",
							"name": "",
							"type": "uint256"
						}
					],
					"name": "arr2",
					"outputs": [
						{
							"internalType": "uint256",
							"name": "",
							"type": "uint256"
						}
					],
					"stateMutability": "view",
					"type": "function"
				},
				{
					"inputs": [
						{
							"internalType": "uint256",
							"name": "",
							"type": "uint256"
						}
					],
					"name": "arr3",
					"outputs": [
						{
							"internalType": "uint256",
							"name": "",
							"type": "uint256"
						}
					],
					"stateMutability": "view",
					"type": "function"
				},
				{
					"inputs": [],
					"name": "array_example",
					"outputs": [
						{
							"internalType": "int256[5]",
							"name": "",
							"type": "int256[5]"
						},
						{
							"internalType": "uint256[6]",
							"name": "",
							"type": "uint256[6]"
						}
					],
					"stateMutability": "nonpayable",
					"type": "function"
				},
				{
					"inputs": [],
					"name": "getArr",
					"outputs": [
						{
							"internalType": "uint256[]",
							"name": "",
							"type": "uint256[]"
						}
					],
					"stateMutability": "view",
					"type": "function"
				},
				{
					"inputs": [],
					"name": "getLength",
					"outputs": [
						{
							"internalType": "uint256",
							"name": "",
							"type": "uint256"
						}
					],
					"stateMutability": "view",
					"type": "function"
				},
				{
					"inputs": [],
					"name": "pop",
					"outputs": [],
					"stateMutability": "nonpayable",
					"type": "function"
				},
				{
					"inputs": [],
					"name": "push",
					"outputs": [],
					"stateMutability": "nonpayable",
					"type": "function"
				}
			],
			"devdoc": {
				"kind": "dev",
				"methods": {},
				"version": 1
			},
			"evm": {
				"assembly": "    /* \"array.sol\":61:1024  contract Array{... */\n  mstore(0x40, 0x80)\n    /* \"array.sol\":149:180  uint256[] public arr2 = [1,2,3] */\n  mload(0x40)\n  dup1\n  0x60\n  add\n  0x40\n  mstore\n  dup1\n    /* \"array.sol\":174:175  1 */\n  0x01\n    /* \"array.sol\":149:180  uint256[] public arr2 = [1,2,3] */\n  0xff\n  and\n  dup2\n  mstore\n  0x20\n  add\n    /* \"array.sol\":176:177  2 */\n  0x02\n    /* \"array.sol\":149:180  uint256[] public arr2 = [1,2,3] */\n  0xff\n  and\n  dup2\n  mstore\n  0x20\n  add\n    /* \"array.sol\":178:179  3 */\n  0x03\n    /* \"array.sol\":149:180  uint256[] public arr2 = [1,2,3] */\n  0xff\n  and\n  dup2\n  mstore\n  pop\n  0x01\n  swap1\n  0x03\n  tag_1\n  swap3\n  swap2\n  swap1\n  tag_2\n  jump\t// in\ntag_1:\n  pop\n    /* \"array.sol\":61:1024  contract Array{... */\n  callvalue\n  dup1\n  iszero\n  tag_3\n  jumpi\n  0x00\n  dup1\n  revert\ntag_3:\n  pop\n  jump(tag_4)\ntag_2:\n  dup3\n  dup1\n  sload\n  dup3\n  dup3\n  sstore\n  swap1\n  0x00\n  mstore\n  keccak256(0x00, 0x20)\n  swap1\n  dup2\n  add\n  swap3\n  dup3\n  iszero\n  tag_5\n  jumpi\n  swap2\n  0x20\n  mul\n  dup3\n  add\ntag_6:\n  dup3\n  dup2\n  gt\n  iszero\n  tag_7\n  jumpi\n  dup3\n  mload\n  dup3\n  swap1\n  0xff\n  and\n  swap1\n  sstore\n  swap2\n  0x20\n  add\n  swap2\n  swap1\n  0x01\n  add\n  swap1\n  jump(tag_6)\ntag_7:\ntag_5:\n  pop\n  swap1\n  pop\n  tag_8\n  swap2\n  swap1\n  tag_9\n  jump\t// in\ntag_8:\n  pop\n  swap1\n  jump\t// out\ntag_9:\ntag_10:\n  dup1\n  dup3\n  gt\n  iszero\n  tag_11\n  jumpi\n  0x00\n  dup2\n  0x00\n  swap1\n  sstore\n  pop\n  0x01\n  add\n  jump(tag_10)\ntag_11:\n  pop\n  swap1\n  jump\t// out\ntag_4:\n  dataSize(sub_0)\n  dup1\n  dataOffset(sub_0)\n  0x00\n  codecopy\n  0x00\n  return\nstop\n\nsub_0: assembly {\n        /* \"array.sol\":61:1024  contract Array{... */\n      mstore(0x40, 0x80)\n      callvalue\n      dup1\n      iszero\n      tag_1\n      jumpi\n      0x00\n      dup1\n      revert\n    tag_1:\n      pop\n      jumpi(tag_2, lt(calldatasize, 0x04))\n      shr(0xe0, calldataload(0x00))\n      dup1\n      0xa4ece52c\n      gt\n      tag_11\n      jumpi\n      dup1\n      0xa4ece52c\n      eq\n      tag_7\n      jumpi\n      dup1\n      0xbe1c766b\n      eq\n      tag_8\n      jumpi\n      dup1\n      0xedf0099b\n      eq\n      tag_9\n      jumpi\n      dup1\n      0xfb8cbced\n      eq\n      tag_10\n      jumpi\n      jump(tag_2)\n    tag_11:\n      dup1\n      0x67227992\n      eq\n      tag_3\n      jumpi\n      dup1\n      0x71e5ee5f\n      eq\n      tag_4\n      jumpi\n      dup1\n      0x8035f0ce\n      eq\n      tag_5\n      jumpi\n      dup1\n      0x8732ded8\n      eq\n      tag_6\n      jumpi\n    tag_2:\n      0x00\n      dup1\n      revert\n        /* \"array.sol\":743:1017  function array_example() public returns (... */\n    tag_3:\n      tag_12\n      tag_13\n      jump\t// in\n    tag_12:\n      mload(0x40)\n      tag_14\n      swap3\n      swap2\n      swap1\n      tag_15\n      jump\t// in\n    tag_14:\n      mload(0x40)\n      dup1\n      swap2\n      sub\n      swap1\n      return\n        /* \"array.sol\":122:142  uint256[] public arr */\n    tag_4:\n      tag_16\n      0x04\n      dup1\n      calldatasize\n      sub\n      dup2\n      add\n      swap1\n      tag_17\n      swap2\n      swap1\n      tag_18\n      jump\t// in\n    tag_17:\n      tag_19\n      jump\t// in\n    tag_16:\n      mload(0x40)\n      tag_20\n      swap2\n      swap1\n      tag_21\n      jump\t// in\n    tag_20:\n      mload(0x40)\n      dup1\n      swap2\n      sub\n      swap1\n      return\n        /* \"array.sol\":569:622  function push() public {... */\n    tag_5:\n      tag_22\n      tag_23\n      jump\t// in\n    tag_22:\n      stop\n        /* \"array.sol\":187:209  uint256[3] public arr3 */\n    tag_6:\n      tag_24\n      0x04\n      dup1\n      calldatasize\n      sub\n      dup2\n      add\n      swap1\n      tag_25\n      swap2\n      swap1\n      tag_18\n      jump\t// in\n    tag_25:\n      tag_26\n      jump\t// in\n    tag_24:\n      mload(0x40)\n      tag_27\n      swap2\n      swap1\n      tag_21\n      jump\t// in\n    tag_27:\n      mload(0x40)\n      dup1\n      swap2\n      sub\n      swap1\n      return\n        /* \"array.sol\":682:733  function pop() public {... */\n    tag_7:\n      tag_28\n      tag_29\n      jump\t// in\n    tag_28:\n      stop\n        /* \"array.sol\":429:516  function getLength() public view returns (uint256){... */\n    tag_8:\n      tag_30\n      tag_31\n      jump\t// in\n    tag_30:\n      mload(0x40)\n      tag_32\n      swap2\n      swap1\n      tag_21\n      jump\t// in\n    tag_32:\n      mload(0x40)\n      dup1\n      swap2\n      sub\n      swap1\n      return\n        /* \"array.sol\":149:180  uint256[] public arr2 = [1,2,3] */\n    tag_9:\n      tag_33\n      0x04\n      dup1\n      calldatasize\n      sub\n      dup2\n      add\n      swap1\n      tag_34\n      swap2\n      swap1\n      tag_18\n      jump\t// in\n    tag_34:\n      tag_35\n      jump\t// in\n    tag_33:\n      mload(0x40)\n      tag_36\n      swap2\n      swap1\n      tag_21\n      jump\t// in\n    tag_36:\n      mload(0x40)\n      dup1\n      swap2\n      sub\n      swap1\n      return\n        /* \"array.sol\":300:383  function getArr()public view returns(uint256[] memory){... */\n    tag_10:\n      tag_37\n      tag_38\n      jump\t// in\n    tag_37:\n      mload(0x40)\n      tag_39\n      swap2\n      swap1\n      tag_40\n      jump\t// in\n    tag_39:\n      mload(0x40)\n      dup1\n      swap2\n      sub\n      swap1\n      return\n        /* \"array.sol\":743:1017  function array_example() public returns (... */\n    tag_13:\n        /* \"array.sol\":790:803  int[5] memory */\n      tag_41\n      tag_42\n      jump\t// in\n    tag_41:\n        /* \"array.sol\":805:819  uint[6] memory */\n      tag_43\n      tag_44\n      jump\t// in\n    tag_43:\n        /* \"array.sol\":846:864  int[5] memory data */\n      0x00\n        /* \"array.sol\":846:904  int[5] memory data ... */\n      mload(0x40)\n      dup1\n      0xa0\n      add\n      0x40\n      mstore\n      dup1\n        /* \"array.sol\":882:884  50 */\n      0x32\n        /* \"array.sol\":846:904  int[5] memory data ... */\n      dup2\n      mstore\n      0x20\n      add\n        /* \"array.sol\":887:890  -63 */\n      0xffffffffffffffffffffffffffffffffffffffffffffffffffffffffffffffc1\n        /* \"array.sol\":846:904  int[5] memory data ... */\n      dup2\n      mstore\n      0x20\n      add\n        /* \"array.sol\":892:894  77 */\n      0x4d\n        /* \"array.sol\":846:904  int[5] memory data ... */\n      dup2\n      mstore\n      0x20\n      add\n        /* \"array.sol\":896:899  -28 */\n      0xffffffffffffffffffffffffffffffffffffffffffffffffffffffffffffffe4\n        /* \"array.sol\":846:904  int[5] memory data ... */\n      dup2\n      mstore\n      0x20\n      add\n        /* \"array.sol\":901:903  90 */\n      0x5a\n        /* \"array.sol\":846:904  int[5] memory data ... */\n      dup2\n      mstore\n      pop\n      swap1\n      pop\n        /* \"array.sol\":917:965  data1 ... */\n      mload(0x40)\n      dup1\n      0xc0\n      add\n      0x40\n      mstore\n      dup1\n        /* \"array.sol\":941:943  10 */\n      0x0a\n        /* \"array.sol\":917:965  data1 ... */\n      dup2\n      mstore\n      0x20\n      add\n        /* \"array.sol\":946:948  20 */\n      0x14\n        /* \"array.sol\":917:965  data1 ... */\n      dup2\n      mstore\n      0x20\n      add\n        /* \"array.sol\":950:952  30 */\n      0x1e\n        /* \"array.sol\":917:965  data1 ... */\n      dup2\n      mstore\n      0x20\n      add\n        /* \"array.sol\":954:956  40 */\n      0x28\n        /* \"array.sol\":917:965  data1 ... */\n      dup2\n      mstore\n      0x20\n      add\n        /* \"array.sol\":958:960  50 */\n      0x32\n        /* \"array.sol\":917:965  data1 ... */\n      dup2\n      mstore\n      0x20\n      add\n        /* \"array.sol\":962:964  60 */\n      0x3c\n        /* \"array.sol\":917:965  data1 ... */\n      dup2\n      mstore\n      pop\n        /* \"array.sol\":917:922  data1 */\n      0x05\n        /* \"array.sol\":917:965  data1 ... */\n      swap1\n      0x06\n      tag_46\n      swap3\n      swap2\n      swap1\n      tag_47\n      jump\t// in\n    tag_46:\n      pop\n        /* \"array.sol\":997:1001  data */\n      dup1\n        /* \"array.sol\":1003:1008  data1 */\n      0x05\n        /* \"array.sol\":989:1009  return (data, data1) */\n      dup1\n      0x06\n      dup1\n      0x20\n      mul\n      mload(0x40)\n      swap1\n      dup2\n      add\n      0x40\n      mstore\n      dup1\n      swap3\n      swap2\n      swap1\n      dup3\n      0x06\n      dup1\n      iszero\n      tag_48\n      jumpi\n      0x20\n      mul\n      dup3\n      add\n      swap2\n    tag_49:\n      dup2\n      sload\n      dup2\n      mstore\n      0x20\n      add\n      swap1\n      0x01\n      add\n      swap1\n      dup1\n      dup4\n      gt\n      tag_49\n      jumpi\n    tag_48:\n      pop\n      pop\n      pop\n      pop\n      pop\n      swap1\n      pop\n      swap3\n      pop\n      swap3\n      pop\n      pop\n        /* \"array.sol\":743:1017  function array_example() public returns (... */\n      swap1\n      swap2\n      jump\t// out\n        /* \"array.sol\":122:142  uint256[] public arr */\n    tag_19:\n      0x00\n      dup2\n      dup2\n      sload\n      dup2\n      lt\n      tag_50\n      jumpi\n      0x00\n      dup1\n      revert\n    tag_50:\n      swap1\n      0x00\n      mstore\n      keccak256(0x00, 0x20)\n      add\n      0x00\n      swap2\n      pop\n      swap1\n      pop\n      sload\n      dup2\n      jump\t// out\n        /* \"array.sol\":569:622  function push() public {... */\n    tag_23:\n        /* \"array.sol\":603:607  arr2 */\n      0x01\n        /* \"array.sol\":603:614  arr2.push() */\n      dup1\n      dup2\n      0x01\n      dup2\n      sload\n      add\n      dup1\n      dup3\n      sstore\n      dup1\n      swap2\n      pop\n      pop\n      sub\n      swap1\n      0x00\n      mstore\n      pop(keccak256(0x00, 0x20))\n      pop\n        /* \"array.sol\":569:622  function push() public {... */\n      jump\t// out\n        /* \"array.sol\":187:209  uint256[3] public arr3 */\n    tag_26:\n      0x02\n      dup2\n      0x03\n      dup2\n      lt\n      tag_54\n      jumpi\n      0x00\n      dup1\n      revert\n    tag_54:\n      add\n      0x00\n      swap2\n      pop\n      swap1\n      pop\n      sload\n      dup2\n      jump\t// out\n        /* \"array.sol\":682:733  function pop() public {... */\n    tag_29:\n        /* \"array.sol\":715:719  arr2 */\n      0x01\n        /* \"array.sol\":715:725  arr2.pop() */\n      dup1\n      sload\n      dup1\n      tag_57\n      jumpi\n      tag_58\n      tag_59\n      jump\t// in\n    tag_58:\n    tag_57:\n      0x01\n      swap1\n      sub\n      dup2\n      dup2\n      swap1\n      0x00\n      mstore\n      keccak256(0x00, 0x20)\n      add\n      0x00\n      swap1\n      sstore\n      swap1\n      sstore\n        /* \"array.sol\":682:733  function pop() public {... */\n      jump\t// out\n        /* \"array.sol\":429:516  function getLength() public view returns (uint256){... */\n    tag_31:\n        /* \"array.sol\":471:478  uint256 */\n      0x00\n        /* \"array.sol\":497:501  arr2 */\n      0x01\n        /* \"array.sol\":497:508  arr2.length */\n      dup1\n      sload\n      swap1\n      pop\n        /* \"array.sol\":490:508  return arr2.length */\n      swap1\n      pop\n        /* \"array.sol\":429:516  function getLength() public view returns (uint256){... */\n      swap1\n      jump\t// out\n        /* \"array.sol\":149:180  uint256[] public arr2 = [1,2,3] */\n    tag_35:\n      0x01\n      dup2\n      dup2\n      sload\n      dup2\n      lt\n      tag_62\n      jumpi\n      0x00\n      dup1\n      revert\n    tag_62:\n      swap1\n      0x00\n      mstore\n      keccak256(0x00, 0x20)\n      add\n      0x00\n      swap2\n      pop\n      swap1\n      pop\n      sload\n      dup2\n      jump\t// out\n        /* \"array.sol\":300:383  function getArr()public view returns(uint256[] memory){... */\n    tag_38:\n        /* \"array.sol\":337:353  uint256[] memory */\n      0x60\n        /* \"array.sol\":372:375  arr */\n      0x00\n        /* \"array.sol\":365:375  return arr */\n      dup1\n      sload\n      dup1\n      0x20\n      mul\n      0x20\n      add\n      mload(0x40)\n      swap1\n      dup2\n      add\n      0x40\n      mstore\n      dup1\n      swap3\n      swap2\n      swap1\n      dup2\n      dup2\n      mstore\n      0x20\n      add\n      dup3\n      dup1\n      sload\n      dup1\n      iszero\n      tag_65\n      jumpi\n      0x20\n      mul\n      dup3\n      add\n      swap2\n      swap1\n      0x00\n      mstore\n      keccak256(0x00, 0x20)\n      swap1\n    tag_66:\n      dup2\n      sload\n      dup2\n      mstore\n      0x20\n      add\n      swap1\n      0x01\n      add\n      swap1\n      dup1\n      dup4\n      gt\n      tag_66\n      jumpi\n    tag_65:\n      pop\n      pop\n      pop\n      pop\n      pop\n      swap1\n      pop\n        /* \"array.sol\":300:383  function getArr()public view returns(uint256[] memory){... */\n      swap1\n      jump\t// out\n    tag_42:\n      mload(0x40)\n      dup1\n      0xa0\n      add\n      0x40\n      mstore\n      dup1\n      0x05\n      swap1\n      0x20\n      dup3\n      mul\n      dup1\n      calldatasize\n      dup4\n      calldatacopy\n      dup1\n      dup3\n      add\n      swap2\n      pop\n      pop\n      swap1\n      pop\n      pop\n      swap1\n      jump\t// out\n    tag_44:\n      mload(0x40)\n      dup1\n      0xc0\n      add\n      0x40\n      mstore\n      dup1\n      0x06\n      swap1\n      0x20\n      dup3\n      mul\n      dup1\n      calldatasize\n      dup4\n      calldatacopy\n      dup1\n      dup3\n      add\n      swap2\n      pop\n      pop\n      swap1\n      pop\n      pop\n      swap1\n      jump\t// out\n    tag_47:\n      dup3\n      0x06\n      dup2\n      add\n      swap3\n      dup3\n      iszero\n      tag_67\n      jumpi\n      swap2\n      0x20\n      mul\n      dup3\n      add\n    tag_68:\n      dup3\n      dup2\n      gt\n      iszero\n      tag_69\n      jumpi\n      dup3\n      mload\n      dup3\n      sstore\n      swap2\n      0x20\n      add\n      swap2\n      swap1\n      0x01\n      add\n      swap1\n      jump(tag_68)\n    tag_69:\n    tag_67:\n      pop\n      swap1\n      pop\n      tag_70\n      swap2\n      swap1\n      tag_71\n      jump\t// in\n    tag_70:\n      pop\n      swap1\n      jump\t// out\n    tag_71:\n    tag_72:\n      dup1\n      dup3\n      gt\n      iszero\n      tag_73\n      jumpi\n      0x00\n      dup2\n      0x00\n      swap1\n      sstore\n      pop\n      0x01\n      add\n      jump(tag_72)\n    tag_73:\n      pop\n      swap1\n      jump\t// out\n        /* \"#utility.yul\":7:110   */\n    tag_74:\n        /* \"#utility.yul\":71:77   */\n      0x00\n        /* \"#utility.yul\":99:103   */\n      0x05\n        /* \"#utility.yul\":89:103   */\n      swap1\n      pop\n        /* \"#utility.yul\":7:110   */\n      swap2\n      swap1\n      pop\n      jump\t// out\n        /* \"#utility.yul\":116:258   */\n    tag_75:\n        /* \"#utility.yul\":212:223   */\n      0x00\n        /* \"#utility.yul\":249:252   */\n      dup2\n        /* \"#utility.yul\":234:252   */\n      swap1\n      pop\n        /* \"#utility.yul\":116:258   */\n      swap3\n      swap2\n      pop\n      pop\n      jump\t// out\n        /* \"#utility.yul\":264:361   */\n    tag_76:\n        /* \"#utility.yul\":328:332   */\n      0x00\n        /* \"#utility.yul\":351:354   */\n      dup2\n        /* \"#utility.yul\":343:354   */\n      swap1\n      pop\n        /* \"#utility.yul\":264:361   */\n      swap2\n      swap1\n      pop\n      jump\t// out\n        /* \"#utility.yul\":367:443   */\n    tag_77:\n        /* \"#utility.yul\":403:410   */\n      0x00\n        /* \"#utility.yul\":432:437   */\n      dup2\n        /* \"#utility.yul\":421:437   */\n      swap1\n      pop\n        /* \"#utility.yul\":367:443   */\n      swap2\n      swap1\n      pop\n      jump\t// out\n        /* \"#utility.yul\":449:554   */\n    tag_78:\n        /* \"#utility.yul\":524:547   */\n      tag_107\n        /* \"#utility.yul\":541:546   */\n      dup2\n        /* \"#utility.yul\":524:547   */\n      tag_77\n      jump\t// in\n    tag_107:\n        /* \"#utility.yul\":519:522   */\n      dup3\n        /* \"#utility.yul\":512:548   */\n      mstore\n        /* \"#utility.yul\":449:554   */\n      pop\n      pop\n      jump\t// out\n        /* \"#utility.yul\":560:735   */\n    tag_79:\n        /* \"#utility.yul\":627:637   */\n      0x00\n        /* \"#utility.yul\":648:692   */\n      tag_109\n        /* \"#utility.yul\":688:691   */\n      dup4\n        /* \"#utility.yul\":680:686   */\n      dup4\n        /* \"#utility.yul\":648:692   */\n      tag_78\n      jump\t// in\n    tag_109:\n        /* \"#utility.yul\":724:728   */\n      0x20\n        /* \"#utility.yul\":719:722   */\n      dup4\n        /* \"#utility.yul\":715:729   */\n      add\n        /* \"#utility.yul\":701:729   */\n      swap1\n      pop\n        /* \"#utility.yul\":560:735   */\n      swap3\n      swap2\n      pop\n      pop\n      jump\t// out\n        /* \"#utility.yul\":741:851   */\n    tag_80:\n        /* \"#utility.yul\":808:812   */\n      0x00\n        /* \"#utility.yul\":840:844   */\n      0x20\n        /* \"#utility.yul\":835:838   */\n      dup3\n        /* \"#utility.yul\":831:845   */\n      add\n        /* \"#utility.yul\":823:845   */\n      swap1\n      pop\n        /* \"#utility.yul\":741:851   */\n      swap2\n      swap1\n      pop\n      jump\t// out\n        /* \"#utility.yul\":887:1573   */\n    tag_81:\n        /* \"#utility.yul\":1021:1072   */\n      tag_112\n        /* \"#utility.yul\":1066:1071   */\n      dup2\n        /* \"#utility.yul\":1021:1072   */\n      tag_74\n      jump\t// in\n    tag_112:\n        /* \"#utility.yul\":1088:1171   */\n      tag_113\n        /* \"#utility.yul\":1164:1170   */\n      dup2\n        /* \"#utility.yul\":1159:1162   */\n      dup5\n        /* \"#utility.yul\":1088:1171   */\n      tag_75\n      jump\t// in\n    tag_113:\n        /* \"#utility.yul\":1081:1171   */\n      swap3\n      pop\n        /* \"#utility.yul\":1195:1248   */\n      tag_114\n        /* \"#utility.yul\":1242:1247   */\n      dup3\n        /* \"#utility.yul\":1195:1248   */\n      tag_76\n      jump\t// in\n    tag_114:\n        /* \"#utility.yul\":1271:1278   */\n      dup1\n        /* \"#utility.yul\":1302:1303   */\n      0x00\n        /* \"#utility.yul\":1287:1566   */\n    tag_115:\n        /* \"#utility.yul\":1312:1318   */\n      dup4\n        /* \"#utility.yul\":1309:1310   */\n      dup2\n        /* \"#utility.yul\":1306:1319   */\n      lt\n        /* \"#utility.yul\":1287:1566   */\n      iszero\n      tag_117\n      jumpi\n        /* \"#utility.yul\":1388:1394   */\n      dup2\n        /* \"#utility.yul\":1382:1395   */\n      mload\n        /* \"#utility.yul\":1415:1476   */\n      tag_118\n        /* \"#utility.yul\":1472:1475   */\n      dup8\n        /* \"#utility.yul\":1457:1470   */\n      dup3\n        /* \"#utility.yul\":1415:1476   */\n      tag_79\n      jump\t// in\n    tag_118:\n        /* \"#utility.yul\":1408:1476   */\n      swap7\n      pop\n        /* \"#utility.yul\":1499:1556   */\n      tag_119\n        /* \"#utility.yul\":1549:1555   */\n      dup4\n        /* \"#utility.yul\":1499:1556   */\n      tag_80\n      jump\t// in\n    tag_119:\n        /* \"#utility.yul\":1489:1556   */\n      swap3\n      pop\n        /* \"#utility.yul\":1347:1566   */\n      pop\n        /* \"#utility.yul\":1334:1335   */\n      0x01\n        /* \"#utility.yul\":1331:1332   */\n      dup2\n        /* \"#utility.yul\":1327:1336   */\n      add\n        /* \"#utility.yul\":1322:1336   */\n      swap1\n      pop\n        /* \"#utility.yul\":1287:1566   */\n      jump(tag_115)\n    tag_117:\n        /* \"#utility.yul\":1291:1305   */\n      pop\n        /* \"#utility.yul\":997:1573   */\n      pop\n      pop\n      pop\n        /* \"#utility.yul\":887:1573   */\n      pop\n      pop\n      jump\t// out\n        /* \"#utility.yul\":1579:1683   */\n    tag_82:\n        /* \"#utility.yul\":1644:1650   */\n      0x00\n        /* \"#utility.yul\":1672:1676   */\n      0x06\n        /* \"#utility.yul\":1662:1676   */\n      swap1\n      pop\n        /* \"#utility.yul\":1579:1683   */\n      swap2\n      swap1\n      pop\n      jump\t// out\n        /* \"#utility.yul\":1689:1832   */\n    tag_83:\n        /* \"#utility.yul\":1786:1797   */\n      0x00\n        /* \"#utility.yul\":1823:1826   */\n      dup2\n        /* \"#utility.yul\":1808:1826   */\n      swap1\n      pop\n        /* \"#utility.yul\":1689:1832   */\n      swap3\n      swap2\n      pop\n      pop\n      jump\t// out\n        /* \"#utility.yul\":1838:1936   */\n    tag_84:\n        /* \"#utility.yul\":1903:1907   */\n      0x00\n        /* \"#utility.yul\":1926:1929   */\n      dup2\n        /* \"#utility.yul\":1918:1929   */\n      swap1\n      pop\n        /* \"#utility.yul\":1838:1936   */\n      swap2\n      swap1\n      pop\n      jump\t// out\n        /* \"#utility.yul\":1942:2019   */\n    tag_85:\n        /* \"#utility.yul\":1979:1986   */\n      0x00\n        /* \"#utility.yul\":2008:2013   */\n      dup2\n        /* \"#utility.yul\":1997:2013   */\n      swap1\n      pop\n        /* \"#utility.yul\":1942:2019   */\n      swap2\n      swap1\n      pop\n      jump\t// out\n        /* \"#utility.yul\":2025:2133   */\n    tag_86:\n        /* \"#utility.yul\":2102:2126   */\n      tag_125\n        /* \"#utility.yul\":2120:2125   */\n      dup2\n        /* \"#utility.yul\":2102:2126   */\n      tag_85\n      jump\t// in\n    tag_125:\n        /* \"#utility.yul\":2097:2100   */\n      dup3\n        /* \"#utility.yul\":2090:2127   */\n      mstore\n        /* \"#utility.yul\":2025:2133   */\n      pop\n      pop\n      jump\t// out\n        /* \"#utility.yul\":2139:2318   */\n    tag_87:\n        /* \"#utility.yul\":2208:2218   */\n      0x00\n        /* \"#utility.yul\":2229:2275   */\n      tag_127\n        /* \"#utility.yul\":2271:2274   */\n      dup4\n        /* \"#utility.yul\":2263:2269   */\n      dup4\n        /* \"#utility.yul\":2229:2275   */\n      tag_86\n      jump\t// in\n    tag_127:\n        /* \"#utility.yul\":2307:2311   */\n      0x20\n        /* \"#utility.yul\":2302:2305   */\n      dup4\n        /* \"#utility.yul\":2298:2312   */\n      add\n        /* \"#utility.yul\":2284:2312   */\n      swap1\n      pop\n        /* \"#utility.yul\":2139:2318   */\n      swap3\n      swap2\n      pop\n      pop\n      jump\t// out\n        /* \"#utility.yul\":2324:2435   */\n    tag_88:\n        /* \"#utility.yul\":2392:2396   */\n      0x00\n        /* \"#utility.yul\":2424:2428   */\n      0x20\n        /* \"#utility.yul\":2419:2422   */\n      dup3\n        /* \"#utility.yul\":2415:2429   */\n      add\n        /* \"#utility.yul\":2407:2429   */\n      swap1\n      pop\n        /* \"#utility.yul\":2324:2435   */\n      swap2\n      swap1\n      pop\n      jump\t// out\n        /* \"#utility.yul\":2473:3167   */\n    tag_89:\n        /* \"#utility.yul\":2609:2661   */\n      tag_130\n        /* \"#utility.yul\":2655:2660   */\n      dup2\n        /* \"#utility.yul\":2609:2661   */\n      tag_82\n      jump\t// in\n    tag_130:\n        /* \"#utility.yul\":2677:2761   */\n      tag_131\n        /* \"#utility.yul\":2754:2760   */\n      dup2\n        /* \"#utility.yul\":2749:2752   */\n      dup5\n        /* \"#utility.yul\":2677:2761   */\n      tag_83\n      jump\t// in\n    tag_131:\n        /* \"#utility.yul\":2670:2761   */\n      swap3\n      pop\n        /* \"#utility.yul\":2785:2839   */\n      tag_132\n        /* \"#utility.yul\":2833:2838   */\n      dup3\n        /* \"#utility.yul\":2785:2839   */\n      tag_84\n      jump\t// in\n    tag_132:\n        /* \"#utility.yul\":2862:2869   */\n      dup1\n        /* \"#utility.yul\":2893:2894   */\n      0x00\n        /* \"#utility.yul\":2878:3160   */\n    tag_133:\n        /* \"#utility.yul\":2903:2909   */\n      dup4\n        /* \"#utility.yul\":2900:2901   */\n      dup2\n        /* \"#utility.yul\":2897:2910   */\n      lt\n        /* \"#utility.yul\":2878:3160   */\n      iszero\n      tag_135\n      jumpi\n        /* \"#utility.yul\":2979:2985   */\n      dup2\n        /* \"#utility.yul\":2973:2986   */\n      mload\n        /* \"#utility.yul\":3006:3069   */\n      tag_136\n        /* \"#utility.yul\":3065:3068   */\n      dup8\n        /* \"#utility.yul\":3050:3063   */\n      dup3\n        /* \"#utility.yul\":3006:3069   */\n      tag_87\n      jump\t// in\n    tag_136:\n        /* \"#utility.yul\":2999:3069   */\n      swap7\n      pop\n        /* \"#utility.yul\":3092:3150   */\n      tag_137\n        /* \"#utility.yul\":3143:3149   */\n      dup4\n        /* \"#utility.yul\":3092:3150   */\n      tag_88\n      jump\t// in\n    tag_137:\n        /* \"#utility.yul\":3082:3150   */\n      swap3\n      pop\n        /* \"#utility.yul\":2938:3160   */\n      pop\n        /* \"#utility.yul\":2925:2926   */\n      0x01\n        /* \"#utility.yul\":2922:2923   */\n      dup2\n        /* \"#utility.yul\":2918:2927   */\n      add\n        /* \"#utility.yul\":2913:2927   */\n      swap1\n      pop\n        /* \"#utility.yul\":2878:3160   */\n      jump(tag_133)\n    tag_135:\n        /* \"#utility.yul\":2882:2896   */\n      pop\n        /* \"#utility.yul\":2585:3167   */\n      pop\n      pop\n      pop\n        /* \"#utility.yul\":2473:3167   */\n      pop\n      pop\n      jump\t// out\n        /* \"#utility.yul\":3173:3687   */\n    tag_15:\n        /* \"#utility.yul\":3384:3388   */\n      0x00\n        /* \"#utility.yul\":3422:3425   */\n      0x0160\n        /* \"#utility.yul\":3411:3420   */\n      dup3\n        /* \"#utility.yul\":3407:3426   */\n      add\n        /* \"#utility.yul\":3399:3426   */\n      swap1\n      pop\n        /* \"#utility.yul\":3436:3551   */\n      tag_139\n        /* \"#utility.yul\":3548:3549   */\n      0x00\n        /* \"#utility.yul\":3537:3546   */\n      dup4\n        /* \"#utility.yul\":3533:3550   */\n      add\n        /* \"#utility.yul\":3524:3530   */\n      dup6\n        /* \"#utility.yul\":3436:3551   */\n      tag_81\n      jump\t// in\n    tag_139:\n        /* \"#utility.yul\":3561:3680   */\n      tag_140\n        /* \"#utility.yul\":3675:3678   */\n      0xa0\n        /* \"#utility.yul\":3664:3673   */\n      dup4\n        /* \"#utility.yul\":3660:3679   */\n      add\n        /* \"#utility.yul\":3651:3657   */\n      dup5\n        /* \"#utility.yul\":3561:3680   */\n      tag_89\n      jump\t// in\n    tag_140:\n        /* \"#utility.yul\":3173:3687   */\n      swap4\n      swap3\n      pop\n      pop\n      pop\n      jump\t// out\n        /* \"#utility.yul\":3774:3891   */\n    tag_91:\n        /* \"#utility.yul\":3883:3884   */\n      0x00\n        /* \"#utility.yul\":3880:3881   */\n      dup1\n        /* \"#utility.yul\":3873:3885   */\n      revert\n        /* \"#utility.yul\":4020:4142   */\n    tag_93:\n        /* \"#utility.yul\":4093:4117   */\n      tag_145\n        /* \"#utility.yul\":4111:4116   */\n      dup2\n        /* \"#utility.yul\":4093:4117   */\n      tag_85\n      jump\t// in\n    tag_145:\n        /* \"#utility.yul\":4086:4091   */\n      dup2\n        /* \"#utility.yul\":4083:4118   */\n      eq\n        /* \"#utility.yul\":4073:4136   */\n      tag_146\n      jumpi\n        /* \"#utility.yul\":4132:4133   */\n      0x00\n        /* \"#utility.yul\":4129:4130   */\n      dup1\n        /* \"#utility.yul\":4122:4134   */\n      revert\n        /* \"#utility.yul\":4073:4136   */\n    tag_146:\n        /* \"#utility.yul\":4020:4142   */\n      pop\n      jump\t// out\n        /* \"#utility.yul\":4148:4287   */\n    tag_94:\n        /* \"#utility.yul\":4194:4199   */\n      0x00\n        /* \"#utility.yul\":4232:4238   */\n      dup2\n        /* \"#utility.yul\":4219:4239   */\n      calldataload\n        /* \"#utility.yul\":4210:4239   */\n      swap1\n      pop\n        /* \"#utility.yul\":4248:4281   */\n      tag_148\n        /* \"#utility.yul\":4275:4280   */\n      dup2\n        /* \"#utility.yul\":4248:4281   */\n      tag_93\n      jump\t// in\n    tag_148:\n        /* \"#utility.yul\":4148:4287   */\n      swap3\n      swap2\n      pop\n      pop\n      jump\t// out\n        /* \"#utility.yul\":4293:4622   */\n    tag_18:\n        /* \"#utility.yul\":4352:4358   */\n      0x00\n        /* \"#utility.yul\":4401:4403   */\n      0x20\n        /* \"#utility.yul\":4389:4398   */\n      dup3\n        /* \"#utility.yul\":4380:4387   */\n      dup5\n        /* \"#utility.yul\":4376:4399   */\n      sub\n        /* \"#utility.yul\":4372:4404   */\n      slt\n        /* \"#utility.yul\":4369:4488   */\n      iszero\n      tag_150\n      jumpi\n        /* \"#utility.yul\":4407:4486   */\n      tag_151\n      tag_91\n      jump\t// in\n    tag_151:\n        /* \"#utility.yul\":4369:4488   */\n    tag_150:\n        /* \"#utility.yul\":4527:4528   */\n      0x00\n        /* \"#utility.yul\":4552:4605   */\n      tag_152\n        /* \"#utility.yul\":4597:4604   */\n      dup5\n        /* \"#utility.yul\":4588:4594   */\n      dup3\n        /* \"#utility.yul\":4577:4586   */\n      dup6\n        /* \"#utility.yul\":4573:4595   */\n      add\n        /* \"#utility.yul\":4552:4605   */\n      tag_94\n      jump\t// in\n    tag_152:\n        /* \"#utility.yul\":4542:4605   */\n      swap2\n      pop\n        /* \"#utility.yul\":4498:4615   */\n      pop\n        /* \"#utility.yul\":4293:4622   */\n      swap3\n      swap2\n      pop\n      pop\n      jump\t// out\n        /* \"#utility.yul\":4628:4746   */\n    tag_95:\n        /* \"#utility.yul\":4715:4739   */\n      tag_154\n        /* \"#utility.yul\":4733:4738   */\n      dup2\n        /* \"#utility.yul\":4715:4739   */\n      tag_85\n      jump\t// in\n    tag_154:\n        /* \"#utility.yul\":4710:4713   */\n      dup3\n        /* \"#utility.yul\":4703:4740   */\n      mstore\n        /* \"#utility.yul\":4628:4746   */\n      pop\n      pop\n      jump\t// out\n        /* \"#utility.yul\":4752:4974   */\n    tag_21:\n        /* \"#utility.yul\":4845:4849   */\n      0x00\n        /* \"#utility.yul\":4883:4885   */\n      0x20\n        /* \"#utility.yul\":4872:4881   */\n      dup3\n        /* \"#utility.yul\":4868:4886   */\n      add\n        /* \"#utility.yul\":4860:4886   */\n      swap1\n      pop\n        /* \"#utility.yul\":4896:4967   */\n      tag_156\n        /* \"#utility.yul\":4964:4965   */\n      0x00\n        /* \"#utility.yul\":4953:4962   */\n      dup4\n        /* \"#utility.yul\":4949:4966   */\n      add\n        /* \"#utility.yul\":4940:4946   */\n      dup5\n        /* \"#utility.yul\":4896:4967   */\n      tag_95\n      jump\t// in\n    tag_156:\n        /* \"#utility.yul\":4752:4974   */\n      swap3\n      swap2\n      pop\n      pop\n      jump\t// out\n        /* \"#utility.yul\":4980:5094   */\n    tag_96:\n        /* \"#utility.yul\":5047:5053   */\n      0x00\n        /* \"#utility.yul\":5081:5086   */\n      dup2\n        /* \"#utility.yul\":5075:5087   */\n      mload\n        /* \"#utility.yul\":5065:5087   */\n      swap1\n      pop\n        /* \"#utility.yul\":4980:5094   */\n      swap2\n      swap1\n      pop\n      jump\t// out\n        /* \"#utility.yul\":5100:5284   */\n    tag_97:\n        /* \"#utility.yul\":5199:5210   */\n      0x00\n        /* \"#utility.yul\":5233:5239   */\n      dup3\n        /* \"#utility.yul\":5228:5231   */\n      dup3\n        /* \"#utility.yul\":5221:5240   */\n      mstore\n        /* \"#utility.yul\":5273:5277   */\n      0x20\n        /* \"#utility.yul\":5268:5271   */\n      dup3\n        /* \"#utility.yul\":5264:5278   */\n      add\n        /* \"#utility.yul\":5249:5278   */\n      swap1\n      pop\n        /* \"#utility.yul\":5100:5284   */\n      swap3\n      swap2\n      pop\n      pop\n      jump\t// out\n        /* \"#utility.yul\":5290:5422   */\n    tag_98:\n        /* \"#utility.yul\":5357:5361   */\n      0x00\n        /* \"#utility.yul\":5380:5383   */\n      dup2\n        /* \"#utility.yul\":5372:5383   */\n      swap1\n      pop\n        /* \"#utility.yul\":5410:5414   */\n      0x20\n        /* \"#utility.yul\":5405:5408   */\n      dup3\n        /* \"#utility.yul\":5401:5415   */\n      add\n        /* \"#utility.yul\":5393:5415   */\n      swap1\n      pop\n        /* \"#utility.yul\":5290:5422   */\n      swap2\n      swap1\n      pop\n      jump\t// out\n        /* \"#utility.yul\":5428:5541   */\n    tag_99:\n        /* \"#utility.yul\":5498:5502   */\n      0x00\n        /* \"#utility.yul\":5530:5534   */\n      0x20\n        /* \"#utility.yul\":5525:5528   */\n      dup3\n        /* \"#utility.yul\":5521:5535   */\n      add\n        /* \"#utility.yul\":5513:5535   */\n      swap1\n      pop\n        /* \"#utility.yul\":5428:5541   */\n      swap2\n      swap1\n      pop\n      jump\t// out\n        /* \"#utility.yul\":5577:6309   */\n    tag_100:\n        /* \"#utility.yul\":5696:5699   */\n      0x00\n        /* \"#utility.yul\":5725:5779   */\n      tag_162\n        /* \"#utility.yul\":5773:5778   */\n      dup3\n        /* \"#utility.yul\":5725:5779   */\n      tag_96\n      jump\t// in\n    tag_162:\n        /* \"#utility.yul\":5795:5881   */\n      tag_163\n        /* \"#utility.yul\":5874:5880   */\n      dup2\n        /* \"#utility.yul\":5869:5872   */\n      dup6\n        /* \"#utility.yul\":5795:5881   */\n      tag_97\n      jump\t// in\n    tag_163:\n        /* \"#utility.yul\":5788:5881   */\n      swap4\n      pop\n        /* \"#utility.yul\":5905:5961   */\n      tag_164\n        /* \"#utility.yul\":5955:5960   */\n      dup4\n        /* \"#utility.yul\":5905:5961   */\n      tag_98\n      jump\t// in\n    tag_164:\n        /* \"#utility.yul\":5984:5991   */\n      dup1\n        /* \"#utility.yul\":6015:6016   */\n      0x00\n        /* \"#utility.yul\":6000:6284   */\n    tag_165:\n        /* \"#utility.yul\":6025:6031   */\n      dup4\n        /* \"#utility.yul\":6022:6023   */\n      dup2\n        /* \"#utility.yul\":6019:6032   */\n      lt\n        /* \"#utility.yul\":6000:6284   */\n      iszero\n      tag_167\n      jumpi\n        /* \"#utility.yul\":6101:6107   */\n      dup2\n        /* \"#utility.yul\":6095:6108   */\n      mload\n        /* \"#utility.yul\":6128:6191   */\n      tag_168\n        /* \"#utility.yul\":6187:6190   */\n      dup9\n        /* \"#utility.yul\":6172:6185   */\n      dup3\n        /* \"#utility.yul\":6128:6191   */\n      tag_87\n      jump\t// in\n    tag_168:\n        /* \"#utility.yul\":6121:6191   */\n      swap8\n      pop\n        /* \"#utility.yul\":6214:6274   */\n      tag_169\n        /* \"#utility.yul\":6267:6273   */\n      dup4\n        /* \"#utility.yul\":6214:6274   */\n      tag_99\n      jump\t// in\n    tag_169:\n        /* \"#utility.yul\":6204:6274   */\n      swap3\n      pop\n        /* \"#utility.yul\":6060:6284   */\n      pop\n        /* \"#utility.yul\":6047:6048   */\n      0x01\n        /* \"#utility.yul\":6044:6045   */\n      dup2\n        /* \"#utility.yul\":6040:6049   */\n      add\n        /* \"#utility.yul\":6035:6049   */\n      swap1\n      pop\n        /* \"#utility.yul\":6000:6284   */\n      jump(tag_165)\n    tag_167:\n        /* \"#utility.yul\":6004:6018   */\n      pop\n        /* \"#utility.yul\":6300:6303   */\n      dup6\n        /* \"#utility.yul\":6293:6303   */\n      swap4\n      pop\n        /* \"#utility.yul\":5701:6309   */\n      pop\n      pop\n      pop\n        /* \"#utility.yul\":5577:6309   */\n      swap3\n      swap2\n      pop\n      pop\n      jump\t// out\n        /* \"#utility.yul\":6315:6688   */\n    tag_40:\n        /* \"#utility.yul\":6458:6462   */\n      0x00\n        /* \"#utility.yul\":6496:6498   */\n      0x20\n        /* \"#utility.yul\":6485:6494   */\n      dup3\n        /* \"#utility.yul\":6481:6499   */\n      add\n        /* \"#utility.yul\":6473:6499   */\n      swap1\n      pop\n        /* \"#utility.yul\":6545:6554   */\n      dup2\n        /* \"#utility.yul\":6539:6543   */\n      dup2\n        /* \"#utility.yul\":6535:6555   */\n      sub\n        /* \"#utility.yul\":6531:6532   */\n      0x00\n        /* \"#utility.yul\":6520:6529   */\n      dup4\n        /* \"#utility.yul\":6516:6533   */\n      add\n        /* \"#utility.yul\":6509:6556   */\n      mstore\n        /* \"#utility.yul\":6573:6681   */\n      tag_171\n        /* \"#utility.yul\":6676:6680   */\n      dup2\n        /* \"#utility.yul\":6667:6673   */\n      dup5\n        /* \"#utility.yul\":6573:6681   */\n      tag_100\n      jump\t// in\n    tag_171:\n        /* \"#utility.yul\":6565:6681   */\n      swap1\n      pop\n        /* \"#utility.yul\":6315:6688   */\n      swap3\n      swap2\n      pop\n      pop\n      jump\t// out\n        /* \"#utility.yul\":6694:6874   */\n    tag_59:\n        /* \"#utility.yul\":6742:6819   */\n      0x4e487b7100000000000000000000000000000000000000000000000000000000\n        /* \"#utility.yul\":6739:6740   */\n      0x00\n        /* \"#utility.yul\":6732:6820   */\n      mstore\n        /* \"#utility.yul\":6839:6843   */\n      0x31\n        /* \"#utility.yul\":6836:6837   */\n      0x04\n        /* \"#utility.yul\":6829:6844   */\n      mstore\n        /* \"#utility.yul\":6863:6867   */\n      0x24\n        /* \"#utility.yul\":6860:6861   */\n      0x00\n        /* \"#utility.yul\":6853:6868   */\n      revert\n\n    auxdata: 0xa2646970667358221220ea87a19dbdd0a38ce9596dac81b24724d6e9ff8070261815257655455731971764736f6c634300081a0033\n}\n",
				"bytecode": {
					"linkReferences": {},
					"object": "60806040526040518060600160405280600160ff168152602001600260ff168152602001600360ff16815250600190600360399291906049565b503480156044575f80fd5b5060ad565b828054828255905f5260205f209081019282156085579160200282015b828111156084578251829060ff169055916020019190600101906066565b5b509050609091906094565b5090565b5b8082111560a9575f815f9055506001016095565b5090565b610749806100ba5f395ff3fe608060405234801561000f575f80fd5b5060043610610086575f3560e01c8063a4ece52c11610059578063a4ece52c14610113578063be1c766b1461011d578063edf0099b1461013b578063fb8cbced1461016b57610086565b8063672279921461008a57806371e5ee5f146100a95780638035f0ce146100d95780638732ded8146100e3575b5f80fd5b610092610189565b6040516100a092919061058c565b60405180910390f35b6100c360048036038101906100be91906105e2565b610295565b6040516100d0919061061c565b60405180910390f35b6100e16102b4565b005b6100fd60048036038101906100f891906105e2565b6102d0565b60405161010a919061061c565b60405180910390f35b61011b6102e9565b005b610125610310565b604051610132919061061c565b60405180910390f35b610155600480360381019061015091906105e2565b61031c565b604051610162919061061c565b60405180910390f35b61017361033c565b60405161018091906106c6565b60405180910390f35b610191610391565b6101996103b3565b5f6040518060a00160405280603281526020017fffffffffffffffffffffffffffffffffffffffffffffffffffffffffffffffc18152602001604d81526020017fffffffffffffffffffffffffffffffffffffffffffffffffffffffffffffffe48152602001605a81525090506040518060c00160405280600a815260200160148152602001601e81526020016028815260200160328152602001603c81525060059060066102499291906103d5565b5080600580600680602002604051908101604052809291908260068015610285576020028201915b815481526020019060010190808311610271575b5050505050905092509250509091565b5f81815481106102a3575f80fd5b905f5260205f20015f915090505481565b6001808160018154018082558091505003905f5260205f205050565b600281600381106102df575f80fd5b015f915090505481565b60018054806102fb576102fa6106e6565b5b600190038181905f5260205f20015f90559055565b5f600180549050905090565b6001818154811061032b575f80fd5b905f5260205f20015f915090505481565b60605f80548060200260200160405190810160405280929190818152602001828054801561038757602002820191905f5260205f20905b815481526020019060010190808311610373575b5050505050905090565b6040518060a00160405280600590602082028036833780820191505090505090565b6040518060c00160405280600690602082028036833780820191505090505090565b8260068101928215610404579160200282015b828111156104035782518255916020019190600101906103e8565b5b5090506104119190610415565b5090565b5b8082111561042c575f815f905550600101610416565b5090565b5f60059050919050565b5f81905092915050565b5f819050919050565b5f819050919050565b61045f8161044d565b82525050565b5f6104708383610456565b60208301905092915050565b5f602082019050919050565b61049181610430565b61049b818461043a565b92506104a682610444565b805f5b838110156104d65781516104bd8782610465565b96506104c88361047c565b9250506001810190506104a9565b505050505050565b5f60069050919050565b5f81905092915050565b5f819050919050565b5f819050919050565b61050d816104fb565b82525050565b5f61051e8383610504565b60208301905092915050565b5f602082019050919050565b61053f816104de565b61054981846104e8565b9250610554826104f2565b805f5b8381101561058457815161056b8782610513565b96506105768361052a565b925050600181019050610557565b505050505050565b5f610160820190506105a05f830185610488565b6105ad60a0830184610536565b9392505050565b5f80fd5b6105c1816104fb565b81146105cb575f80fd5b50565b5f813590506105dc816105b8565b92915050565b5f602082840312156105f7576105f66105b4565b5b5f610604848285016105ce565b91505092915050565b610616816104fb565b82525050565b5f60208201905061062f5f83018461060d565b92915050565b5f81519050919050565b5f82825260208201905092915050565b5f819050602082019050919050565b5f602082019050919050565b5f61067482610635565b61067e818561063f565b93506106898361064f565b805f5b838110156106b95781516106a08882610513565b97506106ab8361065e565b92505060018101905061068c565b5085935050505092915050565b5f6020820190508181035f8301526106de818461066a565b905092915050565b7f4e487b71000000000000000000000000000000000000000000000000000000005f52603160045260245ffdfea2646970667358221220ea87a19dbdd0a38ce9596dac81b24724d6e9ff8070261815257655455731971764736f6c634300081a0033",
					"opcodes": "PUSH1 0x80 PUSH1 0x40 MSTORE PUSH1 0x40 MLOAD DUP1 PUSH1 0x60 ADD PUSH1 0x40 MSTORE DUP1 PUSH1 0x1 PUSH1 0xFF AND DUP2 MSTORE PUSH1 0x20 ADD PUSH1 0x2 PUSH1 0xFF AND DUP2 MSTORE PUSH1 0x20 ADD PUSH1 0x3 PUSH1 0xFF AND DUP2 MSTORE POP PUSH1 0x1 SWAP1 PUSH1 0x3 PUSH1 0x39 SWAP3 SWAP2 SWAP1 PUSH1 0x49 JUMP JUMPDEST POP CALLVALUE DUP1 ISZERO PUSH1 0x44 JUMPI PUSH0 DUP1 REVERT JUMPDEST POP PUSH1 0xAD JUMP JUMPDEST DUP3 DUP1 SLOAD DUP3 DUP3 SSTORE SWAP1 PUSH0 MSTORE PUSH1 0x20 PUSH0 KECCAK256 SWAP1 DUP2 ADD SWAP3 DUP3 ISZERO PUSH1 0x85 JUMPI SWAP2 PUSH1 0x20 MUL DUP3 ADD JUMPDEST DUP3 DUP2 GT ISZERO PUSH1 0x84 JUMPI DUP3 MLOAD DUP3 SWAP1 PUSH1 0xFF AND SWAP1 SSTORE SWAP2 PUSH1 0x20 ADD SWAP2 SWAP1 PUSH1 0x1 ADD SWAP1 PUSH1 0x66 JUMP JUMPDEST JUMPDEST POP SWAP1 POP PUSH1 0x90 SWAP2 SWAP1 PUSH1 0x94 JUMP JUMPDEST POP SWAP1 JUMP JUMPDEST JUMPDEST DUP1 DUP3 GT ISZERO PUSH1 0xA9 JUMPI PUSH0 DUP2 PUSH0 SWAP1 SSTORE POP PUSH1 0x1 ADD PUSH1 0x95 JUMP JUMPDEST POP SWAP1 JUMP JUMPDEST PUSH2 0x749 DUP1 PUSH2 0xBA PUSH0 CODECOPY PUSH0 RETURN INVALID PUSH1 0x80 PUSH1 0x40 MSTORE CALLVALUE DUP1 ISZERO PUSH2 0xF JUMPI PUSH0 DUP1 REVERT JUMPDEST POP PUSH1 0x4 CALLDATASIZE LT PUSH2 0x86 JUMPI PUSH0 CALLDATALOAD PUSH1 0xE0 SHR DUP1 PUSH4 0xA4ECE52C GT PUSH2 0x59 JUMPI DUP1 PUSH4 0xA4ECE52C EQ PUSH2 0x113 JUMPI DUP1 PUSH4 0xBE1C766B EQ PUSH2 0x11D JUMPI DUP1 PUSH4 0xEDF0099B EQ PUSH2 0x13B JUMPI DUP1 PUSH4 0xFB8CBCED EQ PUSH2 0x16B JUMPI PUSH2 0x86 JUMP JUMPDEST DUP1 PUSH4 0x67227992 EQ PUSH2 0x8A JUMPI DUP1 PUSH4 0x71E5EE5F EQ PUSH2 0xA9 JUMPI DUP1 PUSH4 0x8035F0CE EQ PUSH2 0xD9 JUMPI DUP1 PUSH4 0x8732DED8 EQ PUSH2 0xE3 JUMPI JUMPDEST PUSH0 DUP1 REVERT JUMPDEST PUSH2 0x92 PUSH2 0x189 JUMP JUMPDEST PUSH1 0x40 MLOAD PUSH2 0xA0 SWAP3 SWAP2 SWAP1 PUSH2 0x58C JUMP JUMPDEST PUSH1 0x40 MLOAD DUP1 SWAP2 SUB SWAP1 RETURN JUMPDEST PUSH2 0xC3 PUSH1 0x4 DUP1 CALLDATASIZE SUB DUP2 ADD SWAP1 PUSH2 0xBE SWAP2 SWAP1 PUSH2 0x5E2 JUMP JUMPDEST PUSH2 0x295 JUMP JUMPDEST PUSH1 0x40 MLOAD PUSH2 0xD0 SWAP2 SWAP1 PUSH2 0x61C JUMP JUMPDEST PUSH1 0x40 MLOAD DUP1 SWAP2 SUB SWAP1 RETURN JUMPDEST PUSH2 0xE1 PUSH2 0x2B4 JUMP JUMPDEST STOP JUMPDEST PUSH2 0xFD PUSH1 0x4 DUP1 CALLDATASIZE SUB DUP2 ADD SWAP1 PUSH2 0xF8 SWAP2 SWAP1 PUSH2 0x5E2 JUMP JUMPDEST PUSH2 0x2D0 JUMP JUMPDEST PUSH1 0x40 MLOAD PUSH2 0x10A SWAP2 SWAP1 PUSH2 0x61C JUMP JUMPDEST PUSH1 0x40 MLOAD DUP1 SWAP2 SUB SWAP1 RETURN JUMPDEST PUSH2 0x11B PUSH2 0x2E9 JUMP JUMPDEST STOP JUMPDEST PUSH2 0x125 PUSH2 0x310 JUMP JUMPDEST PUSH1 0x40 MLOAD PUSH2 0x132 SWAP2 SWAP1 PUSH2 0x61C JUMP JUMPDEST PUSH1 0x40 MLOAD DUP1 SWAP2 SUB SWAP1 RETURN JUMPDEST PUSH2 0x155 PUSH1 0x4 DUP1 CALLDATASIZE SUB DUP2 ADD SWAP1 PUSH2 0x150 SWAP2 SWAP1 PUSH2 0x5E2 JUMP JUMPDEST PUSH2 0x31C JUMP JUMPDEST PUSH1 0x40 MLOAD PUSH2 0x162 SWAP2 SWAP1 PUSH2 0x61C JUMP JUMPDEST PUSH1 0x40 MLOAD DUP1 SWAP2 SUB SWAP1 RETURN JUMPDEST PUSH2 0x173 PUSH2 0x33C JUMP JUMPDEST PUSH1 0x40 MLOAD PUSH2 0x180 SWAP2 SWAP1 PUSH2 0x6C6 JUMP JUMPDEST PUSH1 0x40 MLOAD DUP1 SWAP2 SUB SWAP1 RETURN JUMPDEST PUSH2 0x191 PUSH2 0x391 JUMP JUMPDEST PUSH2 0x199 PUSH2 0x3B3 JUMP JUMPDEST PUSH0 PUSH1 0x40 MLOAD DUP1 PUSH1 0xA0 ADD PUSH1 0x40 MSTORE DUP1 PUSH1 0x32 DUP2 MSTORE PUSH1 0x20 ADD PUSH32 0xFFFFFFFFFFFFFFFFFFFFFFFFFFFFFFFFFFFFFFFFFFFFFFFFFFFFFFFFFFFFFFC1 DUP2 MSTORE PUSH1 0x20 ADD PUSH1 0x4D DUP2 MSTORE PUSH1 0x20 ADD PUSH32 0xFFFFFFFFFFFFFFFFFFFFFFFFFFFFFFFFFFFFFFFFFFFFFFFFFFFFFFFFFFFFFFE4 DUP2 MSTORE PUSH1 0x20 ADD PUSH1 0x5A DUP2 MSTORE POP SWAP1 POP PUSH1 0x40 MLOAD DUP1 PUSH1 0xC0 ADD PUSH1 0x40 MSTORE DUP1 PUSH1 0xA DUP2 MSTORE PUSH1 0x20 ADD PUSH1 0x14 DUP2 MSTORE PUSH1 0x20 ADD PUSH1 0x1E DUP2 MSTORE PUSH1 0x20 ADD PUSH1 0x28 DUP2 MSTORE PUSH1 0x20 ADD PUSH1 0x32 DUP2 MSTORE PUSH1 0x20 ADD PUSH1 0x3C DUP2 MSTORE POP PUSH1 0x5 SWAP1 PUSH1 0x6 PUSH2 0x249 SWAP3 SWAP2 SWAP1 PUSH2 0x3D5 JUMP JUMPDEST POP DUP1 PUSH1 0x5 DUP1 PUSH1 0x6 DUP1 PUSH1 0x20 MUL PUSH1 0x40 MLOAD SWAP1 DUP2 ADD PUSH1 0x40 MSTORE DUP1 SWAP3 SWAP2 SWAP1 DUP3 PUSH1 0x6 DUP1 ISZERO PUSH2 0x285 JUMPI PUSH1 0x20 MUL DUP3 ADD SWAP2 JUMPDEST DUP2 SLOAD DUP2 MSTORE PUSH1 0x20 ADD SWAP1 PUSH1 0x1 ADD SWAP1 DUP1 DUP4 GT PUSH2 0x271 JUMPI JUMPDEST POP POP POP POP POP SWAP1 POP SWAP3 POP SWAP3 POP POP SWAP1 SWAP2 JUMP JUMPDEST PUSH0 DUP2 DUP2 SLOAD DUP2 LT PUSH2 0x2A3 JUMPI PUSH0 DUP1 REVERT JUMPDEST SWAP1 PUSH0 MSTORE PUSH1 0x20 PUSH0 KECCAK256 ADD PUSH0 SWAP2 POP SWAP1 POP SLOAD DUP2 JUMP JUMPDEST PUSH1 0x1 DUP1 DUP2 PUSH1 0x1 DUP2 SLOAD ADD DUP1 DUP3 SSTORE DUP1 SWAP2 POP POP SUB SWAP1 PUSH0 MSTORE PUSH1 0x20 PUSH0 KECCAK256 POP POP JUMP JUMPDEST PUSH1 0x2 DUP2 PUSH1 0x3 DUP2 LT PUSH2 0x2DF JUMPI PUSH0 DUP1 REVERT JUMPDEST ADD PUSH0 SWAP2 POP SWAP1 POP SLOAD DUP2 JUMP JUMPDEST PUSH1 0x1 DUP1 SLOAD DUP1 PUSH2 0x2FB JUMPI PUSH2 0x2FA PUSH2 0x6E6 JUMP JUMPDEST JUMPDEST PUSH1 0x1 SWAP1 SUB DUP2 DUP2 SWAP1 PUSH0 MSTORE PUSH1 0x20 PUSH0 KECCAK256 ADD PUSH0 SWAP1 SSTORE SWAP1 SSTORE JUMP JUMPDEST PUSH0 PUSH1 0x1 DUP1 SLOAD SWAP1 POP SWAP1 POP SWAP1 JUMP JUMPDEST PUSH1 0x1 DUP2 DUP2 SLOAD DUP2 LT PUSH2 0x32B JUMPI PUSH0 DUP1 REVERT JUMPDEST SWAP1 PUSH0 MSTORE PUSH1 0x20 PUSH0 KECCAK256 ADD PUSH0 SWAP2 POP SWAP1 POP SLOAD DUP2 JUMP JUMPDEST PUSH1 0x60 PUSH0 DUP1 SLOAD DUP1 PUSH1 0x20 MUL PUSH1 0x20 ADD PUSH1 0x40 MLOAD SWAP1 DUP2 ADD PUSH1 0x40 MSTORE DUP1 SWAP3 SWAP2 SWAP1 DUP2 DUP2 MSTORE PUSH1 0x20 ADD DUP3 DUP1 SLOAD DUP1 ISZERO PUSH2 0x387 JUMPI PUSH1 0x20 MUL DUP3 ADD SWAP2 SWAP1 PUSH0 MSTORE PUSH1 0x20 PUSH0 KECCAK256 SWAP1 JUMPDEST DUP2 SLOAD DUP2 MSTORE PUSH1 0x20 ADD SWAP1 PUSH1 0x1 ADD SWAP1 DUP1 DUP4 GT PUSH2 0x373 JUMPI JUMPDEST POP POP POP POP POP SWAP1 POP SWAP1 JUMP JUMPDEST PUSH1 0x40 MLOAD DUP1 PUSH1 0xA0 ADD PUSH1 0x40 MSTORE DUP1 PUSH1 0x5 SWAP1 PUSH1 0x20 DUP3 MUL DUP1 CALLDATASIZE DUP4 CALLDATACOPY DUP1 DUP3 ADD SWAP2 POP POP SWAP1 POP POP SWAP1 JUMP JUMPDEST PUSH1 0x40 MLOAD DUP1 PUSH1 0xC0 ADD PUSH1 0x40 MSTORE DUP1 PUSH1 0x6 SWAP1 PUSH1 0x20 DUP3 MUL DUP1 CALLDATASIZE DUP4 CALLDATACOPY DUP1 DUP3 ADD SWAP2 POP POP SWAP1 POP POP SWAP1 JUMP JUMPDEST DUP3 PUSH1 0x6 DUP2 ADD SWAP3 DUP3 ISZERO PUSH2 0x404 JUMPI SWAP2 PUSH1 0x20 MUL DUP3 ADD JUMPDEST DUP3 DUP2 GT ISZERO PUSH2 0x403 JUMPI DUP3 MLOAD DUP3 SSTORE SWAP2 PUSH1 0x20 ADD SWAP2 SWAP1 PUSH1 0x1 ADD SWAP1 PUSH2 0x3E8 JUMP JUMPDEST JUMPDEST POP SWAP1 POP PUSH2 0x411 SWAP2 SWAP1 PUSH2 0x415 JUMP JUMPDEST POP SWAP1 JUMP JUMPDEST JUMPDEST DUP1 DUP3 GT ISZERO PUSH2 0x42C JUMPI PUSH0 DUP2 PUSH0 SWAP1 SSTORE POP PUSH1 0x1 ADD PUSH2 0x416 JUMP JUMPDEST POP SWAP1 JUMP JUMPDEST PUSH0 PUSH1 0x5 SWAP1 POP SWAP2 SWAP1 POP JUMP JUMPDEST PUSH0 DUP2 SWAP1 POP SWAP3 SWAP2 POP POP JUMP JUMPDEST PUSH0 DUP2 SWAP1 POP SWAP2 SWAP1 POP JUMP JUMPDEST PUSH0 DUP2 SWAP1 POP SWAP2 SWAP1 POP JUMP JUMPDEST PUSH2 0x45F DUP2 PUSH2 0x44D JUMP JUMPDEST DUP3 MSTORE POP POP JUMP JUMPDEST PUSH0 PUSH2 0x470 DUP4 DUP4 PUSH2 0x456 JUMP JUMPDEST PUSH1 0x20 DUP4 ADD SWAP1 POP SWAP3 SWAP2 POP POP JUMP JUMPDEST PUSH0 PUSH1 0x20 DUP3 ADD SWAP1 POP SWAP2 SWAP1 POP JUMP JUMPDEST PUSH2 0x491 DUP2 PUSH2 0x430 JUMP JUMPDEST PUSH2 0x49B DUP2 DUP5 PUSH2 0x43A JUMP JUMPDEST SWAP3 POP PUSH2 0x4A6 DUP3 PUSH2 0x444 JUMP JUMPDEST DUP1 PUSH0 JUMPDEST DUP4 DUP2 LT ISZERO PUSH2 0x4D6 JUMPI DUP2 MLOAD PUSH2 0x4BD DUP8 DUP3 PUSH2 0x465 JUMP JUMPDEST SWAP7 POP PUSH2 0x4C8 DUP4 PUSH2 0x47C JUMP JUMPDEST SWAP3 POP POP PUSH1 0x1 DUP2 ADD SWAP1 POP PUSH2 0x4A9 JUMP JUMPDEST POP POP POP POP POP POP JUMP JUMPDEST PUSH0 PUSH1 0x6 SWAP1 POP SWAP2 SWAP1 POP JUMP JUMPDEST PUSH0 DUP2 SWAP1 POP SWAP3 SWAP2 POP POP JUMP JUMPDEST PUSH0 DUP2 SWAP1 POP SWAP2 SWAP1 POP JUMP JUMPDEST PUSH0 DUP2 SWAP1 POP SWAP2 SWAP1 POP JUMP JUMPDEST PUSH2 0x50D DUP2 PUSH2 0x4FB JUMP JUMPDEST DUP3 MSTORE POP POP JUMP JUMPDEST PUSH0 PUSH2 0x51E DUP4 DUP4 PUSH2 0x504 JUMP JUMPDEST PUSH1 0x20 DUP4 ADD SWAP1 POP SWAP3 SWAP2 POP POP JUMP JUMPDEST PUSH0 PUSH1 0x20 DUP3 ADD SWAP1 POP SWAP2 SWAP1 POP JUMP JUMPDEST PUSH2 0x53F DUP2 PUSH2 0x4DE JUMP JUMPDEST PUSH2 0x549 DUP2 DUP5 PUSH2 0x4E8 JUMP JUMPDEST SWAP3 POP PUSH2 0x554 DUP3 PUSH2 0x4F2 JUMP JUMPDEST DUP1 PUSH0 JUMPDEST DUP4 DUP2 LT ISZERO PUSH2 0x584 JUMPI DUP2 MLOAD PUSH2 0x56B DUP8 DUP3 PUSH2 0x513 JUMP JUMPDEST SWAP7 POP PUSH2 0x576 DUP4 PUSH2 0x52A JUMP JUMPDEST SWAP3 POP POP PUSH1 0x1 DUP2 ADD SWAP1 POP PUSH2 0x557 JUMP JUMPDEST POP POP POP POP POP POP JUMP JUMPDEST PUSH0 PUSH2 0x160 DUP3 ADD SWAP1 POP PUSH2 0x5A0 PUSH0 DUP4 ADD DUP6 PUSH2 0x488 JUMP JUMPDEST PUSH2 0x5AD PUSH1 0xA0 DUP4 ADD DUP5 PUSH2 0x536 JUMP JUMPDEST SWAP4 SWAP3 POP POP POP JUMP JUMPDEST PUSH0 DUP1 REVERT JUMPDEST PUSH2 0x5C1 DUP2 PUSH2 0x4FB JUMP JUMPDEST DUP2 EQ PUSH2 0x5CB JUMPI PUSH0 DUP1 REVERT JUMPDEST POP JUMP JUMPDEST PUSH0 DUP2 CALLDATALOAD SWAP1 POP PUSH2 0x5DC DUP2 PUSH2 0x5B8 JUMP JUMPDEST SWAP3 SWAP2 POP POP JUMP JUMPDEST PUSH0 PUSH1 0x20 DUP3 DUP5 SUB SLT ISZERO PUSH2 0x5F7 JUMPI PUSH2 0x5F6 PUSH2 0x5B4 JUMP JUMPDEST JUMPDEST PUSH0 PUSH2 0x604 DUP5 DUP3 DUP6 ADD PUSH2 0x5CE JUMP JUMPDEST SWAP2 POP POP SWAP3 SWAP2 POP POP JUMP JUMPDEST PUSH2 0x616 DUP2 PUSH2 0x4FB JUMP JUMPDEST DUP3 MSTORE POP POP JUMP JUMPDEST PUSH0 PUSH1 0x20 DUP3 ADD SWAP1 POP PUSH2 0x62F PUSH0 DUP4 ADD DUP5 PUSH2 0x60D JUMP JUMPDEST SWAP3 SWAP2 POP POP JUMP JUMPDEST PUSH0 DUP2 MLOAD SWAP1 POP SWAP2 SWAP1 POP JUMP JUMPDEST PUSH0 DUP3 DUP3 MSTORE PUSH1 0x20 DUP3 ADD SWAP1 POP SWAP3 SWAP2 POP POP JUMP JUMPDEST PUSH0 DUP2 SWAP1 POP PUSH1 0x20 DUP3 ADD SWAP1 POP SWAP2 SWAP1 POP JUMP JUMPDEST PUSH0 PUSH1 0x20 DUP3 ADD SWAP1 POP SWAP2 SWAP1 POP JUMP JUMPDEST PUSH0 PUSH2 0x674 DUP3 PUSH2 0x635 JUMP JUMPDEST PUSH2 0x67E DUP2 DUP6 PUSH2 0x63F JUMP JUMPDEST SWAP4 POP PUSH2 0x689 DUP4 PUSH2 0x64F JUMP JUMPDEST DUP1 PUSH0 JUMPDEST DUP4 DUP2 LT ISZERO PUSH2 0x6B9 JUMPI DUP2 MLOAD PUSH2 0x6A0 DUP9 DUP3 PUSH2 0x513 JUMP JUMPDEST SWAP8 POP PUSH2 0x6AB DUP4 PUSH2 0x65E JUMP JUMPDEST SWAP3 POP POP PUSH1 0x1 DUP2 ADD SWAP1 POP PUSH2 0x68C JUMP JUMPDEST POP DUP6 SWAP4 POP POP POP POP SWAP3 SWAP2 POP POP JUMP JUMPDEST PUSH0 PUSH1 0x20 DUP3 ADD SWAP1 POP DUP2 DUP2 SUB PUSH0 DUP4 ADD MSTORE PUSH2 0x6DE DUP2 DUP5 PUSH2 0x66A JUMP JUMPDEST SWAP1 POP SWAP3 SWAP2 POP POP JUMP JUMPDEST PUSH32 0x4E487B7100000000000000000000000000000000000000000000000000000000 PUSH0 MSTORE PUSH1 0x31 PUSH1 0x4 MSTORE PUSH1 0x24 PUSH0 REVERT INVALID LOG2 PUSH5 0x6970667358 0x22 SLT KECCAK256 0xEA DUP8 LOG1 SWAP14 0xBD 0xD0 LOG3 DUP13 0xE9 MSIZE PUSH14 0xAC81B24724D6E9FF807026181525 PUSH23 0x55455731971764736F6C634300081A0033000000000000 "
				},
				"gasEstimates": {
					"creation": {
						"codeDepositCost": "373000",
						"executionCost": "infinite",
						"totalCost": "infinite"
					},
					"external": {
						"arr(uint256)": "infinite",
						"arr2(uint256)": "infinite",
						"arr3(uint256)": "infinite",
						"array_example()": "infinite",
						"getArr()": "infinite",
						"getLength()": "2462",
						"pop()": "29441",
						"push()": "24478"
					}
				},
				"methodIdentifiers": {
					"arr(uint256)": "71e5ee5f",
					"arr2(uint256)": "edf0099b",
					"arr3(uint256)": "8732ded8",
					"array_example()": "67227992",
					"getArr()": "fb8cbced",
					"getLength()": "be1c766b",
					"pop()": "a4ece52c",
					"push()": "8035f0ce"
				}
			},
			"storageLayout": {
				"storage": [
					{
						"astId": 4,
						"contract": "array.sol:Array",
						"label": "arr",
						"offset": 0,
						"slot": "0",
						"type": "t_array(t_uint256)dyn_storage"
					},
					{
						"astId": 11,
						"contract": "array.sol:Array",
						"label": "arr2",
						"offset": 0,
						"slot": "1",
						"type": "t_array(t_uint256)dyn_storage"
					},
					{
						"astId": 15,
						"contract": "array.sol:Array",
						"label": "arr3",
						"offset": 0,
						"slot": "2",
						"type": "t_array(t_uint256)3_storage"
					},
					{
						"astId": 19,
						"contract": "array.sol:Array",
						"label": "data1",
						"offset": 0,
						"slot": "5",
						"type": "t_array(t_uint256)6_storage"
					}
				],
				"types": {
					"t_array(t_uint256)3_storage": {
						"base": "t_uint256",
						"encoding": "inplace",
						"label": "uint256[3]",
						"numberOfBytes": "96"
					},
					"t_array(t_uint256)6_storage": {
						"base": "t_uint256",
						"encoding": "inplace",
						"label": "uint256[6]",
						"numberOfBytes": "192"
					},
					"t_array(t_uint256)dyn_storage": {
						"base": "t_uint256",
						"encoding": "dynamic_array",
						"label": "uint256[]",
						"numberOfBytes": "32"
					},
					"t_uint256": {
						"encoding": "inplace",
						"label": "uint256",
						"numberOfBytes": "32"
					}
				}
			},
			"userdoc": {
				"kind": "user",
				"methods": {},
				"version": 1
			}
		}
	}
}