{
	"loop.sol": {
		"StringPattern": {
			"abi": [
				{
					"inputs": [
						{
							"internalType": "string",
							"name": "str",
							"type": "string"
						}
					],
					"name": "generatePattern",
					"outputs": [
						{
							"internalType": "string[]",
							"name": "",
							"type": "string[]"
						}
					],
					"stateMutability": "pure",
					"type": "function"
				}
			],
			"devdoc": {
				"kind": "dev",
				"methods": {},
				"version": 1
			},
			"evm": {
				"assembly": "    /* \"loop.sol\":60:847  contract StringPattern {... */\n  mstore(0x40, 0x80)\n  callvalue\n  dup1\n  iszero\n  tag_1\n  jumpi\n  0x00\n  dup1\n  revert\ntag_1:\n  pop\n  dataSize(sub_0)\n  dup1\n  dataOffset(sub_0)\n  0x00\n  codecopy\n  0x00\n  return\nstop\n\nsub_0: assembly {\n        /* \"loop.sol\":60:847  contract StringPattern {... */\n      mstore(0x40, 0x80)\n      callvalue\n      dup1\n      iszero\n      tag_1\n      jumpi\n      0x00\n      dup1\n      revert\n    tag_1:\n      pop\n      jumpi(tag_2, lt(calldatasize, 0x04))\n      shr(0xe0, calldataload(0x00))\n      dup1\n      0x0713359c\n      eq\n      tag_3\n      jumpi\n    tag_2:\n      0x00\n      dup1\n      revert\n        /* \"loop.sol\":90:460  function generatePattern(string memory str) public pure returns (string[] memory) {... */\n    tag_3:\n      tag_4\n      0x04\n      dup1\n      calldatasize\n      sub\n      dup2\n      add\n      swap1\n      tag_5\n      swap2\n      swap1\n      tag_6\n      jump\t// in\n    tag_5:\n      tag_7\n      jump\t// in\n    tag_4:\n      mload(0x40)\n      tag_8\n      swap2\n      swap1\n      tag_9\n      jump\t// in\n    tag_8:\n      mload(0x40)\n      dup1\n      swap2\n      sub\n      swap1\n      return\n    tag_7:\n        /* \"loop.sol\":155:170  string[] memory */\n      0x60\n        /* \"loop.sol\":183:204  bytes memory strBytes */\n      0x00\n        /* \"loop.sol\":213:216  str */\n      dup3\n        /* \"loop.sol\":183:217  bytes memory strBytes = bytes(str) */\n      swap1\n      pop\n        /* \"loop.sol\":228:239  uint length */\n      0x00\n        /* \"loop.sol\":242:250  strBytes */\n      dup2\n        /* \"loop.sol\":242:257  strBytes.length */\n      mload\n        /* \"loop.sol\":228:257  uint length = strBytes.length */\n      swap1\n      pop\n        /* \"loop.sol\":268:291  string[] memory pattern */\n      0x00\n        /* \"loop.sol\":307:313  length */\n      dup2\n        /* \"loop.sol\":294:314  new string[](length) */\n      0xffffffffffffffff\n      dup2\n      gt\n      iszero\n      tag_11\n      jumpi\n      tag_12\n      tag_13\n      jump\t// in\n    tag_12:\n    tag_11:\n      mload(0x40)\n      swap1\n      dup1\n      dup3\n      mstore\n      dup1\n      0x20\n      mul\n      0x20\n      add\n      dup3\n      add\n      0x40\n      mstore\n      dup1\n      iszero\n      tag_14\n      jumpi\n      dup2\n      0x20\n      add\n    tag_15:\n      0x60\n      dup2\n      mstore\n      0x20\n      add\n      swap1\n      0x01\n      swap1\n      sub\n      swap1\n      dup2\n      tag_15\n      jumpi\n      swap1\n      pop\n    tag_14:\n      pop\n        /* \"loop.sol\":268:314  string[] memory pattern = new string[](length) */\n      swap1\n      pop\n        /* \"loop.sol\":332:338  uint i */\n      0x00\n        /* \"loop.sol\":327:426  for (uint i = 0; i < length; i++) {... */\n    tag_16:\n        /* \"loop.sol\":348:354  length */\n      dup3\n        /* \"loop.sol\":344:345  i */\n      dup2\n        /* \"loop.sol\":344:354  i < length */\n      lt\n        /* \"loop.sol\":327:426  for (uint i = 0; i < length; i++) {... */\n      iszero\n      tag_17\n      jumpi\n        /* \"loop.sol\":389:414  substring(str, i, length) */\n      tag_19\n        /* \"loop.sol\":399:402  str */\n      dup7\n        /* \"loop.sol\":404:405  i */\n      dup3\n        /* \"loop.sol\":407:413  length */\n      dup6\n        /* \"loop.sol\":389:398  substring */\n      tag_20\n        /* \"loop.sol\":389:414  substring(str, i, length) */\n      jump\t// in\n    tag_19:\n        /* \"loop.sol\":376:383  pattern */\n      dup3\n        /* \"loop.sol\":384:385  i */\n      dup3\n        /* \"loop.sol\":376:386  pattern[i] */\n      dup2\n      mload\n      dup2\n      lt\n      tag_21\n      jumpi\n      tag_22\n      tag_23\n      jump\t// in\n    tag_22:\n    tag_21:\n      0x20\n      mul\n      0x20\n      add\n      add\n        /* \"loop.sol\":376:414  pattern[i] = substring(str, i, length) */\n      dup2\n      swap1\n      mstore\n      pop\n        /* \"loop.sol\":356:359  i++ */\n      dup1\n      dup1\n      0x01\n      add\n      swap2\n      pop\n      pop\n        /* \"loop.sol\":327:426  for (uint i = 0; i < length; i++) {... */\n      jump(tag_16)\n    tag_17:\n      pop\n        /* \"loop.sol\":445:452  pattern */\n      dup1\n        /* \"loop.sol\":438:452  return pattern */\n      swap4\n      pop\n      pop\n      pop\n      pop\n        /* \"loop.sol\":90:460  function generatePattern(string memory str) public pure returns (string[] memory) {... */\n      swap2\n      swap1\n      pop\n      jump\t// out\n        /* \"loop.sol\":468:844  function substring(string memory str, uint startIndex, uint endIndex) internal pure returns (string memory) {... */\n    tag_20:\n        /* \"loop.sol\":561:574  string memory */\n      0x60\n        /* \"loop.sol\":587:608  bytes memory strBytes */\n      0x00\n        /* \"loop.sol\":617:620  str */\n      dup5\n        /* \"loop.sol\":587:621  bytes memory strBytes = bytes(str) */\n      swap1\n      pop\n        /* \"loop.sol\":632:651  bytes memory result */\n      0x00\n        /* \"loop.sol\":675:685  startIndex */\n      dup5\n        /* \"loop.sol\":664:672  endIndex */\n      dup5\n        /* \"loop.sol\":664:685  endIndex - startIndex */\n      tag_25\n      swap2\n      swap1\n      tag_26\n      jump\t// in\n    tag_25:\n        /* \"loop.sol\":654:686  new bytes(endIndex - startIndex) */\n      0xffffffffffffffff\n      dup2\n      gt\n      iszero\n      tag_27\n      jumpi\n      tag_28\n      tag_13\n      jump\t// in\n    tag_28:\n    tag_27:\n      mload(0x40)\n      swap1\n      dup1\n      dup3\n      mstore\n      dup1\n      0x1f\n      add\n      not(0x1f)\n      and\n      0x20\n      add\n      dup3\n      add\n      0x40\n      mstore\n      dup1\n      iszero\n      tag_29\n      jumpi\n      dup2\n      0x20\n      add\n      0x01\n      dup3\n      mul\n      dup1\n      calldatasize\n      dup4\n      calldatacopy\n      dup1\n      dup3\n      add\n      swap2\n      pop\n      pop\n      swap1\n      pop\n    tag_29:\n      pop\n        /* \"loop.sol\":632:686  bytes memory result = new bytes(endIndex - startIndex) */\n      swap1\n      pop\n        /* \"loop.sol\":702:708  uint i */\n      0x00\n        /* \"loop.sol\":711:721  startIndex */\n      dup6\n        /* \"loop.sol\":702:721  uint i = startIndex */\n      swap1\n      pop\n        /* \"loop.sol\":697:805  for (uint i = startIndex; i < endIndex; i++) {... */\n    tag_30:\n        /* \"loop.sol\":727:735  endIndex */\n      dup5\n        /* \"loop.sol\":723:724  i */\n      dup2\n        /* \"loop.sol\":723:735  i < endIndex */\n      lt\n        /* \"loop.sol\":697:805  for (uint i = startIndex; i < endIndex; i++) {... */\n      iszero\n      tag_31\n      jumpi\n        /* \"loop.sol\":782:790  strBytes */\n      dup3\n        /* \"loop.sol\":791:792  i */\n      dup2\n        /* \"loop.sol\":782:793  strBytes[i] */\n      dup2\n      mload\n      dup2\n      lt\n      tag_33\n      jumpi\n      tag_34\n      tag_23\n      jump\t// in\n    tag_34:\n    tag_33:\n      0x20\n      add\n      add\n      mload\n      0xf8\n      shr\n      0xf8\n      shl\n        /* \"loop.sol\":757:763  result */\n      dup3\n        /* \"loop.sol\":768:778  startIndex */\n      dup8\n        /* \"loop.sol\":764:765  i */\n      dup4\n        /* \"loop.sol\":764:778  i - startIndex */\n      tag_35\n      swap2\n      swap1\n      tag_26\n      jump\t// in\n    tag_35:\n        /* \"loop.sol\":757:779  result[i - startIndex] */\n      dup2\n      mload\n      dup2\n      lt\n      tag_36\n      jumpi\n      tag_37\n      tag_23\n      jump\t// in\n    tag_37:\n    tag_36:\n      0x20\n      add\n      add\n        /* \"loop.sol\":757:793  result[i - startIndex] = strBytes[i] */\n      swap1\n      not(0xffffffffffffffffffffffffffffffffffffffffffffffffffffffffffffff)\n      and\n      swap1\n      dup2\n      0x00\n      byte\n      swap1\n      mstore8\n      pop\n        /* \"loop.sol\":737:740  i++ */\n      dup1\n      dup1\n      0x01\n      add\n      swap2\n      pop\n      pop\n        /* \"loop.sol\":697:805  for (uint i = startIndex; i < endIndex; i++) {... */\n      jump(tag_30)\n    tag_31:\n      pop\n        /* \"loop.sol\":829:835  result */\n      dup1\n        /* \"loop.sol\":815:836  return string(result) */\n      swap3\n      pop\n      pop\n      pop\n        /* \"loop.sol\":468:844  function substring(string memory str, uint startIndex, uint endIndex) internal pure returns (string memory) {... */\n      swap4\n      swap3\n      pop\n      pop\n      pop\n      jump\t// out\n        /* \"#utility.yul\":7:82   */\n    tag_38:\n        /* \"#utility.yul\":40:46   */\n      0x00\n        /* \"#utility.yul\":73:75   */\n      0x40\n        /* \"#utility.yul\":67:76   */\n      mload\n        /* \"#utility.yul\":57:76   */\n      swap1\n      pop\n        /* \"#utility.yul\":7:82   */\n      swap1\n      jump\t// out\n        /* \"#utility.yul\":88:205   */\n    tag_39:\n        /* \"#utility.yul\":197:198   */\n      0x00\n        /* \"#utility.yul\":194:195   */\n      dup1\n        /* \"#utility.yul\":187:199   */\n      revert\n        /* \"#utility.yul\":211:328   */\n    tag_40:\n        /* \"#utility.yul\":320:321   */\n      0x00\n        /* \"#utility.yul\":317:318   */\n      dup1\n        /* \"#utility.yul\":310:322   */\n      revert\n        /* \"#utility.yul\":334:451   */\n    tag_41:\n        /* \"#utility.yul\":443:444   */\n      0x00\n        /* \"#utility.yul\":440:441   */\n      dup1\n        /* \"#utility.yul\":433:445   */\n      revert\n        /* \"#utility.yul\":457:574   */\n    tag_42:\n        /* \"#utility.yul\":566:567   */\n      0x00\n        /* \"#utility.yul\":563:564   */\n      dup1\n        /* \"#utility.yul\":556:568   */\n      revert\n        /* \"#utility.yul\":580:682   */\n    tag_43:\n        /* \"#utility.yul\":621:627   */\n      0x00\n        /* \"#utility.yul\":672:674   */\n      0x1f\n        /* \"#utility.yul\":668:675   */\n      not\n        /* \"#utility.yul\":663:665   */\n      0x1f\n        /* \"#utility.yul\":656:661   */\n      dup4\n        /* \"#utility.yul\":652:666   */\n      add\n        /* \"#utility.yul\":648:676   */\n      and\n        /* \"#utility.yul\":638:676   */\n      swap1\n      pop\n        /* \"#utility.yul\":580:682   */\n      swap2\n      swap1\n      pop\n      jump\t// out\n        /* \"#utility.yul\":688:868   */\n    tag_13:\n        /* \"#utility.yul\":736:813   */\n      0x4e487b7100000000000000000000000000000000000000000000000000000000\n        /* \"#utility.yul\":733:734   */\n      0x00\n        /* \"#utility.yul\":726:814   */\n      mstore\n        /* \"#utility.yul\":833:837   */\n      0x41\n        /* \"#utility.yul\":830:831   */\n      0x04\n        /* \"#utility.yul\":823:838   */\n      mstore\n        /* \"#utility.yul\":857:861   */\n      0x24\n        /* \"#utility.yul\":854:855   */\n      0x00\n        /* \"#utility.yul\":847:862   */\n      revert\n        /* \"#utility.yul\":874:1155   */\n    tag_44:\n        /* \"#utility.yul\":957:984   */\n      tag_71\n        /* \"#utility.yul\":979:983   */\n      dup3\n        /* \"#utility.yul\":957:984   */\n      tag_43\n      jump\t// in\n    tag_71:\n        /* \"#utility.yul\":949:955   */\n      dup2\n        /* \"#utility.yul\":945:985   */\n      add\n        /* \"#utility.yul\":1087:1093   */\n      dup2\n        /* \"#utility.yul\":1075:1085   */\n      dup2\n        /* \"#utility.yul\":1072:1094   */\n      lt\n        /* \"#utility.yul\":1051:1069   */\n      0xffffffffffffffff\n        /* \"#utility.yul\":1039:1049   */\n      dup3\n        /* \"#utility.yul\":1036:1070   */\n      gt\n        /* \"#utility.yul\":1033:1095   */\n      or\n        /* \"#utility.yul\":1030:1118   */\n      iszero\n      tag_72\n      jumpi\n        /* \"#utility.yul\":1098:1116   */\n      tag_73\n      tag_13\n      jump\t// in\n    tag_73:\n        /* \"#utility.yul\":1030:1118   */\n    tag_72:\n        /* \"#utility.yul\":1138:1148   */\n      dup1\n        /* \"#utility.yul\":1134:1136   */\n      0x40\n        /* \"#utility.yul\":1127:1149   */\n      mstore\n        /* \"#utility.yul\":917:1155   */\n      pop\n        /* \"#utility.yul\":874:1155   */\n      pop\n      pop\n      jump\t// out\n        /* \"#utility.yul\":1161:1290   */\n    tag_45:\n        /* \"#utility.yul\":1195:1201   */\n      0x00\n        /* \"#utility.yul\":1222:1242   */\n      tag_75\n      tag_38\n      jump\t// in\n    tag_75:\n        /* \"#utility.yul\":1212:1242   */\n      swap1\n      pop\n        /* \"#utility.yul\":1251:1284   */\n      tag_76\n        /* \"#utility.yul\":1279:1283   */\n      dup3\n        /* \"#utility.yul\":1271:1277   */\n      dup3\n        /* \"#utility.yul\":1251:1284   */\n      tag_44\n      jump\t// in\n    tag_76:\n        /* \"#utility.yul\":1161:1290   */\n      swap2\n      swap1\n      pop\n      jump\t// out\n        /* \"#utility.yul\":1296:1604   */\n    tag_46:\n        /* \"#utility.yul\":1358:1362   */\n      0x00\n        /* \"#utility.yul\":1448:1466   */\n      0xffffffffffffffff\n        /* \"#utility.yul\":1440:1446   */\n      dup3\n        /* \"#utility.yul\":1437:1467   */\n      gt\n        /* \"#utility.yul\":1434:1490   */\n      iszero\n      tag_78\n      jumpi\n        /* \"#utility.yul\":1470:1488   */\n      tag_79\n      tag_13\n      jump\t// in\n    tag_79:\n        /* \"#utility.yul\":1434:1490   */\n    tag_78:\n        /* \"#utility.yul\":1508:1537   */\n      tag_80\n        /* \"#utility.yul\":1530:1536   */\n      dup3\n        /* \"#utility.yul\":1508:1537   */\n      tag_43\n      jump\t// in\n    tag_80:\n        /* \"#utility.yul\":1500:1537   */\n      swap1\n      pop\n        /* \"#utility.yul\":1592:1596   */\n      0x20\n        /* \"#utility.yul\":1586:1590   */\n      dup2\n        /* \"#utility.yul\":1582:1597   */\n      add\n        /* \"#utility.yul\":1574:1597   */\n      swap1\n      pop\n        /* \"#utility.yul\":1296:1604   */\n      swap2\n      swap1\n      pop\n      jump\t// out\n        /* \"#utility.yul\":1610:1758   */\n    tag_47:\n        /* \"#utility.yul\":1708:1714   */\n      dup3\n        /* \"#utility.yul\":1703:1706   */\n      dup2\n        /* \"#utility.yul\":1698:1701   */\n      dup4\n        /* \"#utility.yul\":1685:1715   */\n      calldatacopy\n        /* \"#utility.yul\":1749:1750   */\n      0x00\n        /* \"#utility.yul\":1740:1746   */\n      dup4\n        /* \"#utility.yul\":1735:1738   */\n      dup4\n        /* \"#utility.yul\":1731:1747   */\n      add\n        /* \"#utility.yul\":1724:1751   */\n      mstore\n        /* \"#utility.yul\":1610:1758   */\n      pop\n      pop\n      pop\n      jump\t// out\n        /* \"#utility.yul\":1764:2189   */\n    tag_48:\n        /* \"#utility.yul\":1842:1847   */\n      0x00\n        /* \"#utility.yul\":1867:1933   */\n      tag_83\n        /* \"#utility.yul\":1883:1932   */\n      tag_84\n        /* \"#utility.yul\":1925:1931   */\n      dup5\n        /* \"#utility.yul\":1883:1932   */\n      tag_46\n      jump\t// in\n    tag_84:\n        /* \"#utility.yul\":1867:1933   */\n      tag_45\n      jump\t// in\n    tag_83:\n        /* \"#utility.yul\":1858:1933   */\n      swap1\n      pop\n        /* \"#utility.yul\":1956:1962   */\n      dup3\n        /* \"#utility.yul\":1949:1954   */\n      dup2\n        /* \"#utility.yul\":1942:1963   */\n      mstore\n        /* \"#utility.yul\":1994:1998   */\n      0x20\n        /* \"#utility.yul\":1987:1992   */\n      dup2\n        /* \"#utility.yul\":1983:1999   */\n      add\n        /* \"#utility.yul\":2032:2035   */\n      dup5\n        /* \"#utility.yul\":2023:2029   */\n      dup5\n        /* \"#utility.yul\":2018:2021   */\n      dup5\n        /* \"#utility.yul\":2014:2030   */\n      add\n        /* \"#utility.yul\":2011:2036   */\n      gt\n        /* \"#utility.yul\":2008:2120   */\n      iszero\n      tag_85\n      jumpi\n        /* \"#utility.yul\":2039:2118   */\n      tag_86\n      tag_42\n      jump\t// in\n    tag_86:\n        /* \"#utility.yul\":2008:2120   */\n    tag_85:\n        /* \"#utility.yul\":2129:2183   */\n      tag_87\n        /* \"#utility.yul\":2176:2182   */\n      dup5\n        /* \"#utility.yul\":2171:2174   */\n      dup3\n        /* \"#utility.yul\":2166:2169   */\n      dup6\n        /* \"#utility.yul\":2129:2183   */\n      tag_47\n      jump\t// in\n    tag_87:\n        /* \"#utility.yul\":1848:2189   */\n      pop\n        /* \"#utility.yul\":1764:2189   */\n      swap4\n      swap3\n      pop\n      pop\n      pop\n      jump\t// out\n        /* \"#utility.yul\":2209:2549   */\n    tag_49:\n        /* \"#utility.yul\":2265:2270   */\n      0x00\n        /* \"#utility.yul\":2314:2317   */\n      dup3\n        /* \"#utility.yul\":2307:2311   */\n      0x1f\n        /* \"#utility.yul\":2299:2305   */\n      dup4\n        /* \"#utility.yul\":2295:2312   */\n      add\n        /* \"#utility.yul\":2291:2318   */\n      slt\n        /* \"#utility.yul\":2281:2403   */\n      tag_89\n      jumpi\n        /* \"#utility.yul\":2322:2401   */\n      tag_90\n      tag_41\n      jump\t// in\n    tag_90:\n        /* \"#utility.yul\":2281:2403   */\n    tag_89:\n        /* \"#utility.yul\":2439:2445   */\n      dup2\n        /* \"#utility.yul\":2426:2446   */\n      calldataload\n        /* \"#utility.yul\":2464:2543   */\n      tag_91\n        /* \"#utility.yul\":2539:2542   */\n      dup5\n        /* \"#utility.yul\":2531:2537   */\n      dup3\n        /* \"#utility.yul\":2524:2528   */\n      0x20\n        /* \"#utility.yul\":2516:2522   */\n      dup7\n        /* \"#utility.yul\":2512:2529   */\n      add\n        /* \"#utility.yul\":2464:2543   */\n      tag_48\n      jump\t// in\n    tag_91:\n        /* \"#utility.yul\":2455:2543   */\n      swap2\n      pop\n        /* \"#utility.yul\":2271:2549   */\n      pop\n        /* \"#utility.yul\":2209:2549   */\n      swap3\n      swap2\n      pop\n      pop\n      jump\t// out\n        /* \"#utility.yul\":2555:3064   */\n    tag_6:\n        /* \"#utility.yul\":2624:2630   */\n      0x00\n        /* \"#utility.yul\":2673:2675   */\n      0x20\n        /* \"#utility.yul\":2661:2670   */\n      dup3\n        /* \"#utility.yul\":2652:2659   */\n      dup5\n        /* \"#utility.yul\":2648:2671   */\n      sub\n        /* \"#utility.yul\":2644:2676   */\n      slt\n        /* \"#utility.yul\":2641:2760   */\n      iszero\n      tag_93\n      jumpi\n        /* \"#utility.yul\":2679:2758   */\n      tag_94\n      tag_39\n      jump\t// in\n    tag_94:\n        /* \"#utility.yul\":2641:2760   */\n    tag_93:\n        /* \"#utility.yul\":2827:2828   */\n      0x00\n        /* \"#utility.yul\":2816:2825   */\n      dup3\n        /* \"#utility.yul\":2812:2829   */\n      add\n        /* \"#utility.yul\":2799:2830   */\n      calldataload\n        /* \"#utility.yul\":2857:2875   */\n      0xffffffffffffffff\n        /* \"#utility.yul\":2849:2855   */\n      dup2\n        /* \"#utility.yul\":2846:2876   */\n      gt\n        /* \"#utility.yul\":2843:2960   */\n      iszero\n      tag_95\n      jumpi\n        /* \"#utility.yul\":2879:2958   */\n      tag_96\n      tag_40\n      jump\t// in\n    tag_96:\n        /* \"#utility.yul\":2843:2960   */\n    tag_95:\n        /* \"#utility.yul\":2984:3047   */\n      tag_97\n        /* \"#utility.yul\":3039:3046   */\n      dup5\n        /* \"#utility.yul\":3030:3036   */\n      dup3\n        /* \"#utility.yul\":3019:3028   */\n      dup6\n        /* \"#utility.yul\":3015:3037   */\n      add\n        /* \"#utility.yul\":2984:3047   */\n      tag_49\n      jump\t// in\n    tag_97:\n        /* \"#utility.yul\":2974:3047   */\n      swap2\n      pop\n        /* \"#utility.yul\":2770:3057   */\n      pop\n        /* \"#utility.yul\":2555:3064   */\n      swap3\n      swap2\n      pop\n      pop\n      jump\t// out\n        /* \"#utility.yul\":3070:3194   */\n    tag_50:\n        /* \"#utility.yul\":3147:3153   */\n      0x00\n        /* \"#utility.yul\":3181:3186   */\n      dup2\n        /* \"#utility.yul\":3175:3187   */\n      mload\n        /* \"#utility.yul\":3165:3187   */\n      swap1\n      pop\n        /* \"#utility.yul\":3070:3194   */\n      swap2\n      swap1\n      pop\n      jump\t// out\n        /* \"#utility.yul\":3200:3394   */\n    tag_51:\n        /* \"#utility.yul\":3309:3320   */\n      0x00\n        /* \"#utility.yul\":3343:3349   */\n      dup3\n        /* \"#utility.yul\":3338:3341   */\n      dup3\n        /* \"#utility.yul\":3331:3350   */\n      mstore\n        /* \"#utility.yul\":3383:3387   */\n      0x20\n        /* \"#utility.yul\":3378:3381   */\n      dup3\n        /* \"#utility.yul\":3374:3388   */\n      add\n        /* \"#utility.yul\":3359:3388   */\n      swap1\n      pop\n        /* \"#utility.yul\":3200:3394   */\n      swap3\n      swap2\n      pop\n      pop\n      jump\t// out\n        /* \"#utility.yul\":3400:3542   */\n    tag_52:\n        /* \"#utility.yul\":3477:3481   */\n      0x00\n        /* \"#utility.yul\":3500:3503   */\n      dup2\n        /* \"#utility.yul\":3492:3503   */\n      swap1\n      pop\n        /* \"#utility.yul\":3530:3534   */\n      0x20\n        /* \"#utility.yul\":3525:3528   */\n      dup3\n        /* \"#utility.yul\":3521:3535   */\n      add\n        /* \"#utility.yul\":3513:3535   */\n      swap1\n      pop\n        /* \"#utility.yul\":3400:3542   */\n      swap2\n      swap1\n      pop\n      jump\t// out\n        /* \"#utility.yul\":3548:3647   */\n    tag_53:\n        /* \"#utility.yul\":3600:3606   */\n      0x00\n        /* \"#utility.yul\":3634:3639   */\n      dup2\n        /* \"#utility.yul\":3628:3640   */\n      mload\n        /* \"#utility.yul\":3618:3640   */\n      swap1\n      pop\n        /* \"#utility.yul\":3548:3647   */\n      swap2\n      swap1\n      pop\n      jump\t// out\n        /* \"#utility.yul\":3653:3812   */\n    tag_54:\n        /* \"#utility.yul\":3727:3738   */\n      0x00\n        /* \"#utility.yul\":3761:3767   */\n      dup3\n        /* \"#utility.yul\":3756:3759   */\n      dup3\n        /* \"#utility.yul\":3749:3768   */\n      mstore\n        /* \"#utility.yul\":3801:3805   */\n      0x20\n        /* \"#utility.yul\":3796:3799   */\n      dup3\n        /* \"#utility.yul\":3792:3806   */\n      add\n        /* \"#utility.yul\":3777:3806   */\n      swap1\n      pop\n        /* \"#utility.yul\":3653:3812   */\n      swap3\n      swap2\n      pop\n      pop\n      jump\t// out\n        /* \"#utility.yul\":3818:3957   */\n    tag_55:\n        /* \"#utility.yul\":3907:3913   */\n      dup3\n        /* \"#utility.yul\":3902:3905   */\n      dup2\n        /* \"#utility.yul\":3897:3900   */\n      dup4\n        /* \"#utility.yul\":3891:3914   */\n      mcopy\n        /* \"#utility.yul\":3948:3949   */\n      0x00\n        /* \"#utility.yul\":3939:3945   */\n      dup4\n        /* \"#utility.yul\":3934:3937   */\n      dup4\n        /* \"#utility.yul\":3930:3946   */\n      add\n        /* \"#utility.yul\":3923:3950   */\n      mstore\n        /* \"#utility.yul\":3818:3957   */\n      pop\n      pop\n      pop\n      jump\t// out\n        /* \"#utility.yul\":3963:4320   */\n    tag_56:\n        /* \"#utility.yul\":4041:4044   */\n      0x00\n        /* \"#utility.yul\":4069:4108   */\n      tag_105\n        /* \"#utility.yul\":4102:4107   */\n      dup3\n        /* \"#utility.yul\":4069:4108   */\n      tag_53\n      jump\t// in\n    tag_105:\n        /* \"#utility.yul\":4124:4185   */\n      tag_106\n        /* \"#utility.yul\":4178:4184   */\n      dup2\n        /* \"#utility.yul\":4173:4176   */\n      dup6\n        /* \"#utility.yul\":4124:4185   */\n      tag_54\n      jump\t// in\n    tag_106:\n        /* \"#utility.yul\":4117:4185   */\n      swap4\n      pop\n        /* \"#utility.yul\":4194:4259   */\n      tag_107\n        /* \"#utility.yul\":4252:4258   */\n      dup2\n        /* \"#utility.yul\":4247:4250   */\n      dup6\n        /* \"#utility.yul\":4240:4244   */\n      0x20\n        /* \"#utility.yul\":4233:4238   */\n      dup7\n        /* \"#utility.yul\":4229:4245   */\n      add\n        /* \"#utility.yul\":4194:4259   */\n      tag_55\n      jump\t// in\n    tag_107:\n        /* \"#utility.yul\":4284:4313   */\n      tag_108\n        /* \"#utility.yul\":4306:4312   */\n      dup2\n        /* \"#utility.yul\":4284:4313   */\n      tag_43\n      jump\t// in\n    tag_108:\n        /* \"#utility.yul\":4279:4282   */\n      dup5\n        /* \"#utility.yul\":4275:4314   */\n      add\n        /* \"#utility.yul\":4268:4314   */\n      swap2\n      pop\n        /* \"#utility.yul\":4045:4320   */\n      pop\n        /* \"#utility.yul\":3963:4320   */\n      swap3\n      swap2\n      pop\n      pop\n      jump\t// out\n        /* \"#utility.yul\":4326:4522   */\n    tag_57:\n        /* \"#utility.yul\":4415:4425   */\n      0x00\n        /* \"#utility.yul\":4450:4516   */\n      tag_110\n        /* \"#utility.yul\":4512:4515   */\n      dup4\n        /* \"#utility.yul\":4504:4510   */\n      dup4\n        /* \"#utility.yul\":4450:4516   */\n      tag_56\n      jump\t// in\n    tag_110:\n        /* \"#utility.yul\":4436:4516   */\n      swap1\n      pop\n        /* \"#utility.yul\":4326:4522   */\n      swap3\n      swap2\n      pop\n      pop\n      jump\t// out\n        /* \"#utility.yul\":4528:4651   */\n    tag_58:\n        /* \"#utility.yul\":4608:4612   */\n      0x00\n        /* \"#utility.yul\":4640:4644   */\n      0x20\n        /* \"#utility.yul\":4635:4638   */\n      dup3\n        /* \"#utility.yul\":4631:4645   */\n      add\n        /* \"#utility.yul\":4623:4645   */\n      swap1\n      pop\n        /* \"#utility.yul\":4528:4651   */\n      swap2\n      swap1\n      pop\n      jump\t// out\n        /* \"#utility.yul\":4685:5676   */\n    tag_59:\n        /* \"#utility.yul\":4824:4827   */\n      0x00\n        /* \"#utility.yul\":4853:4917   */\n      tag_113\n        /* \"#utility.yul\":4911:4916   */\n      dup3\n        /* \"#utility.yul\":4853:4917   */\n      tag_50\n      jump\t// in\n    tag_113:\n        /* \"#utility.yul\":4933:5029   */\n      tag_114\n        /* \"#utility.yul\":5022:5028   */\n      dup2\n        /* \"#utility.yul\":5017:5020   */\n      dup6\n        /* \"#utility.yul\":4933:5029   */\n      tag_51\n      jump\t// in\n    tag_114:\n        /* \"#utility.yul\":4926:5029   */\n      swap4\n      pop\n        /* \"#utility.yul\":5055:5058   */\n      dup4\n        /* \"#utility.yul\":5100:5104   */\n      0x20\n        /* \"#utility.yul\":5092:5098   */\n      dup3\n        /* \"#utility.yul\":5088:5105   */\n      mul\n        /* \"#utility.yul\":5083:5086   */\n      dup6\n        /* \"#utility.yul\":5079:5106   */\n      add\n        /* \"#utility.yul\":5130:5196   */\n      tag_115\n        /* \"#utility.yul\":5190:5195   */\n      dup6\n        /* \"#utility.yul\":5130:5196   */\n      tag_52\n      jump\t// in\n    tag_115:\n        /* \"#utility.yul\":5219:5226   */\n      dup1\n        /* \"#utility.yul\":5250:5251   */\n      0x00\n        /* \"#utility.yul\":5235:5631   */\n    tag_116:\n        /* \"#utility.yul\":5260:5266   */\n      dup6\n        /* \"#utility.yul\":5257:5258   */\n      dup2\n        /* \"#utility.yul\":5254:5267   */\n      lt\n        /* \"#utility.yul\":5235:5631   */\n      iszero\n      tag_118\n      jumpi\n        /* \"#utility.yul\":5331:5340   */\n      dup5\n        /* \"#utility.yul\":5325:5329   */\n      dup5\n        /* \"#utility.yul\":5321:5341   */\n      sub\n        /* \"#utility.yul\":5316:5319   */\n      dup10\n        /* \"#utility.yul\":5309:5342   */\n      mstore\n        /* \"#utility.yul\":5382:5388   */\n      dup2\n        /* \"#utility.yul\":5376:5389   */\n      mload\n        /* \"#utility.yul\":5410:5494   */\n      tag_119\n        /* \"#utility.yul\":5489:5493   */\n      dup6\n        /* \"#utility.yul\":5474:5487   */\n      dup3\n        /* \"#utility.yul\":5410:5494   */\n      tag_57\n      jump\t// in\n    tag_119:\n        /* \"#utility.yul\":5402:5494   */\n      swap5\n      pop\n        /* \"#utility.yul\":5517:5587   */\n      tag_120\n        /* \"#utility.yul\":5580:5586   */\n      dup4\n        /* \"#utility.yul\":5517:5587   */\n      tag_58\n      jump\t// in\n    tag_120:\n        /* \"#utility.yul\":5507:5587   */\n      swap3\n      pop\n        /* \"#utility.yul\":5616:5620   */\n      0x20\n        /* \"#utility.yul\":5611:5614   */\n      dup11\n        /* \"#utility.yul\":5607:5621   */\n      add\n        /* \"#utility.yul\":5600:5621   */\n      swap10\n      pop\n        /* \"#utility.yul\":5295:5631   */\n      pop\n        /* \"#utility.yul\":5282:5283   */\n      0x01\n        /* \"#utility.yul\":5279:5280   */\n      dup2\n        /* \"#utility.yul\":5275:5284   */\n      add\n        /* \"#utility.yul\":5270:5284   */\n      swap1\n      pop\n        /* \"#utility.yul\":5235:5631   */\n      jump(tag_116)\n    tag_118:\n        /* \"#utility.yul\":5239:5253   */\n      pop\n        /* \"#utility.yul\":5647:5651   */\n      dup3\n        /* \"#utility.yul\":5640:5651   */\n      swap8\n      pop\n        /* \"#utility.yul\":5667:5670   */\n      dup8\n        /* \"#utility.yul\":5660:5670   */\n      swap6\n      pop\n        /* \"#utility.yul\":4829:5676   */\n      pop\n      pop\n      pop\n      pop\n      pop\n        /* \"#utility.yul\":4685:5676   */\n      swap3\n      swap2\n      pop\n      pop\n      jump\t// out\n        /* \"#utility.yul\":5682:6095   */\n    tag_9:\n        /* \"#utility.yul\":5845:5849   */\n      0x00\n        /* \"#utility.yul\":5883:5885   */\n      0x20\n        /* \"#utility.yul\":5872:5881   */\n      dup3\n        /* \"#utility.yul\":5868:5886   */\n      add\n        /* \"#utility.yul\":5860:5886   */\n      swap1\n      pop\n        /* \"#utility.yul\":5932:5941   */\n      dup2\n        /* \"#utility.yul\":5926:5930   */\n      dup2\n        /* \"#utility.yul\":5922:5942   */\n      sub\n        /* \"#utility.yul\":5918:5919   */\n      0x00\n        /* \"#utility.yul\":5907:5916   */\n      dup4\n        /* \"#utility.yul\":5903:5920   */\n      add\n        /* \"#utility.yul\":5896:5943   */\n      mstore\n        /* \"#utility.yul\":5960:6088   */\n      tag_122\n        /* \"#utility.yul\":6083:6087   */\n      dup2\n        /* \"#utility.yul\":6074:6080   */\n      dup5\n        /* \"#utility.yul\":5960:6088   */\n      tag_59\n      jump\t// in\n    tag_122:\n        /* \"#utility.yul\":5952:6088   */\n      swap1\n      pop\n        /* \"#utility.yul\":5682:6095   */\n      swap3\n      swap2\n      pop\n      pop\n      jump\t// out\n        /* \"#utility.yul\":6101:6281   */\n    tag_23:\n        /* \"#utility.yul\":6149:6226   */\n      0x4e487b7100000000000000000000000000000000000000000000000000000000\n        /* \"#utility.yul\":6146:6147   */\n      0x00\n        /* \"#utility.yul\":6139:6227   */\n      mstore\n        /* \"#utility.yul\":6246:6250   */\n      0x32\n        /* \"#utility.yul\":6243:6244   */\n      0x04\n        /* \"#utility.yul\":6236:6251   */\n      mstore\n        /* \"#utility.yul\":6270:6274   */\n      0x24\n        /* \"#utility.yul\":6267:6268   */\n      0x00\n        /* \"#utility.yul\":6260:6275   */\n      revert\n        /* \"#utility.yul\":6287:6364   */\n    tag_60:\n        /* \"#utility.yul\":6324:6331   */\n      0x00\n        /* \"#utility.yul\":6353:6358   */\n      dup2\n        /* \"#utility.yul\":6342:6358   */\n      swap1\n      pop\n        /* \"#utility.yul\":6287:6364   */\n      swap2\n      swap1\n      pop\n      jump\t// out\n        /* \"#utility.yul\":6370:6550   */\n    tag_61:\n        /* \"#utility.yul\":6418:6495   */\n      0x4e487b7100000000000000000000000000000000000000000000000000000000\n        /* \"#utility.yul\":6415:6416   */\n      0x00\n        /* \"#utility.yul\":6408:6496   */\n      mstore\n        /* \"#utility.yul\":6515:6519   */\n      0x11\n        /* \"#utility.yul\":6512:6513   */\n      0x04\n        /* \"#utility.yul\":6505:6520   */\n      mstore\n        /* \"#utility.yul\":6539:6543   */\n      0x24\n        /* \"#utility.yul\":6536:6537   */\n      0x00\n        /* \"#utility.yul\":6529:6544   */\n      revert\n        /* \"#utility.yul\":6556:6750   */\n    tag_26:\n        /* \"#utility.yul\":6596:6600   */\n      0x00\n        /* \"#utility.yul\":6616:6636   */\n      tag_127\n        /* \"#utility.yul\":6634:6635   */\n      dup3\n        /* \"#utility.yul\":6616:6636   */\n      tag_60\n      jump\t// in\n    tag_127:\n        /* \"#utility.yul\":6611:6636   */\n      swap2\n      pop\n        /* \"#utility.yul\":6650:6670   */\n      tag_128\n        /* \"#utility.yul\":6668:6669   */\n      dup4\n        /* \"#utility.yul\":6650:6670   */\n      tag_60\n      jump\t// in\n    tag_128:\n        /* \"#utility.yul\":6645:6670   */\n      swap3\n      pop\n        /* \"#utility.yul\":6694:6695   */\n      dup3\n        /* \"#utility.yul\":6691:6692   */\n      dup3\n        /* \"#utility.yul\":6687:6696   */\n      sub\n        /* \"#utility.yul\":6679:6696   */\n      swap1\n      pop\n        /* \"#utility.yul\":6718:6719   */\n      dup2\n        /* \"#utility.yul\":6712:6716   */\n      dup2\n        /* \"#utility.yul\":6709:6720   */\n      gt\n        /* \"#utility.yul\":6706:6743   */\n      iszero\n      tag_129\n      jumpi\n        /* \"#utility.yul\":6723:6741   */\n      tag_130\n      tag_61\n      jump\t// in\n    tag_130:\n        /* \"#utility.yul\":6706:6743   */\n    tag_129:\n        /* \"#utility.yul\":6556:6750   */\n      swap3\n      swap2\n      pop\n      pop\n      jump\t// out\n\n    auxdata: 0xa26469706673582212200323444a5fa59c54778d13ab5f96cb17d3cca4588d04f2f911064800c5f5013f64736f6c634300081a0033\n}\n",
				"bytecode": {
					"linkReferences": {},
					"object": "6080604052348015600e575f80fd5b506105928061001c5f395ff3fe608060405234801561000f575f80fd5b5060043610610029575f3560e01c80630713359c1461002d575b5f80fd5b61004760048036038101906100429190610344565b61005d565b60405161005491906104a6565b60405180910390f35b60605f8290505f815190505f8167ffffffffffffffff81111561008357610082610220565b5b6040519080825280602002602001820160405280156100b657816020015b60608152602001906001900390816100a15790505b5090505f5b828110156100f9576100ce868285610105565b8282815181106100e1576100e06104c6565b5b602002602001018190525080806001019150506100bb565b50809350505050919050565b60605f8490505f84846101189190610529565b67ffffffffffffffff81111561013157610130610220565b5b6040519080825280601f01601f1916602001820160405280156101635781602001600182028036833780820191505090505b5090505f8590505b848110156101ea57828181518110610186576101856104c6565b5b602001015160f81c60f81b82878361019e9190610529565b815181106101af576101ae6104c6565b5b60200101907effffffffffffffffffffffffffffffffffffffffffffffffffffffffffffff191690815f1a905350808060010191505061016b565b5080925050509392505050565b5f604051905090565b5f80fd5b5f80fd5b5f80fd5b5f80fd5b5f601f19601f8301169050919050565b7f4e487b71000000000000000000000000000000000000000000000000000000005f52604160045260245ffd5b61025682610210565b810181811067ffffffffffffffff8211171561027557610274610220565b5b80604052505050565b5f6102876101f7565b9050610293828261024d565b919050565b5f67ffffffffffffffff8211156102b2576102b1610220565b5b6102bb82610210565b9050602081019050919050565b828183375f83830152505050565b5f6102e86102e384610298565b61027e565b9050828152602081018484840111156103045761030361020c565b5b61030f8482856102c8565b509392505050565b5f82601f83011261032b5761032a610208565b5b813561033b8482602086016102d6565b91505092915050565b5f6020828403121561035957610358610200565b5b5f82013567ffffffffffffffff81111561037657610375610204565b5b61038284828501610317565b91505092915050565b5f81519050919050565b5f82825260208201905092915050565b5f819050602082019050919050565b5f81519050919050565b5f82825260208201905092915050565b8281835e5f83830152505050565b5f6103e6826103b4565b6103f081856103be565b93506104008185602086016103ce565b61040981610210565b840191505092915050565b5f61041f83836103dc565b905092915050565b5f602082019050919050565b5f61043d8261038b565b6104478185610395565b935083602082028501610459856103a5565b805f5b8581101561049457848403895281516104758582610414565b945061048083610427565b925060208a0199505060018101905061045c565b50829750879550505050505092915050565b5f6020820190508181035f8301526104be8184610433565b905092915050565b7f4e487b71000000000000000000000000000000000000000000000000000000005f52603260045260245ffd5b5f819050919050565b7f4e487b71000000000000000000000000000000000000000000000000000000005f52601160045260245ffd5b5f610533826104f3565b915061053e836104f3565b9250828203905081811115610556576105556104fc565b5b9291505056fea26469706673582212200323444a5fa59c54778d13ab5f96cb17d3cca4588d04f2f911064800c5f5013f64736f6c634300081a0033",
					"opcodes": "PUSH1 0x80 PUSH1 0x40 MSTORE CALLVALUE DUP1 ISZERO PUSH1 0xE JUMPI PUSH0 DUP1 REVERT JUMPDEST POP PUSH2 0x592 DUP1 PUSH2 0x1C PUSH0 CODECOPY PUSH0 RETURN INVALID PUSH1 0x80 PUSH1 0x40 MSTORE CALLVALUE DUP1 ISZERO PUSH2 0xF JUMPI PUSH0 DUP1 REVERT JUMPDEST POP PUSH1 0x4 CALLDATASIZE LT PUSH2 0x29 JUMPI PUSH0 CALLDATALOAD PUSH1 0xE0 SHR DUP1 PUSH4 0x713359C EQ PUSH2 0x2D JUMPI JUMPDEST PUSH0 DUP1 REVERT JUMPDEST PUSH2 0x47 PUSH1 0x4 DUP1 CALLDATASIZE SUB DUP2 ADD SWAP1 PUSH2 0x42 SWAP2 SWAP1 PUSH2 0x344 JUMP JUMPDEST PUSH2 0x5D JUMP JUMPDEST PUSH1 0x40 MLOAD PUSH2 0x54 SWAP2 SWAP1 PUSH2 0x4A6 JUMP JUMPDEST PUSH1 0x40 MLOAD DUP1 SWAP2 SUB SWAP1 RETURN JUMPDEST PUSH1 0x60 PUSH0 DUP3 SWAP1 POP PUSH0 DUP2 MLOAD SWAP1 POP PUSH0 DUP2 PUSH8 0xFFFFFFFFFFFFFFFF DUP2 GT ISZERO PUSH2 0x83 JUMPI PUSH2 0x82 PUSH2 0x220 JUMP JUMPDEST JUMPDEST PUSH1 0x40 MLOAD SWAP1 DUP1 DUP3 MSTORE DUP1 PUSH1 0x20 MUL PUSH1 0x20 ADD DUP3 ADD PUSH1 0x40 MSTORE DUP1 ISZERO PUSH2 0xB6 JUMPI DUP2 PUSH1 0x20 ADD JUMPDEST PUSH1 0x60 DUP2 MSTORE PUSH1 0x20 ADD SWAP1 PUSH1 0x1 SWAP1 SUB SWAP1 DUP2 PUSH2 0xA1 JUMPI SWAP1 POP JUMPDEST POP SWAP1 POP PUSH0 JUMPDEST DUP3 DUP2 LT ISZERO PUSH2 0xF9 JUMPI PUSH2 0xCE DUP7 DUP3 DUP6 PUSH2 0x105 JUMP JUMPDEST DUP3 DUP3 DUP2 MLOAD DUP2 LT PUSH2 0xE1 JUMPI PUSH2 0xE0 PUSH2 0x4C6 JUMP JUMPDEST JUMPDEST PUSH1 0x20 MUL PUSH1 0x20 ADD ADD DUP2 SWAP1 MSTORE POP DUP1 DUP1 PUSH1 0x1 ADD SWAP2 POP POP PUSH2 0xBB JUMP JUMPDEST POP DUP1 SWAP4 POP POP POP POP SWAP2 SWAP1 POP JUMP JUMPDEST PUSH1 0x60 PUSH0 DUP5 SWAP1 POP PUSH0 DUP5 DUP5 PUSH2 0x118 SWAP2 SWAP1 PUSH2 0x529 JUMP JUMPDEST PUSH8 0xFFFFFFFFFFFFFFFF DUP2 GT ISZERO PUSH2 0x131 JUMPI PUSH2 0x130 PUSH2 0x220 JUMP JUMPDEST JUMPDEST PUSH1 0x40 MLOAD SWAP1 DUP1 DUP3 MSTORE DUP1 PUSH1 0x1F ADD PUSH1 0x1F NOT AND PUSH1 0x20 ADD DUP3 ADD PUSH1 0x40 MSTORE DUP1 ISZERO PUSH2 0x163 JUMPI DUP2 PUSH1 0x20 ADD PUSH1 0x1 DUP3 MUL DUP1 CALLDATASIZE DUP4 CALLDATACOPY DUP1 DUP3 ADD SWAP2 POP POP SWAP1 POP JUMPDEST POP SWAP1 POP PUSH0 DUP6 SWAP1 POP JUMPDEST DUP5 DUP2 LT ISZERO PUSH2 0x1EA JUMPI DUP3 DUP2 DUP2 MLOAD DUP2 LT PUSH2 0x186 JUMPI PUSH2 0x185 PUSH2 0x4C6 JUMP JUMPDEST JUMPDEST PUSH1 0x20 ADD ADD MLOAD PUSH1 0xF8 SHR PUSH1 0xF8 SHL DUP3 DUP8 DUP4 PUSH2 0x19E SWAP2 SWAP1 PUSH2 0x529 JUMP JUMPDEST DUP2 MLOAD DUP2 LT PUSH2 0x1AF JUMPI PUSH2 0x1AE PUSH2 0x4C6 JUMP JUMPDEST JUMPDEST PUSH1 0x20 ADD ADD SWAP1 PUSH31 0xFFFFFFFFFFFFFFFFFFFFFFFFFFFFFFFFFFFFFFFFFFFFFFFFFFFFFFFFFFFFFF NOT AND SWAP1 DUP2 PUSH0 BYTE SWAP1 MSTORE8 POP DUP1 DUP1 PUSH1 0x1 ADD SWAP2 POP POP PUSH2 0x16B JUMP JUMPDEST POP DUP1 SWAP3 POP POP POP SWAP4 SWAP3 POP POP POP JUMP JUMPDEST PUSH0 PUSH1 0x40 MLOAD SWAP1 POP SWAP1 JUMP JUMPDEST PUSH0 DUP1 REVERT JUMPDEST PUSH0 DUP1 REVERT JUMPDEST PUSH0 DUP1 REVERT JUMPDEST PUSH0 DUP1 REVERT JUMPDEST PUSH0 PUSH1 0x1F NOT PUSH1 0x1F DUP4 ADD AND SWAP1 POP SWAP2 SWAP1 POP JUMP JUMPDEST PUSH32 0x4E487B7100000000000000000000000000000000000000000000000000000000 PUSH0 MSTORE PUSH1 0x41 PUSH1 0x4 MSTORE PUSH1 0x24 PUSH0 REVERT JUMPDEST PUSH2 0x256 DUP3 PUSH2 0x210 JUMP JUMPDEST DUP2 ADD DUP2 DUP2 LT PUSH8 0xFFFFFFFFFFFFFFFF DUP3 GT OR ISZERO PUSH2 0x275 JUMPI PUSH2 0x274 PUSH2 0x220 JUMP JUMPDEST JUMPDEST DUP1 PUSH1 0x40 MSTORE POP POP POP JUMP JUMPDEST PUSH0 PUSH2 0x287 PUSH2 0x1F7 JUMP JUMPDEST SWAP1 POP PUSH2 0x293 DUP3 DUP3 PUSH2 0x24D JUMP JUMPDEST SWAP2 SWAP1 POP JUMP JUMPDEST PUSH0 PUSH8 0xFFFFFFFFFFFFFFFF DUP3 GT ISZERO PUSH2 0x2B2 JUMPI PUSH2 0x2B1 PUSH2 0x220 JUMP JUMPDEST JUMPDEST PUSH2 0x2BB DUP3 PUSH2 0x210 JUMP JUMPDEST SWAP1 POP PUSH1 0x20 DUP2 ADD SWAP1 POP SWAP2 SWAP1 POP JUMP JUMPDEST DUP3 DUP2 DUP4 CALLDATACOPY PUSH0 DUP4 DUP4 ADD MSTORE POP POP POP JUMP JUMPDEST PUSH0 PUSH2 0x2E8 PUSH2 0x2E3 DUP5 PUSH2 0x298 JUMP JUMPDEST PUSH2 0x27E JUMP JUMPDEST SWAP1 POP DUP3 DUP2 MSTORE PUSH1 0x20 DUP2 ADD DUP5 DUP5 DUP5 ADD GT ISZERO PUSH2 0x304 JUMPI PUSH2 0x303 PUSH2 0x20C JUMP JUMPDEST JUMPDEST PUSH2 0x30F DUP5 DUP3 DUP6 PUSH2 0x2C8 JUMP JUMPDEST POP SWAP4 SWAP3 POP POP POP JUMP JUMPDEST PUSH0 DUP3 PUSH1 0x1F DUP4 ADD SLT PUSH2 0x32B JUMPI PUSH2 0x32A PUSH2 0x208 JUMP JUMPDEST JUMPDEST DUP2 CALLDATALOAD PUSH2 0x33B DUP5 DUP3 PUSH1 0x20 DUP7 ADD PUSH2 0x2D6 JUMP JUMPDEST SWAP2 POP POP SWAP3 SWAP2 POP POP JUMP JUMPDEST PUSH0 PUSH1 0x20 DUP3 DUP5 SUB SLT ISZERO PUSH2 0x359 JUMPI PUSH2 0x358 PUSH2 0x200 JUMP JUMPDEST JUMPDEST PUSH0 DUP3 ADD CALLDATALOAD PUSH8 0xFFFFFFFFFFFFFFFF DUP2 GT ISZERO PUSH2 0x376 JUMPI PUSH2 0x375 PUSH2 0x204 JUMP JUMPDEST JUMPDEST PUSH2 0x382 DUP5 DUP3 DUP6 ADD PUSH2 0x317 JUMP JUMPDEST SWAP2 POP POP SWAP3 SWAP2 POP POP JUMP JUMPDEST PUSH0 DUP2 MLOAD SWAP1 POP SWAP2 SWAP1 POP JUMP JUMPDEST PUSH0 DUP3 DUP3 MSTORE PUSH1 0x20 DUP3 ADD SWAP1 POP SWAP3 SWAP2 POP POP JUMP JUMPDEST PUSH0 DUP2 SWAP1 POP PUSH1 0x20 DUP3 ADD SWAP1 POP SWAP2 SWAP1 POP JUMP JUMPDEST PUSH0 DUP2 MLOAD SWAP1 POP SWAP2 SWAP1 POP JUMP JUMPDEST PUSH0 DUP3 DUP3 MSTORE PUSH1 0x20 DUP3 ADD SWAP1 POP SWAP3 SWAP2 POP POP JUMP JUMPDEST DUP3 DUP2 DUP4 MCOPY PUSH0 DUP4 DUP4 ADD MSTORE POP POP POP JUMP JUMPDEST PUSH0 PUSH2 0x3E6 DUP3 PUSH2 0x3B4 JUMP JUMPDEST PUSH2 0x3F0 DUP2 DUP6 PUSH2 0x3BE JUMP JUMPDEST SWAP4 POP PUSH2 0x400 DUP2 DUP6 PUSH1 0x20 DUP7 ADD PUSH2 0x3CE JUMP JUMPDEST PUSH2 0x409 DUP2 PUSH2 0x210 JUMP JUMPDEST DUP5 ADD SWAP2 POP POP SWAP3 SWAP2 POP POP JUMP JUMPDEST PUSH0 PUSH2 0x41F DUP4 DUP4 PUSH2 0x3DC JUMP JUMPDEST SWAP1 POP SWAP3 SWAP2 POP POP JUMP JUMPDEST PUSH0 PUSH1 0x20 DUP3 ADD SWAP1 POP SWAP2 SWAP1 POP JUMP JUMPDEST PUSH0 PUSH2 0x43D DUP3 PUSH2 0x38B JUMP JUMPDEST PUSH2 0x447 DUP2 DUP6 PUSH2 0x395 JUMP JUMPDEST SWAP4 POP DUP4 PUSH1 0x20 DUP3 MUL DUP6 ADD PUSH2 0x459 DUP6 PUSH2 0x3A5 JUMP JUMPDEST DUP1 PUSH0 JUMPDEST DUP6 DUP2 LT ISZERO PUSH2 0x494 JUMPI DUP5 DUP5 SUB DUP10 MSTORE DUP2 MLOAD PUSH2 0x475 DUP6 DUP3 PUSH2 0x414 JUMP JUMPDEST SWAP5 POP PUSH2 0x480 DUP4 PUSH2 0x427 JUMP JUMPDEST SWAP3 POP PUSH1 0x20 DUP11 ADD SWAP10 POP POP PUSH1 0x1 DUP2 ADD SWAP1 POP PUSH2 0x45C JUMP JUMPDEST POP DUP3 SWAP8 POP DUP8 SWAP6 POP POP POP POP POP POP SWAP3 SWAP2 POP POP JUMP JUMPDEST PUSH0 PUSH1 0x20 DUP3 ADD SWAP1 POP DUP2 DUP2 SUB PUSH0 DUP4 ADD MSTORE PUSH2 0x4BE DUP2 DUP5 PUSH2 0x433 JUMP JUMPDEST SWAP1 POP SWAP3 SWAP2 POP POP JUMP JUMPDEST PUSH32 0x4E487B7100000000000000000000000000000000000000000000000000000000 PUSH0 MSTORE PUSH1 0x32 PUSH1 0x4 MSTORE PUSH1 0x24 PUSH0 REVERT JUMPDEST PUSH0 DUP2 SWAP1 POP SWAP2 SWAP1 POP JUMP JUMPDEST PUSH32 0x4E487B7100000000000000000000000000000000000000000000000000000000 PUSH0 MSTORE PUSH1 0x11 PUSH1 0x4 MSTORE PUSH1 0x24 PUSH0 REVERT JUMPDEST PUSH0 PUSH2 0x533 DUP3 PUSH2 0x4F3 JUMP JUMPDEST SWAP2 POP PUSH2 0x53E DUP4 PUSH2 0x4F3 JUMP JUMPDEST SWAP3 POP DUP3 DUP3 SUB SWAP1 POP DUP2 DUP2 GT ISZERO PUSH2 0x556 JUMPI PUSH2 0x555 PUSH2 0x4FC JUMP JUMPDEST JUMPDEST SWAP3 SWAP2 POP POP JUMP INVALID LOG2 PUSH5 0x6970667358 0x22 SLT KECCAK256 SUB 0x23 PREVRANDAO BLOBBASEFEE PUSH0 0xA5 SWAP13 SLOAD PUSH24 0x8D13AB5F96CB17D3CCA4588D04F2F911064800C5F5013F64 PUSH20 0x6F6C634300081A00330000000000000000000000 "
				},
				"gasEstimates": {
					"creation": {
						"codeDepositCost": "285200",
						"executionCost": "322",
						"totalCost": "285522"
					},
					"external": {
						"generatePattern(string)": "infinite"
					},
					"internal": {
						"substring(string memory,uint256,uint256)": "infinite"
					}
				},
				"methodIdentifiers": {
					"generatePattern(string)": "0713359c"
				}
			},
			"storageLayout": {
				"storage": [],
				"types": null
			},
			"userdoc": {
				"kind": "user",
				"methods": {},
				"version": 1
			}
		}
	}
}