{
	"tc1.sol": {
		"ErrorHandling": {
			"abi": [
				{
					"anonymous": false,
					"inputs": [
						{
							"indexed": false,
							"internalType": "string",
							"name": "reason",
							"type": "string"
						}
					],
					"name": "WithdrawalFailed",
					"type": "event"
				},
				{
					"anonymous": false,
					"inputs": [
						{
							"indexed": false,
							"internalType": "string",
							"name": "message",
							"type": "string"
						}
					],
					"name": "WithdrawalSuccess",
					"type": "event"
				},
				{
					"inputs": [],
					"name": "getBalance",
					"outputs": [
						{
							"internalType": "uint256",
							"name": "",
							"type": "uint256"
						}
					],
					"stateMutability": "view",
					"type": "function"
				},
				{
					"inputs": [
						{
							"internalType": "uint256",
							"name": "amount",
							"type": "uint256"
						}
					],
					"name": "loadWallet",
					"outputs": [],
					"stateMutability": "nonpayable",
					"type": "function"
				},
				{
					"inputs": [
						{
							"internalType": "uint256",
							"name": "amount",
							"type": "uint256"
						}
					],
					"name": "transfer",
					"outputs": [],
					"stateMutability": "nonpayable",
					"type": "function"
				},
				{
					"inputs": [
						{
							"internalType": "address",
							"name": "recipientAddress",
							"type": "address"
						},
						{
							"internalType": "uint256",
							"name": "amount",
							"type": "uint256"
						}
					],
					"name": "withdrawToExternal",
					"outputs": [],
					"stateMutability": "nonpayable",
					"type": "function"
				}
			],
			"devdoc": {
				"kind": "dev",
				"methods": {},
				"version": 1
			},
			"evm": {
				"assembly": "    /* \"tc1.sol\":84:1710  contract ErrorHandling {... */\n  mstore(0x40, 0x80)\n  callvalue\n  dup1\n  iszero\n  tag_1\n  jumpi\n  0x00\n  dup1\n  revert\ntag_1:\n  pop\n  dataSize(sub_0)\n  dup1\n  dataOffset(sub_0)\n  0x00\n  codecopy\n  0x00\n  return\nstop\n\nsub_0: assembly {\n        /* \"tc1.sol\":84:1710  contract ErrorHandling {... */\n      mstore(0x40, 0x80)\n      callvalue\n      dup1\n      iszero\n      tag_1\n      jumpi\n      0x00\n      dup1\n      revert\n    tag_1:\n      pop\n      jumpi(tag_2, lt(calldatasize, 0x04))\n      shr(0xe0, calldataload(0x00))\n      dup1\n      0x12065fe0\n      eq\n      tag_3\n      jumpi\n      dup1\n      0x12514bba\n      eq\n      tag_4\n      jumpi\n      dup1\n      0x55fc2624\n      eq\n      tag_5\n      jumpi\n      dup1\n      0xc1b70e33\n      eq\n      tag_6\n      jumpi\n    tag_2:\n      0x00\n      dup1\n      revert\n        /* \"tc1.sol\":400:482  function getBalance() public view returns (uint) {... */\n    tag_3:\n      tag_7\n      tag_8\n      jump\t// in\n    tag_7:\n      mload(0x40)\n      tag_9\n      swap2\n      swap1\n      tag_10\n      jump\t// in\n    tag_9:\n      mload(0x40)\n      dup1\n      swap2\n      sub\n      swap1\n      return\n        /* \"tc1.sol\":555:690  function transfer(uint amount) public {... */\n    tag_4:\n      tag_11\n      0x04\n      dup1\n      calldatasize\n      sub\n      dup2\n      add\n      swap1\n      tag_12\n      swap2\n      swap1\n      tag_13\n      jump\t// in\n    tag_12:\n      tag_14\n      jump\t// in\n    tag_11:\n      stop\n        /* \"tc1.sol\":205:347  function loadWallet(uint amount) public {... */\n    tag_5:\n      tag_15\n      0x04\n      dup1\n      calldatasize\n      sub\n      dup2\n      add\n      swap1\n      tag_16\n      swap2\n      swap1\n      tag_13\n      jump\t// in\n    tag_16:\n      tag_17\n      jump\t// in\n    tag_15:\n      stop\n        /* \"tc1.sol\":782:1573  function withdrawToExternal(address recipientAddress, uint amount) public {... */\n    tag_6:\n      tag_18\n      0x04\n      dup1\n      calldatasize\n      sub\n      dup2\n      add\n      swap1\n      tag_19\n      swap2\n      swap1\n      tag_20\n      jump\t// in\n    tag_19:\n      tag_21\n      jump\t// in\n    tag_18:\n      stop\n        /* \"tc1.sol\":400:482  function getBalance() public view returns (uint) {... */\n    tag_8:\n        /* \"tc1.sol\":443:447  uint */\n      0x00\n        /* \"tc1.sol\":467:474  balance */\n      dup1\n      sload\n        /* \"tc1.sol\":460:474  return balance */\n      swap1\n      pop\n        /* \"tc1.sol\":400:482  function getBalance() public view returns (uint) {... */\n      swap1\n      jump\t// out\n        /* \"tc1.sol\":555:690  function transfer(uint amount) public {... */\n    tag_14:\n        /* \"tc1.sol\":622:629  balance */\n      sload(0x00)\n        /* \"tc1.sol\":612:618  amount */\n      dup2\n        /* \"tc1.sol\":612:629  amount <= balance */\n      gt\n      iszero\n        /* \"tc1.sol\":604:654  require(amount <= balance, \"Insufficient Balance\") */\n      tag_24\n      jumpi\n      mload(0x40)\n      0x08c379a000000000000000000000000000000000000000000000000000000000\n      dup2\n      mstore\n      0x04\n      add\n      tag_25\n      swap1\n      tag_26\n      jump\t// in\n    tag_25:\n      mload(0x40)\n      dup1\n      swap2\n      sub\n      swap1\n      revert\n    tag_24:\n        /* \"tc1.sol\":676:682  amount */\n      dup1\n        /* \"tc1.sol\":665:672  balance */\n      0x00\n      dup1\n        /* \"tc1.sol\":665:682  balance -= amount */\n      dup3\n      dup3\n      sload\n      tag_27\n      swap2\n      swap1\n      tag_28\n      jump\t// in\n    tag_27:\n      swap3\n      pop\n      pop\n      dup2\n      swap1\n      sstore\n      pop\n        /* \"tc1.sol\":555:690  function transfer(uint amount) public {... */\n      pop\n      jump\t// out\n        /* \"tc1.sol\":205:347  function loadWallet(uint amount) public {... */\n    tag_17:\n        /* \"tc1.sol\":273:274  0 */\n      0x00\n        /* \"tc1.sol\":264:270  amount */\n      dup2\n        /* \"tc1.sol\":264:274  amount > 0 */\n      gt\n        /* \"tc1.sol\":256:311  require(amount > 0, \"Amount must be greater than zero\") */\n      tag_30\n      jumpi\n      mload(0x40)\n      0x08c379a000000000000000000000000000000000000000000000000000000000\n      dup2\n      mstore\n      0x04\n      add\n      tag_31\n      swap1\n      tag_32\n      jump\t// in\n    tag_31:\n      mload(0x40)\n      dup1\n      swap2\n      sub\n      swap1\n      revert\n    tag_30:\n        /* \"tc1.sol\":333:339  amount */\n      dup1\n        /* \"tc1.sol\":322:329  balance */\n      0x00\n      dup1\n        /* \"tc1.sol\":322:339  balance += amount */\n      dup3\n      dup3\n      sload\n      tag_33\n      swap2\n      swap1\n      tag_34\n      jump\t// in\n    tag_33:\n      swap3\n      pop\n      pop\n      dup2\n      swap1\n      sstore\n      pop\n        /* \"tc1.sol\":205:347  function loadWallet(uint amount) public {... */\n      pop\n      jump\t// out\n        /* \"tc1.sol\":782:1573  function withdrawToExternal(address recipientAddress, uint amount) public {... */\n    tag_21:\n        /* \"tc1.sol\":885:892  balance */\n      sload(0x00)\n        /* \"tc1.sol\":875:881  amount */\n      dup2\n        /* \"tc1.sol\":875:892  amount <= balance */\n      gt\n      iszero\n        /* \"tc1.sol\":867:917  require(amount <= balance, \"Insufficient Balance\") */\n      tag_36\n      jumpi\n      mload(0x40)\n      0x08c379a000000000000000000000000000000000000000000000000000000000\n      dup2\n      mstore\n      0x04\n      add\n      tag_37\n      swap1\n      tag_26\n      jump\t// in\n    tag_37:\n      mload(0x40)\n      dup1\n      swap2\n      sub\n      swap1\n      revert\n    tag_36:\n        /* \"tc1.sol\":930:957  ExternalRecipient recipient */\n      0x00\n        /* \"tc1.sol\":978:994  recipientAddress */\n      dup3\n        /* \"tc1.sol\":930:995  ExternalRecipient recipient = ExternalRecipient(recipientAddress) */\n      swap1\n      pop\n        /* \"tc1.sol\":1012:1021  recipient */\n      dup1\n        /* \"tc1.sol\":1012:1034  recipient.receiveFunds */\n      0xffffffffffffffffffffffffffffffffffffffff\n      and\n      0x8827e09b\n        /* \"tc1.sol\":1035:1041  amount */\n      dup4\n        /* \"tc1.sol\":1012:1042  recipient.receiveFunds(amount) */\n      mload(0x40)\n      dup3\n      0xffffffff\n      and\n      0xe0\n      shl\n      dup2\n      mstore\n      0x04\n      add\n      tag_38\n      swap2\n      swap1\n      tag_10\n      jump\t// in\n    tag_38:\n      0x00\n      mload(0x40)\n      dup1\n      dup4\n      sub\n      dup2\n      dup7\n      gas\n      staticcall\n      swap3\n      pop\n      pop\n      pop\n      dup1\n      iszero\n      tag_39\n      jumpi\n      pop\n      mload(0x40)\n      returndatasize\n      0x00\n      dup3\n      returndatacopy\n      returndatasize\n      not(0x1f)\n      0x1f\n      dup3\n      add\n      and\n      dup3\n      add\n      dup1\n      0x40\n      mstore\n      pop\n      dup2\n      add\n      swap1\n      tag_40\n      swap2\n      swap1\n      tag_41\n      jump\t// in\n    tag_40:\n      0x01\n    tag_39:\n        /* \"tc1.sol\":1008:1566  try recipient.receiveFunds(amount) returns (string memory result) {... */\n      tag_42\n      jumpi\n      tag_46\n      tag_47\n      jump\t// in\n    tag_46:\n      dup1\n      0x08c379a0\n      sub\n      tag_45\n      jumpi\n      pop\n      tag_48\n      tag_49\n      jump\t// in\n    tag_48:\n      dup1\n      tag_50\n      jumpi\n      pop\n      jump(tag_44)\n    tag_50:\n        /* \"tc1.sol\":1367:1391  WithdrawalFailed(reason) */\n      0x8beb7b62bbc568f7e7b7cf74a034cc48149dab4bb946b83c5d27df3565acf364\n        /* \"tc1.sol\":1384:1390  reason */\n      dup2\n        /* \"tc1.sol\":1367:1391  WithdrawalFailed(reason) */\n      mload(0x40)\n      tag_51\n      swap2\n      swap1\n      tag_52\n      jump\t// in\n    tag_51:\n      mload(0x40)\n      dup1\n      swap2\n      sub\n      swap1\n      log1\n        /* \"tc1.sol\":1246:1403  catch Error(string memory reason) {... */\n      pop\n        /* \"tc1.sol\":1008:1566  try recipient.receiveFunds(amount) returns (string memory result) {... */\n      jump(tag_43)\n    tag_45:\n      pop\n    tag_44:\n        /* \"tc1.sol\":1512:1554  WithdrawalFailed(\"Unknown error occurred\") */\n      0x8beb7b62bbc568f7e7b7cf74a034cc48149dab4bb946b83c5d27df3565acf364\n      mload(0x40)\n      tag_53\n      swap1\n      tag_54\n      jump\t// in\n    tag_53:\n      mload(0x40)\n      dup1\n      swap2\n      sub\n      swap1\n      log1\n        /* \"tc1.sol\":1008:1566  try recipient.receiveFunds(amount) returns (string memory result) {... */\n    tag_43:\n      jump(tag_55)\n    tag_42:\n        /* \"tc1.sol\":1182:1188  amount */\n      dup3\n        /* \"tc1.sol\":1171:1178  balance */\n      0x00\n      dup1\n        /* \"tc1.sol\":1171:1188  balance -= amount */\n      dup3\n      dup3\n      sload\n      tag_56\n      swap2\n      swap1\n      tag_28\n      jump\t// in\n    tag_56:\n      swap3\n      pop\n      pop\n      dup2\n      swap1\n      sstore\n      pop\n        /* \"tc1.sol\":1208:1233  WithdrawalSuccess(result) */\n      0x2f8c47372bcb2398e7bd46f7409152dba4046eb96e47c7d5899accb324793f71\n        /* \"tc1.sol\":1226:1232  result */\n      dup2\n        /* \"tc1.sol\":1208:1233  WithdrawalSuccess(result) */\n      mload(0x40)\n      tag_57\n      swap2\n      swap1\n      tag_52\n      jump\t// in\n    tag_57:\n      mload(0x40)\n      dup1\n      swap2\n      sub\n      swap1\n      log1\n        /* \"tc1.sol\":1043:1245  returns (string memory result) {... */\n      pop\n        /* \"tc1.sol\":1008:1566  try recipient.receiveFunds(amount) returns (string memory result) {... */\n    tag_55:\n        /* \"tc1.sol\":856:1573  {... */\n      pop\n        /* \"tc1.sol\":782:1573  function withdrawToExternal(address recipientAddress, uint amount) public {... */\n      pop\n      pop\n      jump\t// out\n        /* \"#utility.yul\":7:84   */\n    tag_58:\n        /* \"#utility.yul\":44:51   */\n      0x00\n        /* \"#utility.yul\":73:78   */\n      dup2\n        /* \"#utility.yul\":62:78   */\n      swap1\n      pop\n        /* \"#utility.yul\":7:84   */\n      swap2\n      swap1\n      pop\n      jump\t// out\n        /* \"#utility.yul\":90:208   */\n    tag_59:\n        /* \"#utility.yul\":177:201   */\n      tag_93\n        /* \"#utility.yul\":195:200   */\n      dup2\n        /* \"#utility.yul\":177:201   */\n      tag_58\n      jump\t// in\n    tag_93:\n        /* \"#utility.yul\":172:175   */\n      dup3\n        /* \"#utility.yul\":165:202   */\n      mstore\n        /* \"#utility.yul\":90:208   */\n      pop\n      pop\n      jump\t// out\n        /* \"#utility.yul\":214:436   */\n    tag_10:\n        /* \"#utility.yul\":307:311   */\n      0x00\n        /* \"#utility.yul\":345:347   */\n      0x20\n        /* \"#utility.yul\":334:343   */\n      dup3\n        /* \"#utility.yul\":330:348   */\n      add\n        /* \"#utility.yul\":322:348   */\n      swap1\n      pop\n        /* \"#utility.yul\":358:429   */\n      tag_95\n        /* \"#utility.yul\":426:427   */\n      0x00\n        /* \"#utility.yul\":415:424   */\n      dup4\n        /* \"#utility.yul\":411:428   */\n      add\n        /* \"#utility.yul\":402:408   */\n      dup5\n        /* \"#utility.yul\":358:429   */\n      tag_59\n      jump\t// in\n    tag_95:\n        /* \"#utility.yul\":214:436   */\n      swap3\n      swap2\n      pop\n      pop\n      jump\t// out\n        /* \"#utility.yul\":442:517   */\n    tag_60:\n        /* \"#utility.yul\":475:481   */\n      0x00\n        /* \"#utility.yul\":508:510   */\n      0x40\n        /* \"#utility.yul\":502:511   */\n      mload\n        /* \"#utility.yul\":492:511   */\n      swap1\n      pop\n        /* \"#utility.yul\":442:517   */\n      swap1\n      jump\t// out\n        /* \"#utility.yul\":523:640   */\n    tag_61:\n        /* \"#utility.yul\":632:633   */\n      0x00\n        /* \"#utility.yul\":629:630   */\n      dup1\n        /* \"#utility.yul\":622:634   */\n      revert\n        /* \"#utility.yul\":646:763   */\n    tag_62:\n        /* \"#utility.yul\":755:756   */\n      0x00\n        /* \"#utility.yul\":752:753   */\n      dup1\n        /* \"#utility.yul\":745:757   */\n      revert\n        /* \"#utility.yul\":769:891   */\n    tag_63:\n        /* \"#utility.yul\":842:866   */\n      tag_100\n        /* \"#utility.yul\":860:865   */\n      dup2\n        /* \"#utility.yul\":842:866   */\n      tag_58\n      jump\t// in\n    tag_100:\n        /* \"#utility.yul\":835:840   */\n      dup2\n        /* \"#utility.yul\":832:867   */\n      eq\n        /* \"#utility.yul\":822:885   */\n      tag_101\n      jumpi\n        /* \"#utility.yul\":881:882   */\n      0x00\n        /* \"#utility.yul\":878:879   */\n      dup1\n        /* \"#utility.yul\":871:883   */\n      revert\n        /* \"#utility.yul\":822:885   */\n    tag_101:\n        /* \"#utility.yul\":769:891   */\n      pop\n      jump\t// out\n        /* \"#utility.yul\":897:1036   */\n    tag_64:\n        /* \"#utility.yul\":943:948   */\n      0x00\n        /* \"#utility.yul\":981:987   */\n      dup2\n        /* \"#utility.yul\":968:988   */\n      calldataload\n        /* \"#utility.yul\":959:988   */\n      swap1\n      pop\n        /* \"#utility.yul\":997:1030   */\n      tag_103\n        /* \"#utility.yul\":1024:1029   */\n      dup2\n        /* \"#utility.yul\":997:1030   */\n      tag_63\n      jump\t// in\n    tag_103:\n        /* \"#utility.yul\":897:1036   */\n      swap3\n      swap2\n      pop\n      pop\n      jump\t// out\n        /* \"#utility.yul\":1042:1371   */\n    tag_13:\n        /* \"#utility.yul\":1101:1107   */\n      0x00\n        /* \"#utility.yul\":1150:1152   */\n      0x20\n        /* \"#utility.yul\":1138:1147   */\n      dup3\n        /* \"#utility.yul\":1129:1136   */\n      dup5\n        /* \"#utility.yul\":1125:1148   */\n      sub\n        /* \"#utility.yul\":1121:1153   */\n      slt\n        /* \"#utility.yul\":1118:1237   */\n      iszero\n      tag_105\n      jumpi\n        /* \"#utility.yul\":1156:1235   */\n      tag_106\n      tag_61\n      jump\t// in\n    tag_106:\n        /* \"#utility.yul\":1118:1237   */\n    tag_105:\n        /* \"#utility.yul\":1276:1277   */\n      0x00\n        /* \"#utility.yul\":1301:1354   */\n      tag_107\n        /* \"#utility.yul\":1346:1353   */\n      dup5\n        /* \"#utility.yul\":1337:1343   */\n      dup3\n        /* \"#utility.yul\":1326:1335   */\n      dup6\n        /* \"#utility.yul\":1322:1344   */\n      add\n        /* \"#utility.yul\":1301:1354   */\n      tag_64\n      jump\t// in\n    tag_107:\n        /* \"#utility.yul\":1291:1354   */\n      swap2\n      pop\n        /* \"#utility.yul\":1247:1364   */\n      pop\n        /* \"#utility.yul\":1042:1371   */\n      swap3\n      swap2\n      pop\n      pop\n      jump\t// out\n        /* \"#utility.yul\":1377:1503   */\n    tag_65:\n        /* \"#utility.yul\":1414:1421   */\n      0x00\n        /* \"#utility.yul\":1454:1496   */\n      0xffffffffffffffffffffffffffffffffffffffff\n        /* \"#utility.yul\":1447:1452   */\n      dup3\n        /* \"#utility.yul\":1443:1497   */\n      and\n        /* \"#utility.yul\":1432:1497   */\n      swap1\n      pop\n        /* \"#utility.yul\":1377:1503   */\n      swap2\n      swap1\n      pop\n      jump\t// out\n        /* \"#utility.yul\":1509:1605   */\n    tag_66:\n        /* \"#utility.yul\":1546:1553   */\n      0x00\n        /* \"#utility.yul\":1575:1599   */\n      tag_110\n        /* \"#utility.yul\":1593:1598   */\n      dup3\n        /* \"#utility.yul\":1575:1599   */\n      tag_65\n      jump\t// in\n    tag_110:\n        /* \"#utility.yul\":1564:1599   */\n      swap1\n      pop\n        /* \"#utility.yul\":1509:1605   */\n      swap2\n      swap1\n      pop\n      jump\t// out\n        /* \"#utility.yul\":1611:1733   */\n    tag_67:\n        /* \"#utility.yul\":1684:1708   */\n      tag_112\n        /* \"#utility.yul\":1702:1707   */\n      dup2\n        /* \"#utility.yul\":1684:1708   */\n      tag_66\n      jump\t// in\n    tag_112:\n        /* \"#utility.yul\":1677:1682   */\n      dup2\n        /* \"#utility.yul\":1674:1709   */\n      eq\n        /* \"#utility.yul\":1664:1727   */\n      tag_113\n      jumpi\n        /* \"#utility.yul\":1723:1724   */\n      0x00\n        /* \"#utility.yul\":1720:1721   */\n      dup1\n        /* \"#utility.yul\":1713:1725   */\n      revert\n        /* \"#utility.yul\":1664:1727   */\n    tag_113:\n        /* \"#utility.yul\":1611:1733   */\n      pop\n      jump\t// out\n        /* \"#utility.yul\":1739:1878   */\n    tag_68:\n        /* \"#utility.yul\":1785:1790   */\n      0x00\n        /* \"#utility.yul\":1823:1829   */\n      dup2\n        /* \"#utility.yul\":1810:1830   */\n      calldataload\n        /* \"#utility.yul\":1801:1830   */\n      swap1\n      pop\n        /* \"#utility.yul\":1839:1872   */\n      tag_115\n        /* \"#utility.yul\":1866:1871   */\n      dup2\n        /* \"#utility.yul\":1839:1872   */\n      tag_67\n      jump\t// in\n    tag_115:\n        /* \"#utility.yul\":1739:1878   */\n      swap3\n      swap2\n      pop\n      pop\n      jump\t// out\n        /* \"#utility.yul\":1884:2358   */\n    tag_20:\n        /* \"#utility.yul\":1952:1958   */\n      0x00\n        /* \"#utility.yul\":1960:1966   */\n      dup1\n        /* \"#utility.yul\":2009:2011   */\n      0x40\n        /* \"#utility.yul\":1997:2006   */\n      dup4\n        /* \"#utility.yul\":1988:1995   */\n      dup6\n        /* \"#utility.yul\":1984:2007   */\n      sub\n        /* \"#utility.yul\":1980:2012   */\n      slt\n        /* \"#utility.yul\":1977:2096   */\n      iszero\n      tag_117\n      jumpi\n        /* \"#utility.yul\":2015:2094   */\n      tag_118\n      tag_61\n      jump\t// in\n    tag_118:\n        /* \"#utility.yul\":1977:2096   */\n    tag_117:\n        /* \"#utility.yul\":2135:2136   */\n      0x00\n        /* \"#utility.yul\":2160:2213   */\n      tag_119\n        /* \"#utility.yul\":2205:2212   */\n      dup6\n        /* \"#utility.yul\":2196:2202   */\n      dup3\n        /* \"#utility.yul\":2185:2194   */\n      dup7\n        /* \"#utility.yul\":2181:2203   */\n      add\n        /* \"#utility.yul\":2160:2213   */\n      tag_68\n      jump\t// in\n    tag_119:\n        /* \"#utility.yul\":2150:2213   */\n      swap3\n      pop\n        /* \"#utility.yul\":2106:2223   */\n      pop\n        /* \"#utility.yul\":2262:2264   */\n      0x20\n        /* \"#utility.yul\":2288:2341   */\n      tag_120\n        /* \"#utility.yul\":2333:2340   */\n      dup6\n        /* \"#utility.yul\":2324:2330   */\n      dup3\n        /* \"#utility.yul\":2313:2322   */\n      dup7\n        /* \"#utility.yul\":2309:2331   */\n      add\n        /* \"#utility.yul\":2288:2341   */\n      tag_64\n      jump\t// in\n    tag_120:\n        /* \"#utility.yul\":2278:2341   */\n      swap2\n      pop\n        /* \"#utility.yul\":2233:2351   */\n      pop\n        /* \"#utility.yul\":1884:2358   */\n      swap3\n      pop\n      swap3\n      swap1\n      pop\n      jump\t// out\n        /* \"#utility.yul\":2364:2533   */\n    tag_69:\n        /* \"#utility.yul\":2448:2459   */\n      0x00\n        /* \"#utility.yul\":2482:2488   */\n      dup3\n        /* \"#utility.yul\":2477:2480   */\n      dup3\n        /* \"#utility.yul\":2470:2489   */\n      mstore\n        /* \"#utility.yul\":2522:2526   */\n      0x20\n        /* \"#utility.yul\":2517:2520   */\n      dup3\n        /* \"#utility.yul\":2513:2527   */\n      add\n        /* \"#utility.yul\":2498:2527   */\n      swap1\n      pop\n        /* \"#utility.yul\":2364:2533   */\n      swap3\n      swap2\n      pop\n      pop\n      jump\t// out\n        /* \"#utility.yul\":2539:2709   */\n    tag_70:\n        /* \"#utility.yul\":2679:2701   */\n      0x496e73756666696369656e742042616c616e6365000000000000000000000000\n        /* \"#utility.yul\":2675:2676   */\n      0x00\n        /* \"#utility.yul\":2667:2673   */\n      dup3\n        /* \"#utility.yul\":2663:2677   */\n      add\n        /* \"#utility.yul\":2656:2702   */\n      mstore\n        /* \"#utility.yul\":2539:2709   */\n      pop\n      jump\t// out\n        /* \"#utility.yul\":2715:3081   */\n    tag_71:\n        /* \"#utility.yul\":2857:2860   */\n      0x00\n        /* \"#utility.yul\":2878:2945   */\n      tag_124\n        /* \"#utility.yul\":2942:2944   */\n      0x14\n        /* \"#utility.yul\":2937:2940   */\n      dup4\n        /* \"#utility.yul\":2878:2945   */\n      tag_69\n      jump\t// in\n    tag_124:\n        /* \"#utility.yul\":2871:2945   */\n      swap2\n      pop\n        /* \"#utility.yul\":2954:3047   */\n      tag_125\n        /* \"#utility.yul\":3043:3046   */\n      dup3\n        /* \"#utility.yul\":2954:3047   */\n      tag_70\n      jump\t// in\n    tag_125:\n        /* \"#utility.yul\":3072:3074   */\n      0x20\n        /* \"#utility.yul\":3067:3070   */\n      dup3\n        /* \"#utility.yul\":3063:3075   */\n      add\n        /* \"#utility.yul\":3056:3075   */\n      swap1\n      pop\n        /* \"#utility.yul\":2715:3081   */\n      swap2\n      swap1\n      pop\n      jump\t// out\n        /* \"#utility.yul\":3087:3506   */\n    tag_26:\n        /* \"#utility.yul\":3253:3257   */\n      0x00\n        /* \"#utility.yul\":3291:3293   */\n      0x20\n        /* \"#utility.yul\":3280:3289   */\n      dup3\n        /* \"#utility.yul\":3276:3294   */\n      add\n        /* \"#utility.yul\":3268:3294   */\n      swap1\n      pop\n        /* \"#utility.yul\":3340:3349   */\n      dup2\n        /* \"#utility.yul\":3334:3338   */\n      dup2\n        /* \"#utility.yul\":3330:3350   */\n      sub\n        /* \"#utility.yul\":3326:3327   */\n      0x00\n        /* \"#utility.yul\":3315:3324   */\n      dup4\n        /* \"#utility.yul\":3311:3328   */\n      add\n        /* \"#utility.yul\":3304:3351   */\n      mstore\n        /* \"#utility.yul\":3368:3499   */\n      tag_127\n        /* \"#utility.yul\":3494:3498   */\n      dup2\n        /* \"#utility.yul\":3368:3499   */\n      tag_71\n      jump\t// in\n    tag_127:\n        /* \"#utility.yul\":3360:3499   */\n      swap1\n      pop\n        /* \"#utility.yul\":3087:3506   */\n      swap2\n      swap1\n      pop\n      jump\t// out\n        /* \"#utility.yul\":3512:3692   */\n    tag_72:\n        /* \"#utility.yul\":3560:3637   */\n      0x4e487b7100000000000000000000000000000000000000000000000000000000\n        /* \"#utility.yul\":3557:3558   */\n      0x00\n        /* \"#utility.yul\":3550:3638   */\n      mstore\n        /* \"#utility.yul\":3657:3661   */\n      0x11\n        /* \"#utility.yul\":3654:3655   */\n      0x04\n        /* \"#utility.yul\":3647:3662   */\n      mstore\n        /* \"#utility.yul\":3681:3685   */\n      0x24\n        /* \"#utility.yul\":3678:3679   */\n      0x00\n        /* \"#utility.yul\":3671:3686   */\n      revert\n        /* \"#utility.yul\":3698:3892   */\n    tag_28:\n        /* \"#utility.yul\":3738:3742   */\n      0x00\n        /* \"#utility.yul\":3758:3778   */\n      tag_130\n        /* \"#utility.yul\":3776:3777   */\n      dup3\n        /* \"#utility.yul\":3758:3778   */\n      tag_58\n      jump\t// in\n    tag_130:\n        /* \"#utility.yul\":3753:3778   */\n      swap2\n      pop\n        /* \"#utility.yul\":3792:3812   */\n      tag_131\n        /* \"#utility.yul\":3810:3811   */\n      dup4\n        /* \"#utility.yul\":3792:3812   */\n      tag_58\n      jump\t// in\n    tag_131:\n        /* \"#utility.yul\":3787:3812   */\n      swap3\n      pop\n        /* \"#utility.yul\":3836:3837   */\n      dup3\n        /* \"#utility.yul\":3833:3834   */\n      dup3\n        /* \"#utility.yul\":3829:3838   */\n      sub\n        /* \"#utility.yul\":3821:3838   */\n      swap1\n      pop\n        /* \"#utility.yul\":3860:3861   */\n      dup2\n        /* \"#utility.yul\":3854:3858   */\n      dup2\n        /* \"#utility.yul\":3851:3862   */\n      gt\n        /* \"#utility.yul\":3848:3885   */\n      iszero\n      tag_132\n      jumpi\n        /* \"#utility.yul\":3865:3883   */\n      tag_133\n      tag_72\n      jump\t// in\n    tag_133:\n        /* \"#utility.yul\":3848:3885   */\n    tag_132:\n        /* \"#utility.yul\":3698:3892   */\n      swap3\n      swap2\n      pop\n      pop\n      jump\t// out\n        /* \"#utility.yul\":3898:4080   */\n    tag_73:\n        /* \"#utility.yul\":4038:4072   */\n      0x416d6f756e74206d7573742062652067726561746572207468616e207a65726f\n        /* \"#utility.yul\":4034:4035   */\n      0x00\n        /* \"#utility.yul\":4026:4032   */\n      dup3\n        /* \"#utility.yul\":4022:4036   */\n      add\n        /* \"#utility.yul\":4015:4073   */\n      mstore\n        /* \"#utility.yul\":3898:4080   */\n      pop\n      jump\t// out\n        /* \"#utility.yul\":4086:4452   */\n    tag_74:\n        /* \"#utility.yul\":4228:4231   */\n      0x00\n        /* \"#utility.yul\":4249:4316   */\n      tag_136\n        /* \"#utility.yul\":4313:4315   */\n      0x20\n        /* \"#utility.yul\":4308:4311   */\n      dup4\n        /* \"#utility.yul\":4249:4316   */\n      tag_69\n      jump\t// in\n    tag_136:\n        /* \"#utility.yul\":4242:4316   */\n      swap2\n      pop\n        /* \"#utility.yul\":4325:4418   */\n      tag_137\n        /* \"#utility.yul\":4414:4417   */\n      dup3\n        /* \"#utility.yul\":4325:4418   */\n      tag_73\n      jump\t// in\n    tag_137:\n        /* \"#utility.yul\":4443:4445   */\n      0x20\n        /* \"#utility.yul\":4438:4441   */\n      dup3\n        /* \"#utility.yul\":4434:4446   */\n      add\n        /* \"#utility.yul\":4427:4446   */\n      swap1\n      pop\n        /* \"#utility.yul\":4086:4452   */\n      swap2\n      swap1\n      pop\n      jump\t// out\n        /* \"#utility.yul\":4458:4877   */\n    tag_32:\n        /* \"#utility.yul\":4624:4628   */\n      0x00\n        /* \"#utility.yul\":4662:4664   */\n      0x20\n        /* \"#utility.yul\":4651:4660   */\n      dup3\n        /* \"#utility.yul\":4647:4665   */\n      add\n        /* \"#utility.yul\":4639:4665   */\n      swap1\n      pop\n        /* \"#utility.yul\":4711:4720   */\n      dup2\n        /* \"#utility.yul\":4705:4709   */\n      dup2\n        /* \"#utility.yul\":4701:4721   */\n      sub\n        /* \"#utility.yul\":4697:4698   */\n      0x00\n        /* \"#utility.yul\":4686:4695   */\n      dup4\n        /* \"#utility.yul\":4682:4699   */\n      add\n        /* \"#utility.yul\":4675:4722   */\n      mstore\n        /* \"#utility.yul\":4739:4870   */\n      tag_139\n        /* \"#utility.yul\":4865:4869   */\n      dup2\n        /* \"#utility.yul\":4739:4870   */\n      tag_74\n      jump\t// in\n    tag_139:\n        /* \"#utility.yul\":4731:4870   */\n      swap1\n      pop\n        /* \"#utility.yul\":4458:4877   */\n      swap2\n      swap1\n      pop\n      jump\t// out\n        /* \"#utility.yul\":4883:5074   */\n    tag_34:\n        /* \"#utility.yul\":4923:4926   */\n      0x00\n        /* \"#utility.yul\":4942:4962   */\n      tag_141\n        /* \"#utility.yul\":4960:4961   */\n      dup3\n        /* \"#utility.yul\":4942:4962   */\n      tag_58\n      jump\t// in\n    tag_141:\n        /* \"#utility.yul\":4937:4962   */\n      swap2\n      pop\n        /* \"#utility.yul\":4976:4996   */\n      tag_142\n        /* \"#utility.yul\":4994:4995   */\n      dup4\n        /* \"#utility.yul\":4976:4996   */\n      tag_58\n      jump\t// in\n    tag_142:\n        /* \"#utility.yul\":4971:4996   */\n      swap3\n      pop\n        /* \"#utility.yul\":5019:5020   */\n      dup3\n        /* \"#utility.yul\":5016:5017   */\n      dup3\n        /* \"#utility.yul\":5012:5021   */\n      add\n        /* \"#utility.yul\":5005:5021   */\n      swap1\n      pop\n        /* \"#utility.yul\":5040:5043   */\n      dup1\n        /* \"#utility.yul\":5037:5038   */\n      dup3\n        /* \"#utility.yul\":5034:5044   */\n      gt\n        /* \"#utility.yul\":5031:5067   */\n      iszero\n      tag_143\n      jumpi\n        /* \"#utility.yul\":5047:5065   */\n      tag_144\n      tag_72\n      jump\t// in\n    tag_144:\n        /* \"#utility.yul\":5031:5067   */\n    tag_143:\n        /* \"#utility.yul\":4883:5074   */\n      swap3\n      swap2\n      pop\n      pop\n      jump\t// out\n        /* \"#utility.yul\":5080:5197   */\n    tag_75:\n        /* \"#utility.yul\":5189:5190   */\n      0x00\n        /* \"#utility.yul\":5186:5187   */\n      dup1\n        /* \"#utility.yul\":5179:5191   */\n      revert\n        /* \"#utility.yul\":5203:5320   */\n    tag_76:\n        /* \"#utility.yul\":5312:5313   */\n      0x00\n        /* \"#utility.yul\":5309:5310   */\n      dup1\n        /* \"#utility.yul\":5302:5314   */\n      revert\n        /* \"#utility.yul\":5326:5428   */\n    tag_77:\n        /* \"#utility.yul\":5367:5373   */\n      0x00\n        /* \"#utility.yul\":5418:5420   */\n      0x1f\n        /* \"#utility.yul\":5414:5421   */\n      not\n        /* \"#utility.yul\":5409:5411   */\n      0x1f\n        /* \"#utility.yul\":5402:5407   */\n      dup4\n        /* \"#utility.yul\":5398:5412   */\n      add\n        /* \"#utility.yul\":5394:5422   */\n      and\n        /* \"#utility.yul\":5384:5422   */\n      swap1\n      pop\n        /* \"#utility.yul\":5326:5428   */\n      swap2\n      swap1\n      pop\n      jump\t// out\n        /* \"#utility.yul\":5434:5614   */\n    tag_78:\n        /* \"#utility.yul\":5482:5559   */\n      0x4e487b7100000000000000000000000000000000000000000000000000000000\n        /* \"#utility.yul\":5479:5480   */\n      0x00\n        /* \"#utility.yul\":5472:5560   */\n      mstore\n        /* \"#utility.yul\":5579:5583   */\n      0x41\n        /* \"#utility.yul\":5576:5577   */\n      0x04\n        /* \"#utility.yul\":5569:5584   */\n      mstore\n        /* \"#utility.yul\":5603:5607   */\n      0x24\n        /* \"#utility.yul\":5600:5601   */\n      0x00\n        /* \"#utility.yul\":5593:5608   */\n      revert\n        /* \"#utility.yul\":5620:5901   */\n    tag_79:\n        /* \"#utility.yul\":5703:5730   */\n      tag_150\n        /* \"#utility.yul\":5725:5729   */\n      dup3\n        /* \"#utility.yul\":5703:5730   */\n      tag_77\n      jump\t// in\n    tag_150:\n        /* \"#utility.yul\":5695:5701   */\n      dup2\n        /* \"#utility.yul\":5691:5731   */\n      add\n        /* \"#utility.yul\":5833:5839   */\n      dup2\n        /* \"#utility.yul\":5821:5831   */\n      dup2\n        /* \"#utility.yul\":5818:5840   */\n      lt\n        /* \"#utility.yul\":5797:5815   */\n      0xffffffffffffffff\n        /* \"#utility.yul\":5785:5795   */\n      dup3\n        /* \"#utility.yul\":5782:5816   */\n      gt\n        /* \"#utility.yul\":5779:5841   */\n      or\n        /* \"#utility.yul\":5776:5864   */\n      iszero\n      tag_151\n      jumpi\n        /* \"#utility.yul\":5844:5862   */\n      tag_152\n      tag_78\n      jump\t// in\n    tag_152:\n        /* \"#utility.yul\":5776:5864   */\n    tag_151:\n        /* \"#utility.yul\":5884:5894   */\n      dup1\n        /* \"#utility.yul\":5880:5882   */\n      0x40\n        /* \"#utility.yul\":5873:5895   */\n      mstore\n        /* \"#utility.yul\":5663:5901   */\n      pop\n        /* \"#utility.yul\":5620:5901   */\n      pop\n      pop\n      jump\t// out\n        /* \"#utility.yul\":5907:6036   */\n    tag_80:\n        /* \"#utility.yul\":5941:5947   */\n      0x00\n        /* \"#utility.yul\":5968:5988   */\n      tag_154\n      tag_60\n      jump\t// in\n    tag_154:\n        /* \"#utility.yul\":5958:5988   */\n      swap1\n      pop\n        /* \"#utility.yul\":5997:6030   */\n      tag_155\n        /* \"#utility.yul\":6025:6029   */\n      dup3\n        /* \"#utility.yul\":6017:6023   */\n      dup3\n        /* \"#utility.yul\":5997:6030   */\n      tag_79\n      jump\t// in\n    tag_155:\n        /* \"#utility.yul\":5907:6036   */\n      swap2\n      swap1\n      pop\n      jump\t// out\n        /* \"#utility.yul\":6042:6350   */\n    tag_81:\n        /* \"#utility.yul\":6104:6108   */\n      0x00\n        /* \"#utility.yul\":6194:6212   */\n      0xffffffffffffffff\n        /* \"#utility.yul\":6186:6192   */\n      dup3\n        /* \"#utility.yul\":6183:6213   */\n      gt\n        /* \"#utility.yul\":6180:6236   */\n      iszero\n      tag_157\n      jumpi\n        /* \"#utility.yul\":6216:6234   */\n      tag_158\n      tag_78\n      jump\t// in\n    tag_158:\n        /* \"#utility.yul\":6180:6236   */\n    tag_157:\n        /* \"#utility.yul\":6254:6283   */\n      tag_159\n        /* \"#utility.yul\":6276:6282   */\n      dup3\n        /* \"#utility.yul\":6254:6283   */\n      tag_77\n      jump\t// in\n    tag_159:\n        /* \"#utility.yul\":6246:6283   */\n      swap1\n      pop\n        /* \"#utility.yul\":6338:6342   */\n      0x20\n        /* \"#utility.yul\":6332:6336   */\n      dup2\n        /* \"#utility.yul\":6328:6343   */\n      add\n        /* \"#utility.yul\":6320:6343   */\n      swap1\n      pop\n        /* \"#utility.yul\":6042:6350   */\n      swap2\n      swap1\n      pop\n      jump\t// out\n        /* \"#utility.yul\":6356:6495   */\n    tag_82:\n        /* \"#utility.yul\":6445:6451   */\n      dup3\n        /* \"#utility.yul\":6440:6443   */\n      dup2\n        /* \"#utility.yul\":6435:6438   */\n      dup4\n        /* \"#utility.yul\":6429:6452   */\n      mcopy\n        /* \"#utility.yul\":6486:6487   */\n      0x00\n        /* \"#utility.yul\":6477:6483   */\n      dup4\n        /* \"#utility.yul\":6472:6475   */\n      dup4\n        /* \"#utility.yul\":6468:6484   */\n      add\n        /* \"#utility.yul\":6461:6488   */\n      mstore\n        /* \"#utility.yul\":6356:6495   */\n      pop\n      pop\n      pop\n      jump\t// out\n        /* \"#utility.yul\":6501:6935   */\n    tag_83:\n        /* \"#utility.yul\":6590:6595   */\n      0x00\n        /* \"#utility.yul\":6615:6681   */\n      tag_162\n        /* \"#utility.yul\":6631:6680   */\n      tag_163\n        /* \"#utility.yul\":6673:6679   */\n      dup5\n        /* \"#utility.yul\":6631:6680   */\n      tag_81\n      jump\t// in\n    tag_163:\n        /* \"#utility.yul\":6615:6681   */\n      tag_80\n      jump\t// in\n    tag_162:\n        /* \"#utility.yul\":6606:6681   */\n      swap1\n      pop\n        /* \"#utility.yul\":6704:6710   */\n      dup3\n        /* \"#utility.yul\":6697:6702   */\n      dup2\n        /* \"#utility.yul\":6690:6711   */\n      mstore\n        /* \"#utility.yul\":6742:6746   */\n      0x20\n        /* \"#utility.yul\":6735:6740   */\n      dup2\n        /* \"#utility.yul\":6731:6747   */\n      add\n        /* \"#utility.yul\":6780:6783   */\n      dup5\n        /* \"#utility.yul\":6771:6777   */\n      dup5\n        /* \"#utility.yul\":6766:6769   */\n      dup5\n        /* \"#utility.yul\":6762:6778   */\n      add\n        /* \"#utility.yul\":6759:6784   */\n      gt\n        /* \"#utility.yul\":6756:6868   */\n      iszero\n      tag_164\n      jumpi\n        /* \"#utility.yul\":6787:6866   */\n      tag_165\n      tag_76\n      jump\t// in\n    tag_165:\n        /* \"#utility.yul\":6756:6868   */\n    tag_164:\n        /* \"#utility.yul\":6877:6929   */\n      tag_166\n        /* \"#utility.yul\":6922:6928   */\n      dup5\n        /* \"#utility.yul\":6917:6920   */\n      dup3\n        /* \"#utility.yul\":6912:6915   */\n      dup6\n        /* \"#utility.yul\":6877:6929   */\n      tag_82\n      jump\t// in\n    tag_166:\n        /* \"#utility.yul\":6596:6935   */\n      pop\n        /* \"#utility.yul\":6501:6935   */\n      swap4\n      swap3\n      pop\n      pop\n      pop\n      jump\t// out\n        /* \"#utility.yul\":6955:7310   */\n    tag_84:\n        /* \"#utility.yul\":7022:7027   */\n      0x00\n        /* \"#utility.yul\":7071:7074   */\n      dup3\n        /* \"#utility.yul\":7064:7068   */\n      0x1f\n        /* \"#utility.yul\":7056:7062   */\n      dup4\n        /* \"#utility.yul\":7052:7069   */\n      add\n        /* \"#utility.yul\":7048:7075   */\n      slt\n        /* \"#utility.yul\":7038:7160   */\n      tag_168\n      jumpi\n        /* \"#utility.yul\":7079:7158   */\n      tag_169\n      tag_75\n      jump\t// in\n    tag_169:\n        /* \"#utility.yul\":7038:7160   */\n    tag_168:\n        /* \"#utility.yul\":7189:7195   */\n      dup2\n        /* \"#utility.yul\":7183:7196   */\n      mload\n        /* \"#utility.yul\":7214:7304   */\n      tag_170\n        /* \"#utility.yul\":7300:7303   */\n      dup5\n        /* \"#utility.yul\":7292:7298   */\n      dup3\n        /* \"#utility.yul\":7285:7289   */\n      0x20\n        /* \"#utility.yul\":7277:7283   */\n      dup7\n        /* \"#utility.yul\":7273:7290   */\n      add\n        /* \"#utility.yul\":7214:7304   */\n      tag_83\n      jump\t// in\n    tag_170:\n        /* \"#utility.yul\":7205:7304   */\n      swap2\n      pop\n        /* \"#utility.yul\":7028:7310   */\n      pop\n        /* \"#utility.yul\":6955:7310   */\n      swap3\n      swap2\n      pop\n      pop\n      jump\t// out\n        /* \"#utility.yul\":7316:7840   */\n    tag_41:\n        /* \"#utility.yul\":7396:7402   */\n      0x00\n        /* \"#utility.yul\":7445:7447   */\n      0x20\n        /* \"#utility.yul\":7433:7442   */\n      dup3\n        /* \"#utility.yul\":7424:7431   */\n      dup5\n        /* \"#utility.yul\":7420:7443   */\n      sub\n        /* \"#utility.yul\":7416:7448   */\n      slt\n        /* \"#utility.yul\":7413:7532   */\n      iszero\n      tag_172\n      jumpi\n        /* \"#utility.yul\":7451:7530   */\n      tag_173\n      tag_61\n      jump\t// in\n    tag_173:\n        /* \"#utility.yul\":7413:7532   */\n    tag_172:\n        /* \"#utility.yul\":7592:7593   */\n      0x00\n        /* \"#utility.yul\":7581:7590   */\n      dup3\n        /* \"#utility.yul\":7577:7594   */\n      add\n        /* \"#utility.yul\":7571:7595   */\n      mload\n        /* \"#utility.yul\":7622:7640   */\n      0xffffffffffffffff\n        /* \"#utility.yul\":7614:7620   */\n      dup2\n        /* \"#utility.yul\":7611:7641   */\n      gt\n        /* \"#utility.yul\":7608:7725   */\n      iszero\n      tag_174\n      jumpi\n        /* \"#utility.yul\":7644:7723   */\n      tag_175\n      tag_62\n      jump\t// in\n    tag_175:\n        /* \"#utility.yul\":7608:7725   */\n    tag_174:\n        /* \"#utility.yul\":7749:7823   */\n      tag_176\n        /* \"#utility.yul\":7815:7822   */\n      dup5\n        /* \"#utility.yul\":7806:7812   */\n      dup3\n        /* \"#utility.yul\":7795:7804   */\n      dup6\n        /* \"#utility.yul\":7791:7813   */\n      add\n        /* \"#utility.yul\":7749:7823   */\n      tag_84\n      jump\t// in\n    tag_176:\n        /* \"#utility.yul\":7739:7823   */\n      swap2\n      pop\n        /* \"#utility.yul\":7542:7833   */\n      pop\n        /* \"#utility.yul\":7316:7840   */\n      swap3\n      swap2\n      pop\n      pop\n      jump\t// out\n        /* \"#utility.yul\":7846:7952   */\n    tag_85:\n        /* \"#utility.yul\":7890:7898   */\n      0x00\n        /* \"#utility.yul\":7939:7944   */\n      dup2\n        /* \"#utility.yul\":7934:7937   */\n      0xe0\n        /* \"#utility.yul\":7930:7945   */\n      shr\n        /* \"#utility.yul\":7909:7945   */\n      swap1\n      pop\n        /* \"#utility.yul\":7846:7952   */\n      swap2\n      swap1\n      pop\n      jump\t// out\n        /* \"#utility.yul\":7958:8141   */\n    tag_47:\n        /* \"#utility.yul\":7993:7996   */\n      0x00\n        /* \"#utility.yul\":8031:8032   */\n      0x03\n        /* \"#utility.yul\":8013:8029   */\n      returndatasize\n        /* \"#utility.yul\":8010:8033   */\n      gt\n        /* \"#utility.yul\":8007:8135   */\n      iszero\n      tag_179\n      jumpi\n        /* \"#utility.yul\":8069:8070   */\n      0x04\n        /* \"#utility.yul\":8066:8067   */\n      0x00\n        /* \"#utility.yul\":8063:8064   */\n      dup1\n        /* \"#utility.yul\":8048:8071   */\n      returndatacopy\n        /* \"#utility.yul\":8091:8125   */\n      tag_180\n        /* \"#utility.yul\":8122:8123   */\n      0x00\n        /* \"#utility.yul\":8116:8124   */\n      mload\n        /* \"#utility.yul\":8091:8125   */\n      tag_85\n      jump\t// in\n    tag_180:\n        /* \"#utility.yul\":8084:8125   */\n      swap1\n      pop\n        /* \"#utility.yul\":8007:8135   */\n    tag_179:\n        /* \"#utility.yul\":7958:8141   */\n      swap1\n      jump\t// out\n        /* \"#utility.yul\":8147:8858   */\n    tag_49:\n        /* \"#utility.yul\":8186:8189   */\n      0x00\n        /* \"#utility.yul\":8224:8228   */\n      0x44\n        /* \"#utility.yul\":8206:8222   */\n      returndatasize\n        /* \"#utility.yul\":8203:8229   */\n      lt\n        /* \"#utility.yul\":8232:8237   */\n      tag_181\n        /* \"#utility.yul\":8200:8239   */\n      jumpi\n        /* \"#utility.yul\":8261:8281   */\n      tag_183\n      tag_60\n      jump\t// in\n    tag_183:\n        /* \"#utility.yul\":8336:8337   */\n      0x04\n        /* \"#utility.yul\":8318:8334   */\n      returndatasize\n        /* \"#utility.yul\":8314:8338   */\n      sub\n        /* \"#utility.yul\":8311:8312   */\n      0x04\n        /* \"#utility.yul\":8305:8309   */\n      dup3\n        /* \"#utility.yul\":8290:8339   */\n      returndatacopy\n        /* \"#utility.yul\":8369:8373   */\n      dup1\n        /* \"#utility.yul\":8363:8374   */\n      mload\n        /* \"#utility.yul\":8468:8484   */\n      returndatasize\n        /* \"#utility.yul\":8461:8465   */\n      0x24\n        /* \"#utility.yul\":8453:8459   */\n      dup3\n        /* \"#utility.yul\":8449:8466   */\n      add\n        /* \"#utility.yul\":8446:8485   */\n      gt\n        /* \"#utility.yul\":8413:8431   */\n      0xffffffffffffffff\n        /* \"#utility.yul\":8405:8411   */\n      dup3\n        /* \"#utility.yul\":8402:8432   */\n      gt\n        /* \"#utility.yul\":8386:8499   */\n      or\n        /* \"#utility.yul\":8383:8529   */\n      iszero\n      tag_184\n      jumpi\n        /* \"#utility.yul\":8514:8519   */\n      pop\n      pop\n      jump(tag_181)\n        /* \"#utility.yul\":8383:8529   */\n    tag_184:\n        /* \"#utility.yul\":8560:8566   */\n      dup1\n        /* \"#utility.yul\":8554:8558   */\n      dup3\n        /* \"#utility.yul\":8550:8567   */\n      add\n        /* \"#utility.yul\":8596:8599   */\n      dup1\n        /* \"#utility.yul\":8590:8600   */\n      mload\n        /* \"#utility.yul\":8623:8641   */\n      0xffffffffffffffff\n        /* \"#utility.yul\":8615:8621   */\n      dup2\n        /* \"#utility.yul\":8612:8642   */\n      gt\n        /* \"#utility.yul\":8609:8652   */\n      iszero\n      tag_185\n      jumpi\n        /* \"#utility.yul\":8645:8650   */\n      pop\n      pop\n      pop\n      pop\n      jump(tag_181)\n        /* \"#utility.yul\":8609:8652   */\n    tag_185:\n        /* \"#utility.yul\":8693:8699   */\n      dup1\n        /* \"#utility.yul\":8686:8690   */\n      0x20\n        /* \"#utility.yul\":8681:8684   */\n      dup4\n        /* \"#utility.yul\":8677:8691   */\n      add\n        /* \"#utility.yul\":8673:8700   */\n      add\n        /* \"#utility.yul\":8752:8753   */\n      0x04\n        /* \"#utility.yul\":8734:8750   */\n      returndatasize\n        /* \"#utility.yul\":8730:8754   */\n      sub\n        /* \"#utility.yul\":8724:8728   */\n      dup6\n        /* \"#utility.yul\":8720:8755   */\n      add\n        /* \"#utility.yul\":8715:8718   */\n      dup2\n        /* \"#utility.yul\":8712:8756   */\n      gt\n        /* \"#utility.yul\":8709:8766   */\n      iszero\n      tag_186\n      jumpi\n        /* \"#utility.yul\":8759:8764   */\n      pop\n      pop\n      pop\n      pop\n      pop\n      jump(tag_181)\n        /* \"#utility.yul\":8709:8766   */\n    tag_186:\n        /* \"#utility.yul\":8776:8833   */\n      tag_187\n        /* \"#utility.yul\":8824:8830   */\n      dup3\n        /* \"#utility.yul\":8818:8822   */\n      0x20\n        /* \"#utility.yul\":8814:8831   */\n      add\n        /* \"#utility.yul\":8806:8812   */\n      dup6\n        /* \"#utility.yul\":8802:8832   */\n      add\n        /* \"#utility.yul\":8796:8800   */\n      dup7\n        /* \"#utility.yul\":8776:8833   */\n      tag_79\n      jump\t// in\n    tag_187:\n        /* \"#utility.yul\":8849:8852   */\n      dup3\n        /* \"#utility.yul\":8842:8852   */\n      swap6\n      pop\n        /* \"#utility.yul\":8190:8858   */\n      pop\n      pop\n      pop\n      pop\n      pop\n        /* \"#utility.yul\":8147:8858   */\n    tag_181:\n      swap1\n      jump\t// out\n        /* \"#utility.yul\":8864:8963   */\n    tag_86:\n        /* \"#utility.yul\":8916:8922   */\n      0x00\n        /* \"#utility.yul\":8950:8955   */\n      dup2\n        /* \"#utility.yul\":8944:8956   */\n      mload\n        /* \"#utility.yul\":8934:8956   */\n      swap1\n      pop\n        /* \"#utility.yul\":8864:8963   */\n      swap2\n      swap1\n      pop\n      jump\t// out\n        /* \"#utility.yul\":8969:9346   */\n    tag_87:\n        /* \"#utility.yul\":9057:9060   */\n      0x00\n        /* \"#utility.yul\":9085:9124   */\n      tag_190\n        /* \"#utility.yul\":9118:9123   */\n      dup3\n        /* \"#utility.yul\":9085:9124   */\n      tag_86\n      jump\t// in\n    tag_190:\n        /* \"#utility.yul\":9140:9211   */\n      tag_191\n        /* \"#utility.yul\":9204:9210   */\n      dup2\n        /* \"#utility.yul\":9199:9202   */\n      dup6\n        /* \"#utility.yul\":9140:9211   */\n      tag_69\n      jump\t// in\n    tag_191:\n        /* \"#utility.yul\":9133:9211   */\n      swap4\n      pop\n        /* \"#utility.yul\":9220:9285   */\n      tag_192\n        /* \"#utility.yul\":9278:9284   */\n      dup2\n        /* \"#utility.yul\":9273:9276   */\n      dup6\n        /* \"#utility.yul\":9266:9270   */\n      0x20\n        /* \"#utility.yul\":9259:9264   */\n      dup7\n        /* \"#utility.yul\":9255:9271   */\n      add\n        /* \"#utility.yul\":9220:9285   */\n      tag_82\n      jump\t// in\n    tag_192:\n        /* \"#utility.yul\":9310:9339   */\n      tag_193\n        /* \"#utility.yul\":9332:9338   */\n      dup2\n        /* \"#utility.yul\":9310:9339   */\n      tag_77\n      jump\t// in\n    tag_193:\n        /* \"#utility.yul\":9305:9308   */\n      dup5\n        /* \"#utility.yul\":9301:9340   */\n      add\n        /* \"#utility.yul\":9294:9340   */\n      swap2\n      pop\n        /* \"#utility.yul\":9061:9346   */\n      pop\n        /* \"#utility.yul\":8969:9346   */\n      swap3\n      swap2\n      pop\n      pop\n      jump\t// out\n        /* \"#utility.yul\":9352:9665   */\n    tag_52:\n        /* \"#utility.yul\":9465:9469   */\n      0x00\n        /* \"#utility.yul\":9503:9505   */\n      0x20\n        /* \"#utility.yul\":9492:9501   */\n      dup3\n        /* \"#utility.yul\":9488:9506   */\n      add\n        /* \"#utility.yul\":9480:9506   */\n      swap1\n      pop\n        /* \"#utility.yul\":9552:9561   */\n      dup2\n        /* \"#utility.yul\":9546:9550   */\n      dup2\n        /* \"#utility.yul\":9542:9562   */\n      sub\n        /* \"#utility.yul\":9538:9539   */\n      0x00\n        /* \"#utility.yul\":9527:9536   */\n      dup4\n        /* \"#utility.yul\":9523:9540   */\n      add\n        /* \"#utility.yul\":9516:9563   */\n      mstore\n        /* \"#utility.yul\":9580:9658   */\n      tag_195\n        /* \"#utility.yul\":9653:9657   */\n      dup2\n        /* \"#utility.yul\":9644:9650   */\n      dup5\n        /* \"#utility.yul\":9580:9658   */\n      tag_87\n      jump\t// in\n    tag_195:\n        /* \"#utility.yul\":9572:9658   */\n      swap1\n      pop\n        /* \"#utility.yul\":9352:9665   */\n      swap3\n      swap2\n      pop\n      pop\n      jump\t// out\n        /* \"#utility.yul\":9671:9843   */\n    tag_88:\n        /* \"#utility.yul\":9811:9835   */\n      0x556e6b6e6f776e206572726f72206f6363757272656400000000000000000000\n        /* \"#utility.yul\":9807:9808   */\n      0x00\n        /* \"#utility.yul\":9799:9805   */\n      dup3\n        /* \"#utility.yul\":9795:9809   */\n      add\n        /* \"#utility.yul\":9788:9836   */\n      mstore\n        /* \"#utility.yul\":9671:9843   */\n      pop\n      jump\t// out\n        /* \"#utility.yul\":9849:10215   */\n    tag_89:\n        /* \"#utility.yul\":9991:9994   */\n      0x00\n        /* \"#utility.yul\":10012:10079   */\n      tag_198\n        /* \"#utility.yul\":10076:10078   */\n      0x16\n        /* \"#utility.yul\":10071:10074   */\n      dup4\n        /* \"#utility.yul\":10012:10079   */\n      tag_69\n      jump\t// in\n    tag_198:\n        /* \"#utility.yul\":10005:10079   */\n      swap2\n      pop\n        /* \"#utility.yul\":10088:10181   */\n      tag_199\n        /* \"#utility.yul\":10177:10180   */\n      dup3\n        /* \"#utility.yul\":10088:10181   */\n      tag_88\n      jump\t// in\n    tag_199:\n        /* \"#utility.yul\":10206:10208   */\n      0x20\n        /* \"#utility.yul\":10201:10204   */\n      dup3\n        /* \"#utility.yul\":10197:10209   */\n      add\n        /* \"#utility.yul\":10190:10209   */\n      swap1\n      pop\n        /* \"#utility.yul\":9849:10215   */\n      swap2\n      swap1\n      pop\n      jump\t// out\n        /* \"#utility.yul\":10221:10640   */\n    tag_54:\n        /* \"#utility.yul\":10387:10391   */\n      0x00\n        /* \"#utility.yul\":10425:10427   */\n      0x20\n        /* \"#utility.yul\":10414:10423   */\n      dup3\n        /* \"#utility.yul\":10410:10428   */\n      add\n        /* \"#utility.yul\":10402:10428   */\n      swap1\n      pop\n        /* \"#utility.yul\":10474:10483   */\n      dup2\n        /* \"#utility.yul\":10468:10472   */\n      dup2\n        /* \"#utility.yul\":10464:10484   */\n      sub\n        /* \"#utility.yul\":10460:10461   */\n      0x00\n        /* \"#utility.yul\":10449:10458   */\n      dup4\n        /* \"#utility.yul\":10445:10462   */\n      add\n        /* \"#utility.yul\":10438:10485   */\n      mstore\n        /* \"#utility.yul\":10502:10633   */\n      tag_201\n        /* \"#utility.yul\":10628:10632   */\n      dup2\n        /* \"#utility.yul\":10502:10633   */\n      tag_89\n      jump\t// in\n    tag_201:\n        /* \"#utility.yul\":10494:10633   */\n      swap1\n      pop\n        /* \"#utility.yul\":10221:10640   */\n      swap2\n      swap1\n      pop\n      jump\t// out\n\n    auxdata: 0xa2646970667358221220e1c627449db7b15d681b51615368e83bcbeeb3c6f581b63af4ad45d27d39781b64736f6c634300081a0033\n}\n",
				"bytecode": {
					"linkReferences": {},
					"object": "6080604052348015600e575f80fd5b506109198061001c5f395ff3fe608060405234801561000f575f80fd5b506004361061004a575f3560e01c806312065fe01461004e57806312514bba1461006c57806355fc262414610088578063c1b70e33146100a4575b5f80fd5b6100566100c0565b6040516100639190610352565b60405180910390f35b610086600480360381019061008191906103a6565b6100c8565b005b6100a2600480360381019061009d91906103a6565b610126565b005b6100be60048036038101906100b9919061042b565b610182565b005b5f8054905090565b5f5481111561010c576040517f08c379a0000000000000000000000000000000000000000000000000000000008152600401610103906104c3565b60405180910390fd5b805f8082825461011c919061050e565b9250508190555050565b5f8111610168576040517f08c379a000000000000000000000000000000000000000000000000000000000815260040161015f9061058b565b60405180910390fd5b805f8082825461017891906105a9565b9250508190555050565b5f548111156101c6576040517f08c379a00000000000000000000000000000000000000000000000000000000081526004016101bd906104c3565b60405180910390fd5b5f8290508073ffffffffffffffffffffffffffffffffffffffff16638827e09b836040518263ffffffff1660e01b81526004016102039190610352565b5f60405180830381865afa92505050801561024057506040513d5f823e3d601f19601f8201168201806040525081019061023d9190610718565b60015b6102e55761024c61076b565b806308c379a0036102a8575061026061078a565b8061026b57506102aa565b7f8beb7b62bbc568f7e7b7cf74a034cc48149dab4bb946b83c5d27df3565acf3648160405161029a919061085b565b60405180910390a1506102e0565b505b7f8beb7b62bbc568f7e7b7cf74a034cc48149dab4bb946b83c5d27df3565acf3646040516102d7906108c5565b60405180910390a15b610335565b825f808282546102f5919061050e565b925050819055507f2f8c47372bcb2398e7bd46f7409152dba4046eb96e47c7d5899accb324793f718160405161032b919061085b565b60405180910390a1505b505050565b5f819050919050565b61034c8161033a565b82525050565b5f6020820190506103655f830184610343565b92915050565b5f604051905090565b5f80fd5b5f80fd5b6103858161033a565b811461038f575f80fd5b50565b5f813590506103a08161037c565b92915050565b5f602082840312156103bb576103ba610374565b5b5f6103c884828501610392565b91505092915050565b5f73ffffffffffffffffffffffffffffffffffffffff82169050919050565b5f6103fa826103d1565b9050919050565b61040a816103f0565b8114610414575f80fd5b50565b5f8135905061042581610401565b92915050565b5f806040838503121561044157610440610374565b5b5f61044e85828601610417565b925050602061045f85828601610392565b9150509250929050565b5f82825260208201905092915050565b7f496e73756666696369656e742042616c616e63650000000000000000000000005f82015250565b5f6104ad601483610469565b91506104b882610479565b602082019050919050565b5f6020820190508181035f8301526104da816104a1565b9050919050565b7f4e487b71000000000000000000000000000000000000000000000000000000005f52601160045260245ffd5b5f6105188261033a565b91506105238361033a565b925082820390508181111561053b5761053a6104e1565b5b92915050565b7f416d6f756e74206d7573742062652067726561746572207468616e207a65726f5f82015250565b5f610575602083610469565b915061058082610541565b602082019050919050565b5f6020820190508181035f8301526105a281610569565b9050919050565b5f6105b38261033a565b91506105be8361033a565b92508282019050808211156105d6576105d56104e1565b5b92915050565b5f80fd5b5f80fd5b5f601f19601f8301169050919050565b7f4e487b71000000000000000000000000000000000000000000000000000000005f52604160045260245ffd5b61062a826105e4565b810181811067ffffffffffffffff82111715610649576106486105f4565b5b80604052505050565b5f61065b61036b565b90506106678282610621565b919050565b5f67ffffffffffffffff821115610686576106856105f4565b5b61068f826105e4565b9050602081019050919050565b8281835e5f83830152505050565b5f6106bc6106b78461066c565b610652565b9050828152602081018484840111156106d8576106d76105e0565b5b6106e384828561069c565b509392505050565b5f82601f8301126106ff576106fe6105dc565b5b815161070f8482602086016106aa565b91505092915050565b5f6020828403121561072d5761072c610374565b5b5f82015167ffffffffffffffff81111561074a57610749610378565b5b610756848285016106eb565b91505092915050565b5f8160e01c9050919050565b5f60033d11156107875760045f803e6107845f5161075f565b90505b90565b5f60443d106108165761079b61036b565b60043d036004823e80513d602482011167ffffffffffffffff821117156107c3575050610816565b808201805167ffffffffffffffff8111156107e15750505050610816565b80602083010160043d0385018111156107fe575050505050610816565b61080d82602001850186610621565b82955050505050505b90565b5f81519050919050565b5f61082d82610819565b6108378185610469565b935061084781856020860161069c565b610850816105e4565b840191505092915050565b5f6020820190508181035f8301526108738184610823565b905092915050565b7f556e6b6e6f776e206572726f72206f63637572726564000000000000000000005f82015250565b5f6108af601683610469565b91506108ba8261087b565b602082019050919050565b5f6020820190508181035f8301526108dc816108a3565b905091905056fea2646970667358221220e1c627449db7b15d681b51615368e83bcbeeb3c6f581b63af4ad45d27d39781b64736f6c634300081a0033",
					"opcodes": "PUSH1 0x80 PUSH1 0x40 MSTORE CALLVALUE DUP1 ISZERO PUSH1 0xE JUMPI PUSH0 DUP1 REVERT JUMPDEST POP PUSH2 0x919 DUP1 PUSH2 0x1C PUSH0 CODECOPY PUSH0 RETURN INVALID PUSH1 0x80 PUSH1 0x40 MSTORE CALLVALUE DUP1 ISZERO PUSH2 0xF JUMPI PUSH0 DUP1 REVERT JUMPDEST POP PUSH1 0x4 CALLDATASIZE LT PUSH2 0x4A JUMPI PUSH0 CALLDATALOAD PUSH1 0xE0 SHR DUP1 PUSH4 0x12065FE0 EQ PUSH2 0x4E JUMPI DUP1 PUSH4 0x12514BBA EQ PUSH2 0x6C JUMPI DUP1 PUSH4 0x55FC2624 EQ PUSH2 0x88 JUMPI DUP1 PUSH4 0xC1B70E33 EQ PUSH2 0xA4 JUMPI JUMPDEST PUSH0 DUP1 REVERT JUMPDEST PUSH2 0x56 PUSH2 0xC0 JUMP JUMPDEST PUSH1 0x40 MLOAD PUSH2 0x63 SWAP2 SWAP1 PUSH2 0x352 JUMP JUMPDEST PUSH1 0x40 MLOAD DUP1 SWAP2 SUB SWAP1 RETURN JUMPDEST PUSH2 0x86 PUSH1 0x4 DUP1 CALLDATASIZE SUB DUP2 ADD SWAP1 PUSH2 0x81 SWAP2 SWAP1 PUSH2 0x3A6 JUMP JUMPDEST PUSH2 0xC8 JUMP JUMPDEST STOP JUMPDEST PUSH2 0xA2 PUSH1 0x4 DUP1 CALLDATASIZE SUB DUP2 ADD SWAP1 PUSH2 0x9D SWAP2 SWAP1 PUSH2 0x3A6 JUMP JUMPDEST PUSH2 0x126 JUMP JUMPDEST STOP JUMPDEST PUSH2 0xBE PUSH1 0x4 DUP1 CALLDATASIZE SUB DUP2 ADD SWAP1 PUSH2 0xB9 SWAP2 SWAP1 PUSH2 0x42B JUMP JUMPDEST PUSH2 0x182 JUMP JUMPDEST STOP JUMPDEST PUSH0 DUP1 SLOAD SWAP1 POP SWAP1 JUMP JUMPDEST PUSH0 SLOAD DUP2 GT ISZERO PUSH2 0x10C JUMPI PUSH1 0x40 MLOAD PUSH32 0x8C379A000000000000000000000000000000000000000000000000000000000 DUP2 MSTORE PUSH1 0x4 ADD PUSH2 0x103 SWAP1 PUSH2 0x4C3 JUMP JUMPDEST PUSH1 0x40 MLOAD DUP1 SWAP2 SUB SWAP1 REVERT JUMPDEST DUP1 PUSH0 DUP1 DUP3 DUP3 SLOAD PUSH2 0x11C SWAP2 SWAP1 PUSH2 0x50E JUMP JUMPDEST SWAP3 POP POP DUP2 SWAP1 SSTORE POP POP JUMP JUMPDEST PUSH0 DUP2 GT PUSH2 0x168 JUMPI PUSH1 0x40 MLOAD PUSH32 0x8C379A000000000000000000000000000000000000000000000000000000000 DUP2 MSTORE PUSH1 0x4 ADD PUSH2 0x15F SWAP1 PUSH2 0x58B JUMP JUMPDEST PUSH1 0x40 MLOAD DUP1 SWAP2 SUB SWAP1 REVERT JUMPDEST DUP1 PUSH0 DUP1 DUP3 DUP3 SLOAD PUSH2 0x178 SWAP2 SWAP1 PUSH2 0x5A9 JUMP JUMPDEST SWAP3 POP POP DUP2 SWAP1 SSTORE POP POP JUMP JUMPDEST PUSH0 SLOAD DUP2 GT ISZERO PUSH2 0x1C6 JUMPI PUSH1 0x40 MLOAD PUSH32 0x8C379A000000000000000000000000000000000000000000000000000000000 DUP2 MSTORE PUSH1 0x4 ADD PUSH2 0x1BD SWAP1 PUSH2 0x4C3 JUMP JUMPDEST PUSH1 0x40 MLOAD DUP1 SWAP2 SUB SWAP1 REVERT JUMPDEST PUSH0 DUP3 SWAP1 POP DUP1 PUSH20 0xFFFFFFFFFFFFFFFFFFFFFFFFFFFFFFFFFFFFFFFF AND PUSH4 0x8827E09B DUP4 PUSH1 0x40 MLOAD DUP3 PUSH4 0xFFFFFFFF AND PUSH1 0xE0 SHL DUP2 MSTORE PUSH1 0x4 ADD PUSH2 0x203 SWAP2 SWAP1 PUSH2 0x352 JUMP JUMPDEST PUSH0 PUSH1 0x40 MLOAD DUP1 DUP4 SUB DUP2 DUP7 GAS STATICCALL SWAP3 POP POP POP DUP1 ISZERO PUSH2 0x240 JUMPI POP PUSH1 0x40 MLOAD RETURNDATASIZE PUSH0 DUP3 RETURNDATACOPY RETURNDATASIZE PUSH1 0x1F NOT PUSH1 0x1F DUP3 ADD AND DUP3 ADD DUP1 PUSH1 0x40 MSTORE POP DUP2 ADD SWAP1 PUSH2 0x23D SWAP2 SWAP1 PUSH2 0x718 JUMP JUMPDEST PUSH1 0x1 JUMPDEST PUSH2 0x2E5 JUMPI PUSH2 0x24C PUSH2 0x76B JUMP JUMPDEST DUP1 PUSH4 0x8C379A0 SUB PUSH2 0x2A8 JUMPI POP PUSH2 0x260 PUSH2 0x78A JUMP JUMPDEST DUP1 PUSH2 0x26B JUMPI POP PUSH2 0x2AA JUMP JUMPDEST PUSH32 0x8BEB7B62BBC568F7E7B7CF74A034CC48149DAB4BB946B83C5D27DF3565ACF364 DUP2 PUSH1 0x40 MLOAD PUSH2 0x29A SWAP2 SWAP1 PUSH2 0x85B JUMP JUMPDEST PUSH1 0x40 MLOAD DUP1 SWAP2 SUB SWAP1 LOG1 POP PUSH2 0x2E0 JUMP JUMPDEST POP JUMPDEST PUSH32 0x8BEB7B62BBC568F7E7B7CF74A034CC48149DAB4BB946B83C5D27DF3565ACF364 PUSH1 0x40 MLOAD PUSH2 0x2D7 SWAP1 PUSH2 0x8C5 JUMP JUMPDEST PUSH1 0x40 MLOAD DUP1 SWAP2 SUB SWAP1 LOG1 JUMPDEST PUSH2 0x335 JUMP JUMPDEST DUP3 PUSH0 DUP1 DUP3 DUP3 SLOAD PUSH2 0x2F5 SWAP2 SWAP1 PUSH2 0x50E JUMP JUMPDEST SWAP3 POP POP DUP2 SWAP1 SSTORE POP PUSH32 0x2F8C47372BCB2398E7BD46F7409152DBA4046EB96E47C7D5899ACCB324793F71 DUP2 PUSH1 0x40 MLOAD PUSH2 0x32B SWAP2 SWAP1 PUSH2 0x85B JUMP JUMPDEST PUSH1 0x40 MLOAD DUP1 SWAP2 SUB SWAP1 LOG1 POP JUMPDEST POP POP POP JUMP JUMPDEST PUSH0 DUP2 SWAP1 POP SWAP2 SWAP1 POP JUMP JUMPDEST PUSH2 0x34C DUP2 PUSH2 0x33A JUMP JUMPDEST DUP3 MSTORE POP POP JUMP JUMPDEST PUSH0 PUSH1 0x20 DUP3 ADD SWAP1 POP PUSH2 0x365 PUSH0 DUP4 ADD DUP5 PUSH2 0x343 JUMP JUMPDEST SWAP3 SWAP2 POP POP JUMP JUMPDEST PUSH0 PUSH1 0x40 MLOAD SWAP1 POP SWAP1 JUMP JUMPDEST PUSH0 DUP1 REVERT JUMPDEST PUSH0 DUP1 REVERT JUMPDEST PUSH2 0x385 DUP2 PUSH2 0x33A JUMP JUMPDEST DUP2 EQ PUSH2 0x38F JUMPI PUSH0 DUP1 REVERT JUMPDEST POP JUMP JUMPDEST PUSH0 DUP2 CALLDATALOAD SWAP1 POP PUSH2 0x3A0 DUP2 PUSH2 0x37C JUMP JUMPDEST SWAP3 SWAP2 POP POP JUMP JUMPDEST PUSH0 PUSH1 0x20 DUP3 DUP5 SUB SLT ISZERO PUSH2 0x3BB JUMPI PUSH2 0x3BA PUSH2 0x374 JUMP JUMPDEST JUMPDEST PUSH0 PUSH2 0x3C8 DUP5 DUP3 DUP6 ADD PUSH2 0x392 JUMP JUMPDEST SWAP2 POP POP SWAP3 SWAP2 POP POP JUMP JUMPDEST PUSH0 PUSH20 0xFFFFFFFFFFFFFFFFFFFFFFFFFFFFFFFFFFFFFFFF DUP3 AND SWAP1 POP SWAP2 SWAP1 POP JUMP JUMPDEST PUSH0 PUSH2 0x3FA DUP3 PUSH2 0x3D1 JUMP JUMPDEST SWAP1 POP SWAP2 SWAP1 POP JUMP JUMPDEST PUSH2 0x40A DUP2 PUSH2 0x3F0 JUMP JUMPDEST DUP2 EQ PUSH2 0x414 JUMPI PUSH0 DUP1 REVERT JUMPDEST POP JUMP JUMPDEST PUSH0 DUP2 CALLDATALOAD SWAP1 POP PUSH2 0x425 DUP2 PUSH2 0x401 JUMP JUMPDEST SWAP3 SWAP2 POP POP JUMP JUMPDEST PUSH0 DUP1 PUSH1 0x40 DUP4 DUP6 SUB SLT ISZERO PUSH2 0x441 JUMPI PUSH2 0x440 PUSH2 0x374 JUMP JUMPDEST JUMPDEST PUSH0 PUSH2 0x44E DUP6 DUP3 DUP7 ADD PUSH2 0x417 JUMP JUMPDEST SWAP3 POP POP PUSH1 0x20 PUSH2 0x45F DUP6 DUP3 DUP7 ADD PUSH2 0x392 JUMP JUMPDEST SWAP2 POP POP SWAP3 POP SWAP3 SWAP1 POP JUMP JUMPDEST PUSH0 DUP3 DUP3 MSTORE PUSH1 0x20 DUP3 ADD SWAP1 POP SWAP3 SWAP2 POP POP JUMP JUMPDEST PUSH32 0x496E73756666696369656E742042616C616E6365000000000000000000000000 PUSH0 DUP3 ADD MSTORE POP JUMP JUMPDEST PUSH0 PUSH2 0x4AD PUSH1 0x14 DUP4 PUSH2 0x469 JUMP JUMPDEST SWAP2 POP PUSH2 0x4B8 DUP3 PUSH2 0x479 JUMP JUMPDEST PUSH1 0x20 DUP3 ADD SWAP1 POP SWAP2 SWAP1 POP JUMP JUMPDEST PUSH0 PUSH1 0x20 DUP3 ADD SWAP1 POP DUP2 DUP2 SUB PUSH0 DUP4 ADD MSTORE PUSH2 0x4DA DUP2 PUSH2 0x4A1 JUMP JUMPDEST SWAP1 POP SWAP2 SWAP1 POP JUMP JUMPDEST PUSH32 0x4E487B7100000000000000000000000000000000000000000000000000000000 PUSH0 MSTORE PUSH1 0x11 PUSH1 0x4 MSTORE PUSH1 0x24 PUSH0 REVERT JUMPDEST PUSH0 PUSH2 0x518 DUP3 PUSH2 0x33A JUMP JUMPDEST SWAP2 POP PUSH2 0x523 DUP4 PUSH2 0x33A JUMP JUMPDEST SWAP3 POP DUP3 DUP3 SUB SWAP1 POP DUP2 DUP2 GT ISZERO PUSH2 0x53B JUMPI PUSH2 0x53A PUSH2 0x4E1 JUMP JUMPDEST JUMPDEST SWAP3 SWAP2 POP POP JUMP JUMPDEST PUSH32 0x416D6F756E74206D7573742062652067726561746572207468616E207A65726F PUSH0 DUP3 ADD MSTORE POP JUMP JUMPDEST PUSH0 PUSH2 0x575 PUSH1 0x20 DUP4 PUSH2 0x469 JUMP JUMPDEST SWAP2 POP PUSH2 0x580 DUP3 PUSH2 0x541 JUMP JUMPDEST PUSH1 0x20 DUP3 ADD SWAP1 POP SWAP2 SWAP1 POP JUMP JUMPDEST PUSH0 PUSH1 0x20 DUP3 ADD SWAP1 POP DUP2 DUP2 SUB PUSH0 DUP4 ADD MSTORE PUSH2 0x5A2 DUP2 PUSH2 0x569 JUMP JUMPDEST SWAP1 POP SWAP2 SWAP1 POP JUMP JUMPDEST PUSH0 PUSH2 0x5B3 DUP3 PUSH2 0x33A JUMP JUMPDEST SWAP2 POP PUSH2 0x5BE DUP4 PUSH2 0x33A JUMP JUMPDEST SWAP3 POP DUP3 DUP3 ADD SWAP1 POP DUP1 DUP3 GT ISZERO PUSH2 0x5D6 JUMPI PUSH2 0x5D5 PUSH2 0x4E1 JUMP JUMPDEST JUMPDEST SWAP3 SWAP2 POP POP JUMP JUMPDEST PUSH0 DUP1 REVERT JUMPDEST PUSH0 DUP1 REVERT JUMPDEST PUSH0 PUSH1 0x1F NOT PUSH1 0x1F DUP4 ADD AND SWAP1 POP SWAP2 SWAP1 POP JUMP JUMPDEST PUSH32 0x4E487B7100000000000000000000000000000000000000000000000000000000 PUSH0 MSTORE PUSH1 0x41 PUSH1 0x4 MSTORE PUSH1 0x24 PUSH0 REVERT JUMPDEST PUSH2 0x62A DUP3 PUSH2 0x5E4 JUMP JUMPDEST DUP2 ADD DUP2 DUP2 LT PUSH8 0xFFFFFFFFFFFFFFFF DUP3 GT OR ISZERO PUSH2 0x649 JUMPI PUSH2 0x648 PUSH2 0x5F4 JUMP JUMPDEST JUMPDEST DUP1 PUSH1 0x40 MSTORE POP POP POP JUMP JUMPDEST PUSH0 PUSH2 0x65B PUSH2 0x36B JUMP JUMPDEST SWAP1 POP PUSH2 0x667 DUP3 DUP3 PUSH2 0x621 JUMP JUMPDEST SWAP2 SWAP1 POP JUMP JUMPDEST PUSH0 PUSH8 0xFFFFFFFFFFFFFFFF DUP3 GT ISZERO PUSH2 0x686 JUMPI PUSH2 0x685 PUSH2 0x5F4 JUMP JUMPDEST JUMPDEST PUSH2 0x68F DUP3 PUSH2 0x5E4 JUMP JUMPDEST SWAP1 POP PUSH1 0x20 DUP2 ADD SWAP1 POP SWAP2 SWAP1 POP JUMP JUMPDEST DUP3 DUP2 DUP4 MCOPY PUSH0 DUP4 DUP4 ADD MSTORE POP POP POP JUMP JUMPDEST PUSH0 PUSH2 0x6BC PUSH2 0x6B7 DUP5 PUSH2 0x66C JUMP JUMPDEST PUSH2 0x652 JUMP JUMPDEST SWAP1 POP DUP3 DUP2 MSTORE PUSH1 0x20 DUP2 ADD DUP5 DUP5 DUP5 ADD GT ISZERO PUSH2 0x6D8 JUMPI PUSH2 0x6D7 PUSH2 0x5E0 JUMP JUMPDEST JUMPDEST PUSH2 0x6E3 DUP5 DUP3 DUP6 PUSH2 0x69C JUMP JUMPDEST POP SWAP4 SWAP3 POP POP POP JUMP JUMPDEST PUSH0 DUP3 PUSH1 0x1F DUP4 ADD SLT PUSH2 0x6FF JUMPI PUSH2 0x6FE PUSH2 0x5DC JUMP JUMPDEST JUMPDEST DUP2 MLOAD PUSH2 0x70F DUP5 DUP3 PUSH1 0x20 DUP7 ADD PUSH2 0x6AA JUMP JUMPDEST SWAP2 POP POP SWAP3 SWAP2 POP POP JUMP JUMPDEST PUSH0 PUSH1 0x20 DUP3 DUP5 SUB SLT ISZERO PUSH2 0x72D JUMPI PUSH2 0x72C PUSH2 0x374 JUMP JUMPDEST JUMPDEST PUSH0 DUP3 ADD MLOAD PUSH8 0xFFFFFFFFFFFFFFFF DUP2 GT ISZERO PUSH2 0x74A JUMPI PUSH2 0x749 PUSH2 0x378 JUMP JUMPDEST JUMPDEST PUSH2 0x756 DUP5 DUP3 DUP6 ADD PUSH2 0x6EB JUMP JUMPDEST SWAP2 POP POP SWAP3 SWAP2 POP POP JUMP JUMPDEST PUSH0 DUP2 PUSH1 0xE0 SHR SWAP1 POP SWAP2 SWAP1 POP JUMP JUMPDEST PUSH0 PUSH1 0x3 RETURNDATASIZE GT ISZERO PUSH2 0x787 JUMPI PUSH1 0x4 PUSH0 DUP1 RETURNDATACOPY PUSH2 0x784 PUSH0 MLOAD PUSH2 0x75F JUMP JUMPDEST SWAP1 POP JUMPDEST SWAP1 JUMP JUMPDEST PUSH0 PUSH1 0x44 RETURNDATASIZE LT PUSH2 0x816 JUMPI PUSH2 0x79B PUSH2 0x36B JUMP JUMPDEST PUSH1 0x4 RETURNDATASIZE SUB PUSH1 0x4 DUP3 RETURNDATACOPY DUP1 MLOAD RETURNDATASIZE PUSH1 0x24 DUP3 ADD GT PUSH8 0xFFFFFFFFFFFFFFFF DUP3 GT OR ISZERO PUSH2 0x7C3 JUMPI POP POP PUSH2 0x816 JUMP JUMPDEST DUP1 DUP3 ADD DUP1 MLOAD PUSH8 0xFFFFFFFFFFFFFFFF DUP2 GT ISZERO PUSH2 0x7E1 JUMPI POP POP POP POP PUSH2 0x816 JUMP JUMPDEST DUP1 PUSH1 0x20 DUP4 ADD ADD PUSH1 0x4 RETURNDATASIZE SUB DUP6 ADD DUP2 GT ISZERO PUSH2 0x7FE JUMPI POP POP POP POP POP PUSH2 0x816 JUMP JUMPDEST PUSH2 0x80D DUP3 PUSH1 0x20 ADD DUP6 ADD DUP7 PUSH2 0x621 JUMP JUMPDEST DUP3 SWAP6 POP POP POP POP POP POP JUMPDEST SWAP1 JUMP JUMPDEST PUSH0 DUP2 MLOAD SWAP1 POP SWAP2 SWAP1 POP JUMP JUMPDEST PUSH0 PUSH2 0x82D DUP3 PUSH2 0x819 JUMP JUMPDEST PUSH2 0x837 DUP2 DUP6 PUSH2 0x469 JUMP JUMPDEST SWAP4 POP PUSH2 0x847 DUP2 DUP6 PUSH1 0x20 DUP7 ADD PUSH2 0x69C JUMP JUMPDEST PUSH2 0x850 DUP2 PUSH2 0x5E4 JUMP JUMPDEST DUP5 ADD SWAP2 POP POP SWAP3 SWAP2 POP POP JUMP JUMPDEST PUSH0 PUSH1 0x20 DUP3 ADD SWAP1 POP DUP2 DUP2 SUB PUSH0 DUP4 ADD MSTORE PUSH2 0x873 DUP2 DUP5 PUSH2 0x823 JUMP JUMPDEST SWAP1 POP SWAP3 SWAP2 POP POP JUMP JUMPDEST PUSH32 0x556E6B6E6F776E206572726F72206F6363757272656400000000000000000000 PUSH0 DUP3 ADD MSTORE POP JUMP JUMPDEST PUSH0 PUSH2 0x8AF PUSH1 0x16 DUP4 PUSH2 0x469 JUMP JUMPDEST SWAP2 POP PUSH2 0x8BA DUP3 PUSH2 0x87B JUMP JUMPDEST PUSH1 0x20 DUP3 ADD SWAP1 POP SWAP2 SWAP1 POP JUMP JUMPDEST PUSH0 PUSH1 0x20 DUP3 ADD SWAP1 POP DUP2 DUP2 SUB PUSH0 DUP4 ADD MSTORE PUSH2 0x8DC DUP2 PUSH2 0x8A3 JUMP JUMPDEST SWAP1 POP SWAP2 SWAP1 POP JUMP INVALID LOG2 PUSH5 0x6970667358 0x22 SLT KECCAK256 0xE1 0xC6 0x27 PREVRANDAO SWAP14 0xB7 0xB1 TSTORE PUSH9 0x1B51615368E83BCBEE 0xB3 0xC6 CREATE2 DUP2 0xB6 GASPRICE DELEGATECALL 0xAD GASLIMIT 0xD2 PUSH30 0x39781B64736F6C634300081A003300000000000000000000000000000000 "
				},
				"gasEstimates": {
					"creation": {
						"codeDepositCost": "465800",
						"executionCost": "497",
						"totalCost": "466297"
					},
					"external": {
						"getBalance()": "2410",
						"loadWallet(uint256)": "infinite",
						"transfer(uint256)": "infinite",
						"withdrawToExternal(address,uint256)": "infinite"
					}
				},
				"methodIdentifiers": {
					"getBalance()": "12065fe0",
					"loadWallet(uint256)": "55fc2624",
					"transfer(uint256)": "12514bba",
					"withdrawToExternal(address,uint256)": "c1b70e33"
				}
			},
			"storageLayout": {
				"storage": [
					{
						"astId": 4,
						"contract": "tc1.sol:ErrorHandling",
						"label": "balance",
						"offset": 0,
						"slot": "0",
						"type": "t_uint256"
					}
				],
				"types": {
					"t_uint256": {
						"encoding": "inplace",
						"label": "uint256",
						"numberOfBytes": "32"
					}
				}
			},
			"userdoc": {
				"kind": "user",
				"methods": {},
				"version": 1
			}
		}
	}
}