{
	"errorhandling.sol": {
		"error": {
			"abi": [
				{
					"inputs": [],
					"name": "getBalance",
					"outputs": [
						{
							"internalType": "uint256",
							"name": "",
							"type": "uint256"
						}
					],
					"stateMutability": "view",
					"type": "function"
				},
				{
					"inputs": [
						{
							"internalType": "uint256",
							"name": "amount",
							"type": "uint256"
						}
					],
					"name": "loadWallet",
					"outputs": [],
					"stateMutability": "nonpayable",
					"type": "function"
				},
				{
					"inputs": [
						{
							"internalType": "uint256",
							"name": "amount",
							"type": "uint256"
						}
					],
					"name": "transfer",
					"outputs": [],
					"stateMutability": "nonpayable",
					"type": "function"
				},
				{
					"inputs": [
						{
							"internalType": "uint256",
							"name": "amount",
							"type": "uint256"
						}
					],
					"name": "withdraw",
					"outputs": [],
					"stateMutability": "nonpayable",
					"type": "function"
				}
			],
			"devdoc": {
				"kind": "dev",
				"methods": {},
				"version": 1
			},
			"evm": {
				"assembly": "    /* \"errorhandling.sol\":61:1809  contract error{... */\n  mstore(0x40, 0x80)\n  callvalue\n  dup1\n  iszero\n  tag_1\n  jumpi\n  0x00\n  dup1\n  revert\ntag_1:\n  pop\n  dataSize(sub_0)\n  dup1\n  dataOffset(sub_0)\n  0x00\n  codecopy\n  0x00\n  return\nstop\n\nsub_0: assembly {\n        /* \"errorhandling.sol\":61:1809  contract error{... */\n      mstore(0x40, 0x80)\n      callvalue\n      dup1\n      iszero\n      tag_1\n      jumpi\n      0x00\n      dup1\n      revert\n    tag_1:\n      pop\n      jumpi(tag_2, lt(calldatasize, 0x04))\n      shr(0xe0, calldataload(0x00))\n      dup1\n      0x12065fe0\n      eq\n      tag_3\n      jumpi\n      dup1\n      0x12514bba\n      eq\n      tag_4\n      jumpi\n      dup1\n      0x2e1a7d4d\n      eq\n      tag_5\n      jumpi\n      dup1\n      0x55fc2624\n      eq\n      tag_6\n      jumpi\n    tag_2:\n      0x00\n      dup1\n      revert\n        /* \"errorhandling.sol\":482:564  function getBalance() public view returns (uint) {... */\n    tag_3:\n      tag_7\n      tag_8\n      jump\t// in\n    tag_7:\n      mload(0x40)\n      tag_9\n      swap2\n      swap1\n      tag_10\n      jump\t// in\n    tag_9:\n      mload(0x40)\n      dup1\n      swap2\n      sub\n      swap1\n      return\n        /* \"errorhandling.sol\":1221:1353  function transfer(uint amount) public {... */\n    tag_4:\n      tag_11\n      0x04\n      dup1\n      calldatasize\n      sub\n      dup2\n      add\n      swap1\n      tag_12\n      swap2\n      swap1\n      tag_13\n      jump\t// in\n    tag_12:\n      tag_14\n      jump\t// in\n    tag_11:\n      stop\n        /* \"errorhandling.sol\":1642:1802  function withdraw(uint amount) public {... */\n    tag_5:\n      tag_15\n      0x04\n      dup1\n      calldatasize\n      sub\n      dup2\n      add\n      swap1\n      tag_16\n      swap2\n      swap1\n      tag_13\n      jump\t// in\n    tag_16:\n      tag_17\n      jump\t// in\n    tag_15:\n      stop\n        /* \"errorhandling.sol\":180:429  function loadWallet(uint amount) public {... */\n    tag_6:\n      tag_18\n      0x04\n      dup1\n      calldatasize\n      sub\n      dup2\n      add\n      swap1\n      tag_19\n      swap2\n      swap1\n      tag_13\n      jump\t// in\n    tag_19:\n      tag_20\n      jump\t// in\n    tag_18:\n      stop\n        /* \"errorhandling.sol\":482:564  function getBalance() public view returns (uint) {... */\n    tag_8:\n        /* \"errorhandling.sol\":525:529  uint */\n      0x00\n        /* \"errorhandling.sol\":549:556  balance */\n      dup1\n      sload\n        /* \"errorhandling.sol\":542:556  return balance */\n      swap1\n      pop\n        /* \"errorhandling.sol\":482:564  function getBalance() public view returns (uint) {... */\n      swap1\n      jump\t// out\n        /* \"errorhandling.sol\":1221:1353  function transfer(uint amount) public {... */\n    tag_14:\n        /* \"errorhandling.sol\":1286:1293  balance */\n      sload(0x00)\n        /* \"errorhandling.sol\":1278:1284  amount */\n      dup2\n        /* \"errorhandling.sol\":1278:1293  amount<=balance */\n      gt\n      iszero\n        /* \"errorhandling.sol\":1270:1317  require(amount<=balance,'Insufficient Balance') */\n      tag_23\n      jumpi\n      mload(0x40)\n      0x08c379a000000000000000000000000000000000000000000000000000000000\n      dup2\n      mstore\n      0x04\n      add\n      tag_24\n      swap1\n      tag_25\n      jump\t// in\n    tag_24:\n      mload(0x40)\n      dup1\n      swap2\n      sub\n      swap1\n      revert\n    tag_23:\n        /* \"errorhandling.sol\":1339:1345  amount */\n      dup1\n        /* \"errorhandling.sol\":1328:1335  balance */\n      0x00\n      dup1\n        /* \"errorhandling.sol\":1328:1345  balance -= amount */\n      dup3\n      dup3\n      sload\n      tag_26\n      swap2\n      swap1\n      tag_27\n      jump\t// in\n    tag_26:\n      swap3\n      pop\n      pop\n      dup2\n      swap1\n      sstore\n      pop\n        /* \"errorhandling.sol\":1221:1353  function transfer(uint amount) public {... */\n      pop\n      jump\t// out\n        /* \"errorhandling.sol\":1642:1802  function withdraw(uint amount) public {... */\n    tag_17:\n        /* \"errorhandling.sol\":1704:1710  amount */\n      dup1\n        /* \"errorhandling.sol\":1695:1702  balance */\n      sload(0x00)\n        /* \"errorhandling.sol\":1695:1710  balance<=amount */\n      gt\n        /* \"errorhandling.sol\":1691:1767  if (balance<=amount) {... */\n      tag_29\n      jumpi\n        /* \"errorhandling.sol\":1727:1755  revert(\"Insufficient Funds\") */\n      mload(0x40)\n      0x08c379a000000000000000000000000000000000000000000000000000000000\n      dup2\n      mstore\n      0x04\n      add\n      tag_30\n      swap1\n      tag_31\n      jump\t// in\n    tag_30:\n      mload(0x40)\n      dup1\n      swap2\n      sub\n      swap1\n      revert\n        /* \"errorhandling.sol\":1691:1767  if (balance<=amount) {... */\n    tag_29:\n        /* \"errorhandling.sol\":1788:1794  amount */\n      dup1\n        /* \"errorhandling.sol\":1777:1784  balance */\n      0x00\n      dup1\n        /* \"errorhandling.sol\":1777:1794  balance -= amount */\n      dup3\n      dup3\n      sload\n      tag_32\n      swap2\n      swap1\n      tag_27\n      jump\t// in\n    tag_32:\n      swap3\n      pop\n      pop\n      dup2\n      swap1\n      sstore\n      pop\n        /* \"errorhandling.sol\":1642:1802  function withdraw(uint amount) public {... */\n      pop\n      jump\t// out\n        /* \"errorhandling.sol\":180:429  function loadWallet(uint amount) public {... */\n    tag_20:\n        /* \"errorhandling.sol\":299:300  0 */\n      0x00\n        /* \"errorhandling.sol\":290:296  amount */\n      dup2\n        /* \"errorhandling.sol\":290:300  amount > 0 */\n      gt\n        /* \"errorhandling.sol\":282:337  require(amount > 0, \"Amount must be greater than zero\") */\n      tag_34\n      jumpi\n      mload(0x40)\n      0x08c379a000000000000000000000000000000000000000000000000000000000\n      dup2\n      mstore\n      0x04\n      add\n      tag_35\n      swap1\n      tag_36\n      jump\t// in\n    tag_35:\n      mload(0x40)\n      dup1\n      swap2\n      sub\n      swap1\n      revert\n    tag_34:\n        /* \"errorhandling.sol\":415:421  amount */\n      dup1\n        /* \"errorhandling.sol\":404:411  balance */\n      0x00\n      dup1\n        /* \"errorhandling.sol\":404:421  balance += amount */\n      dup3\n      dup3\n      sload\n      tag_37\n      swap2\n      swap1\n      tag_38\n      jump\t// in\n    tag_37:\n      swap3\n      pop\n      pop\n      dup2\n      swap1\n      sstore\n      pop\n        /* \"errorhandling.sol\":180:429  function loadWallet(uint amount) public {... */\n      pop\n      jump\t// out\n        /* \"#utility.yul\":7:84   */\n    tag_39:\n        /* \"#utility.yul\":44:51   */\n      0x00\n        /* \"#utility.yul\":73:78   */\n      dup2\n        /* \"#utility.yul\":62:78   */\n      swap1\n      pop\n        /* \"#utility.yul\":7:84   */\n      swap2\n      swap1\n      pop\n      jump\t// out\n        /* \"#utility.yul\":90:208   */\n    tag_40:\n        /* \"#utility.yul\":177:201   */\n      tag_57\n        /* \"#utility.yul\":195:200   */\n      dup2\n        /* \"#utility.yul\":177:201   */\n      tag_39\n      jump\t// in\n    tag_57:\n        /* \"#utility.yul\":172:175   */\n      dup3\n        /* \"#utility.yul\":165:202   */\n      mstore\n        /* \"#utility.yul\":90:208   */\n      pop\n      pop\n      jump\t// out\n        /* \"#utility.yul\":214:436   */\n    tag_10:\n        /* \"#utility.yul\":307:311   */\n      0x00\n        /* \"#utility.yul\":345:347   */\n      0x20\n        /* \"#utility.yul\":334:343   */\n      dup3\n        /* \"#utility.yul\":330:348   */\n      add\n        /* \"#utility.yul\":322:348   */\n      swap1\n      pop\n        /* \"#utility.yul\":358:429   */\n      tag_59\n        /* \"#utility.yul\":426:427   */\n      0x00\n        /* \"#utility.yul\":415:424   */\n      dup4\n        /* \"#utility.yul\":411:428   */\n      add\n        /* \"#utility.yul\":402:408   */\n      dup5\n        /* \"#utility.yul\":358:429   */\n      tag_40\n      jump\t// in\n    tag_59:\n        /* \"#utility.yul\":214:436   */\n      swap3\n      swap2\n      pop\n      pop\n      jump\t// out\n        /* \"#utility.yul\":523:640   */\n    tag_42:\n        /* \"#utility.yul\":632:633   */\n      0x00\n        /* \"#utility.yul\":629:630   */\n      dup1\n        /* \"#utility.yul\":622:634   */\n      revert\n        /* \"#utility.yul\":769:891   */\n    tag_44:\n        /* \"#utility.yul\":842:866   */\n      tag_64\n        /* \"#utility.yul\":860:865   */\n      dup2\n        /* \"#utility.yul\":842:866   */\n      tag_39\n      jump\t// in\n    tag_64:\n        /* \"#utility.yul\":835:840   */\n      dup2\n        /* \"#utility.yul\":832:867   */\n      eq\n        /* \"#utility.yul\":822:885   */\n      tag_65\n      jumpi\n        /* \"#utility.yul\":881:882   */\n      0x00\n        /* \"#utility.yul\":878:879   */\n      dup1\n        /* \"#utility.yul\":871:883   */\n      revert\n        /* \"#utility.yul\":822:885   */\n    tag_65:\n        /* \"#utility.yul\":769:891   */\n      pop\n      jump\t// out\n        /* \"#utility.yul\":897:1036   */\n    tag_45:\n        /* \"#utility.yul\":943:948   */\n      0x00\n        /* \"#utility.yul\":981:987   */\n      dup2\n        /* \"#utility.yul\":968:988   */\n      calldataload\n        /* \"#utility.yul\":959:988   */\n      swap1\n      pop\n        /* \"#utility.yul\":997:1030   */\n      tag_67\n        /* \"#utility.yul\":1024:1029   */\n      dup2\n        /* \"#utility.yul\":997:1030   */\n      tag_44\n      jump\t// in\n    tag_67:\n        /* \"#utility.yul\":897:1036   */\n      swap3\n      swap2\n      pop\n      pop\n      jump\t// out\n        /* \"#utility.yul\":1042:1371   */\n    tag_13:\n        /* \"#utility.yul\":1101:1107   */\n      0x00\n        /* \"#utility.yul\":1150:1152   */\n      0x20\n        /* \"#utility.yul\":1138:1147   */\n      dup3\n        /* \"#utility.yul\":1129:1136   */\n      dup5\n        /* \"#utility.yul\":1125:1148   */\n      sub\n        /* \"#utility.yul\":1121:1153   */\n      slt\n        /* \"#utility.yul\":1118:1237   */\n      iszero\n      tag_69\n      jumpi\n        /* \"#utility.yul\":1156:1235   */\n      tag_70\n      tag_42\n      jump\t// in\n    tag_70:\n        /* \"#utility.yul\":1118:1237   */\n    tag_69:\n        /* \"#utility.yul\":1276:1277   */\n      0x00\n        /* \"#utility.yul\":1301:1354   */\n      tag_71\n        /* \"#utility.yul\":1346:1353   */\n      dup5\n        /* \"#utility.yul\":1337:1343   */\n      dup3\n        /* \"#utility.yul\":1326:1335   */\n      dup6\n        /* \"#utility.yul\":1322:1344   */\n      add\n        /* \"#utility.yul\":1301:1354   */\n      tag_45\n      jump\t// in\n    tag_71:\n        /* \"#utility.yul\":1291:1354   */\n      swap2\n      pop\n        /* \"#utility.yul\":1247:1364   */\n      pop\n        /* \"#utility.yul\":1042:1371   */\n      swap3\n      swap2\n      pop\n      pop\n      jump\t// out\n        /* \"#utility.yul\":1377:1546   */\n    tag_46:\n        /* \"#utility.yul\":1461:1472   */\n      0x00\n        /* \"#utility.yul\":1495:1501   */\n      dup3\n        /* \"#utility.yul\":1490:1493   */\n      dup3\n        /* \"#utility.yul\":1483:1502   */\n      mstore\n        /* \"#utility.yul\":1535:1539   */\n      0x20\n        /* \"#utility.yul\":1530:1533   */\n      dup3\n        /* \"#utility.yul\":1526:1540   */\n      add\n        /* \"#utility.yul\":1511:1540   */\n      swap1\n      pop\n        /* \"#utility.yul\":1377:1546   */\n      swap3\n      swap2\n      pop\n      pop\n      jump\t// out\n        /* \"#utility.yul\":1552:1722   */\n    tag_47:\n        /* \"#utility.yul\":1692:1714   */\n      0x496e73756666696369656e742042616c616e6365000000000000000000000000\n        /* \"#utility.yul\":1688:1689   */\n      0x00\n        /* \"#utility.yul\":1680:1686   */\n      dup3\n        /* \"#utility.yul\":1676:1690   */\n      add\n        /* \"#utility.yul\":1669:1715   */\n      mstore\n        /* \"#utility.yul\":1552:1722   */\n      pop\n      jump\t// out\n        /* \"#utility.yul\":1728:2094   */\n    tag_48:\n        /* \"#utility.yul\":1870:1873   */\n      0x00\n        /* \"#utility.yul\":1891:1958   */\n      tag_75\n        /* \"#utility.yul\":1955:1957   */\n      0x14\n        /* \"#utility.yul\":1950:1953   */\n      dup4\n        /* \"#utility.yul\":1891:1958   */\n      tag_46\n      jump\t// in\n    tag_75:\n        /* \"#utility.yul\":1884:1958   */\n      swap2\n      pop\n        /* \"#utility.yul\":1967:2060   */\n      tag_76\n        /* \"#utility.yul\":2056:2059   */\n      dup3\n        /* \"#utility.yul\":1967:2060   */\n      tag_47\n      jump\t// in\n    tag_76:\n        /* \"#utility.yul\":2085:2087   */\n      0x20\n        /* \"#utility.yul\":2080:2083   */\n      dup3\n        /* \"#utility.yul\":2076:2088   */\n      add\n        /* \"#utility.yul\":2069:2088   */\n      swap1\n      pop\n        /* \"#utility.yul\":1728:2094   */\n      swap2\n      swap1\n      pop\n      jump\t// out\n        /* \"#utility.yul\":2100:2519   */\n    tag_25:\n        /* \"#utility.yul\":2266:2270   */\n      0x00\n        /* \"#utility.yul\":2304:2306   */\n      0x20\n        /* \"#utility.yul\":2293:2302   */\n      dup3\n        /* \"#utility.yul\":2289:2307   */\n      add\n        /* \"#utility.yul\":2281:2307   */\n      swap1\n      pop\n        /* \"#utility.yul\":2353:2362   */\n      dup2\n        /* \"#utility.yul\":2347:2351   */\n      dup2\n        /* \"#utility.yul\":2343:2363   */\n      sub\n        /* \"#utility.yul\":2339:2340   */\n      0x00\n        /* \"#utility.yul\":2328:2337   */\n      dup4\n        /* \"#utility.yul\":2324:2341   */\n      add\n        /* \"#utility.yul\":2317:2364   */\n      mstore\n        /* \"#utility.yul\":2381:2512   */\n      tag_78\n        /* \"#utility.yul\":2507:2511   */\n      dup2\n        /* \"#utility.yul\":2381:2512   */\n      tag_48\n      jump\t// in\n    tag_78:\n        /* \"#utility.yul\":2373:2512   */\n      swap1\n      pop\n        /* \"#utility.yul\":2100:2519   */\n      swap2\n      swap1\n      pop\n      jump\t// out\n        /* \"#utility.yul\":2525:2705   */\n    tag_49:\n        /* \"#utility.yul\":2573:2650   */\n      0x4e487b7100000000000000000000000000000000000000000000000000000000\n        /* \"#utility.yul\":2570:2571   */\n      0x00\n        /* \"#utility.yul\":2563:2651   */\n      mstore\n        /* \"#utility.yul\":2670:2674   */\n      0x11\n        /* \"#utility.yul\":2667:2668   */\n      0x04\n        /* \"#utility.yul\":2660:2675   */\n      mstore\n        /* \"#utility.yul\":2694:2698   */\n      0x24\n        /* \"#utility.yul\":2691:2692   */\n      0x00\n        /* \"#utility.yul\":2684:2699   */\n      revert\n        /* \"#utility.yul\":2711:2905   */\n    tag_27:\n        /* \"#utility.yul\":2751:2755   */\n      0x00\n        /* \"#utility.yul\":2771:2791   */\n      tag_81\n        /* \"#utility.yul\":2789:2790   */\n      dup3\n        /* \"#utility.yul\":2771:2791   */\n      tag_39\n      jump\t// in\n    tag_81:\n        /* \"#utility.yul\":2766:2791   */\n      swap2\n      pop\n        /* \"#utility.yul\":2805:2825   */\n      tag_82\n        /* \"#utility.yul\":2823:2824   */\n      dup4\n        /* \"#utility.yul\":2805:2825   */\n      tag_39\n      jump\t// in\n    tag_82:\n        /* \"#utility.yul\":2800:2825   */\n      swap3\n      pop\n        /* \"#utility.yul\":2849:2850   */\n      dup3\n        /* \"#utility.yul\":2846:2847   */\n      dup3\n        /* \"#utility.yul\":2842:2851   */\n      sub\n        /* \"#utility.yul\":2834:2851   */\n      swap1\n      pop\n        /* \"#utility.yul\":2873:2874   */\n      dup2\n        /* \"#utility.yul\":2867:2871   */\n      dup2\n        /* \"#utility.yul\":2864:2875   */\n      gt\n        /* \"#utility.yul\":2861:2898   */\n      iszero\n      tag_83\n      jumpi\n        /* \"#utility.yul\":2878:2896   */\n      tag_84\n      tag_49\n      jump\t// in\n    tag_84:\n        /* \"#utility.yul\":2861:2898   */\n    tag_83:\n        /* \"#utility.yul\":2711:2905   */\n      swap3\n      swap2\n      pop\n      pop\n      jump\t// out\n        /* \"#utility.yul\":2911:3079   */\n    tag_50:\n        /* \"#utility.yul\":3051:3071   */\n      0x496e73756666696369656e742046756e64730000000000000000000000000000\n        /* \"#utility.yul\":3047:3048   */\n      0x00\n        /* \"#utility.yul\":3039:3045   */\n      dup3\n        /* \"#utility.yul\":3035:3049   */\n      add\n        /* \"#utility.yul\":3028:3072   */\n      mstore\n        /* \"#utility.yul\":2911:3079   */\n      pop\n      jump\t// out\n        /* \"#utility.yul\":3085:3451   */\n    tag_51:\n        /* \"#utility.yul\":3227:3230   */\n      0x00\n        /* \"#utility.yul\":3248:3315   */\n      tag_87\n        /* \"#utility.yul\":3312:3314   */\n      0x12\n        /* \"#utility.yul\":3307:3310   */\n      dup4\n        /* \"#utility.yul\":3248:3315   */\n      tag_46\n      jump\t// in\n    tag_87:\n        /* \"#utility.yul\":3241:3315   */\n      swap2\n      pop\n        /* \"#utility.yul\":3324:3417   */\n      tag_88\n        /* \"#utility.yul\":3413:3416   */\n      dup3\n        /* \"#utility.yul\":3324:3417   */\n      tag_50\n      jump\t// in\n    tag_88:\n        /* \"#utility.yul\":3442:3444   */\n      0x20\n        /* \"#utility.yul\":3437:3440   */\n      dup3\n        /* \"#utility.yul\":3433:3445   */\n      add\n        /* \"#utility.yul\":3426:3445   */\n      swap1\n      pop\n        /* \"#utility.yul\":3085:3451   */\n      swap2\n      swap1\n      pop\n      jump\t// out\n        /* \"#utility.yul\":3457:3876   */\n    tag_31:\n        /* \"#utility.yul\":3623:3627   */\n      0x00\n        /* \"#utility.yul\":3661:3663   */\n      0x20\n        /* \"#utility.yul\":3650:3659   */\n      dup3\n        /* \"#utility.yul\":3646:3664   */\n      add\n        /* \"#utility.yul\":3638:3664   */\n      swap1\n      pop\n        /* \"#utility.yul\":3710:3719   */\n      dup2\n        /* \"#utility.yul\":3704:3708   */\n      dup2\n        /* \"#utility.yul\":3700:3720   */\n      sub\n        /* \"#utility.yul\":3696:3697   */\n      0x00\n        /* \"#utility.yul\":3685:3694   */\n      dup4\n        /* \"#utility.yul\":3681:3698   */\n      add\n        /* \"#utility.yul\":3674:3721   */\n      mstore\n        /* \"#utility.yul\":3738:3869   */\n      tag_90\n        /* \"#utility.yul\":3864:3868   */\n      dup2\n        /* \"#utility.yul\":3738:3869   */\n      tag_51\n      jump\t// in\n    tag_90:\n        /* \"#utility.yul\":3730:3869   */\n      swap1\n      pop\n        /* \"#utility.yul\":3457:3876   */\n      swap2\n      swap1\n      pop\n      jump\t// out\n        /* \"#utility.yul\":3882:4064   */\n    tag_52:\n        /* \"#utility.yul\":4022:4056   */\n      0x416d6f756e74206d7573742062652067726561746572207468616e207a65726f\n        /* \"#utility.yul\":4018:4019   */\n      0x00\n        /* \"#utility.yul\":4010:4016   */\n      dup3\n        /* \"#utility.yul\":4006:4020   */\n      add\n        /* \"#utility.yul\":3999:4057   */\n      mstore\n        /* \"#utility.yul\":3882:4064   */\n      pop\n      jump\t// out\n        /* \"#utility.yul\":4070:4436   */\n    tag_53:\n        /* \"#utility.yul\":4212:4215   */\n      0x00\n        /* \"#utility.yul\":4233:4300   */\n      tag_93\n        /* \"#utility.yul\":4297:4299   */\n      0x20\n        /* \"#utility.yul\":4292:4295   */\n      dup4\n        /* \"#utility.yul\":4233:4300   */\n      tag_46\n      jump\t// in\n    tag_93:\n        /* \"#utility.yul\":4226:4300   */\n      swap2\n      pop\n        /* \"#utility.yul\":4309:4402   */\n      tag_94\n        /* \"#utility.yul\":4398:4401   */\n      dup3\n        /* \"#utility.yul\":4309:4402   */\n      tag_52\n      jump\t// in\n    tag_94:\n        /* \"#utility.yul\":4427:4429   */\n      0x20\n        /* \"#utility.yul\":4422:4425   */\n      dup3\n        /* \"#utility.yul\":4418:4430   */\n      add\n        /* \"#utility.yul\":4411:4430   */\n      swap1\n      pop\n        /* \"#utility.yul\":4070:4436   */\n      swap2\n      swap1\n      pop\n      jump\t// out\n        /* \"#utility.yul\":4442:4861   */\n    tag_36:\n        /* \"#utility.yul\":4608:4612   */\n      0x00\n        /* \"#utility.yul\":4646:4648   */\n      0x20\n        /* \"#utility.yul\":4635:4644   */\n      dup3\n        /* \"#utility.yul\":4631:4649   */\n      add\n        /* \"#utility.yul\":4623:4649   */\n      swap1\n      pop\n        /* \"#utility.yul\":4695:4704   */\n      dup2\n        /* \"#utility.yul\":4689:4693   */\n      dup2\n        /* \"#utility.yul\":4685:4705   */\n      sub\n        /* \"#utility.yul\":4681:4682   */\n      0x00\n        /* \"#utility.yul\":4670:4679   */\n      dup4\n        /* \"#utility.yul\":4666:4683   */\n      add\n        /* \"#utility.yul\":4659:4706   */\n      mstore\n        /* \"#utility.yul\":4723:4854   */\n      tag_96\n        /* \"#utility.yul\":4849:4853   */\n      dup2\n        /* \"#utility.yul\":4723:4854   */\n      tag_53\n      jump\t// in\n    tag_96:\n        /* \"#utility.yul\":4715:4854   */\n      swap1\n      pop\n        /* \"#utility.yul\":4442:4861   */\n      swap2\n      swap1\n      pop\n      jump\t// out\n        /* \"#utility.yul\":4867:5058   */\n    tag_38:\n        /* \"#utility.yul\":4907:4910   */\n      0x00\n        /* \"#utility.yul\":4926:4946   */\n      tag_98\n        /* \"#utility.yul\":4944:4945   */\n      dup3\n        /* \"#utility.yul\":4926:4946   */\n      tag_39\n      jump\t// in\n    tag_98:\n        /* \"#utility.yul\":4921:4946   */\n      swap2\n      pop\n        /* \"#utility.yul\":4960:4980   */\n      tag_99\n        /* \"#utility.yul\":4978:4979   */\n      dup4\n        /* \"#utility.yul\":4960:4980   */\n      tag_39\n      jump\t// in\n    tag_99:\n        /* \"#utility.yul\":4955:4980   */\n      swap3\n      pop\n        /* \"#utility.yul\":5003:5004   */\n      dup3\n        /* \"#utility.yul\":5000:5001   */\n      dup3\n        /* \"#utility.yul\":4996:5005   */\n      add\n        /* \"#utility.yul\":4989:5005   */\n      swap1\n      pop\n        /* \"#utility.yul\":5024:5027   */\n      dup1\n        /* \"#utility.yul\":5021:5022   */\n      dup3\n        /* \"#utility.yul\":5018:5028   */\n      gt\n        /* \"#utility.yul\":5015:5051   */\n      iszero\n      tag_100\n      jumpi\n        /* \"#utility.yul\":5031:5049   */\n      tag_101\n      tag_49\n      jump\t// in\n    tag_101:\n        /* \"#utility.yul\":5015:5051   */\n    tag_100:\n        /* \"#utility.yul\":4867:5058   */\n      swap3\n      swap2\n      pop\n      pop\n      jump\t// out\n\n    auxdata: 0xa2646970667358221220ab61078de2993ca3326891e94add30f6a84a6a721448612ed4353f1c7c99822b64736f6c634300081a0033\n}\n",
				"bytecode": {
					"linkReferences": {},
					"object": "6080604052348015600e575f80fd5b5061047a8061001c5f395ff3fe608060405234801561000f575f80fd5b506004361061004a575f3560e01c806312065fe01461004e57806312514bba1461006c5780632e1a7d4d1461008857806355fc2624146100a4575b5f80fd5b6100566100c0565b60405161006391906101f7565b60405180910390f35b6100866004803603810190610081919061023e565b6100c8565b005b6100a2600480360381019061009d919061023e565b610126565b005b6100be60048036038101906100b9919061023e565b610183565b005b5f8054905090565b5f5481111561010c576040517f08c379a0000000000000000000000000000000000000000000000000000000008152600401610103906102c3565b60405180910390fd5b805f8082825461011c919061030e565b9250508190555050565b805f5411610169576040517f08c379a00000000000000000000000000000000000000000000000000000000081526004016101609061038b565b60405180910390fd5b805f80828254610179919061030e565b9250508190555050565b5f81116101c5576040517f08c379a00000000000000000000000000000000000000000000000000000000081526004016101bc906103f3565b60405180910390fd5b805f808282546101d59190610411565b9250508190555050565b5f819050919050565b6101f1816101df565b82525050565b5f60208201905061020a5f8301846101e8565b92915050565b5f80fd5b61021d816101df565b8114610227575f80fd5b50565b5f8135905061023881610214565b92915050565b5f6020828403121561025357610252610210565b5b5f6102608482850161022a565b91505092915050565b5f82825260208201905092915050565b7f496e73756666696369656e742042616c616e63650000000000000000000000005f82015250565b5f6102ad601483610269565b91506102b882610279565b602082019050919050565b5f6020820190508181035f8301526102da816102a1565b9050919050565b7f4e487b71000000000000000000000000000000000000000000000000000000005f52601160045260245ffd5b5f610318826101df565b9150610323836101df565b925082820390508181111561033b5761033a6102e1565b5b92915050565b7f496e73756666696369656e742046756e647300000000000000000000000000005f82015250565b5f610375601283610269565b915061038082610341565b602082019050919050565b5f6020820190508181035f8301526103a281610369565b9050919050565b7f416d6f756e74206d7573742062652067726561746572207468616e207a65726f5f82015250565b5f6103dd602083610269565b91506103e8826103a9565b602082019050919050565b5f6020820190508181035f83015261040a816103d1565b9050919050565b5f61041b826101df565b9150610426836101df565b925082820190508082111561043e5761043d6102e1565b5b9291505056fea2646970667358221220ab61078de2993ca3326891e94add30f6a84a6a721448612ed4353f1c7c99822b64736f6c634300081a0033",
					"opcodes": "PUSH1 0x80 PUSH1 0x40 MSTORE CALLVALUE DUP1 ISZERO PUSH1 0xE JUMPI PUSH0 DUP1 REVERT JUMPDEST POP PUSH2 0x47A DUP1 PUSH2 0x1C PUSH0 CODECOPY PUSH0 RETURN INVALID PUSH1 0x80 PUSH1 0x40 MSTORE CALLVALUE DUP1 ISZERO PUSH2 0xF JUMPI PUSH0 DUP1 REVERT JUMPDEST POP PUSH1 0x4 CALLDATASIZE LT PUSH2 0x4A JUMPI PUSH0 CALLDATALOAD PUSH1 0xE0 SHR DUP1 PUSH4 0x12065FE0 EQ PUSH2 0x4E JUMPI DUP1 PUSH4 0x12514BBA EQ PUSH2 0x6C JUMPI DUP1 PUSH4 0x2E1A7D4D EQ PUSH2 0x88 JUMPI DUP1 PUSH4 0x55FC2624 EQ PUSH2 0xA4 JUMPI JUMPDEST PUSH0 DUP1 REVERT JUMPDEST PUSH2 0x56 PUSH2 0xC0 JUMP JUMPDEST PUSH1 0x40 MLOAD PUSH2 0x63 SWAP2 SWAP1 PUSH2 0x1F7 JUMP JUMPDEST PUSH1 0x40 MLOAD DUP1 SWAP2 SUB SWAP1 RETURN JUMPDEST PUSH2 0x86 PUSH1 0x4 DUP1 CALLDATASIZE SUB DUP2 ADD SWAP1 PUSH2 0x81 SWAP2 SWAP1 PUSH2 0x23E JUMP JUMPDEST PUSH2 0xC8 JUMP JUMPDEST STOP JUMPDEST PUSH2 0xA2 PUSH1 0x4 DUP1 CALLDATASIZE SUB DUP2 ADD SWAP1 PUSH2 0x9D SWAP2 SWAP1 PUSH2 0x23E JUMP JUMPDEST PUSH2 0x126 JUMP JUMPDEST STOP JUMPDEST PUSH2 0xBE PUSH1 0x4 DUP1 CALLDATASIZE SUB DUP2 ADD SWAP1 PUSH2 0xB9 SWAP2 SWAP1 PUSH2 0x23E JUMP JUMPDEST PUSH2 0x183 JUMP JUMPDEST STOP JUMPDEST PUSH0 DUP1 SLOAD SWAP1 POP SWAP1 JUMP JUMPDEST PUSH0 SLOAD DUP2 GT ISZERO PUSH2 0x10C JUMPI PUSH1 0x40 MLOAD PUSH32 0x8C379A000000000000000000000000000000000000000000000000000000000 DUP2 MSTORE PUSH1 0x4 ADD PUSH2 0x103 SWAP1 PUSH2 0x2C3 JUMP JUMPDEST PUSH1 0x40 MLOAD DUP1 SWAP2 SUB SWAP1 REVERT JUMPDEST DUP1 PUSH0 DUP1 DUP3 DUP3 SLOAD PUSH2 0x11C SWAP2 SWAP1 PUSH2 0x30E JUMP JUMPDEST SWAP3 POP POP DUP2 SWAP1 SSTORE POP POP JUMP JUMPDEST DUP1 PUSH0 SLOAD GT PUSH2 0x169 JUMPI PUSH1 0x40 MLOAD PUSH32 0x8C379A000000000000000000000000000000000000000000000000000000000 DUP2 MSTORE PUSH1 0x4 ADD PUSH2 0x160 SWAP1 PUSH2 0x38B JUMP JUMPDEST PUSH1 0x40 MLOAD DUP1 SWAP2 SUB SWAP1 REVERT JUMPDEST DUP1 PUSH0 DUP1 DUP3 DUP3 SLOAD PUSH2 0x179 SWAP2 SWAP1 PUSH2 0x30E JUMP JUMPDEST SWAP3 POP POP DUP2 SWAP1 SSTORE POP POP JUMP JUMPDEST PUSH0 DUP2 GT PUSH2 0x1C5 JUMPI PUSH1 0x40 MLOAD PUSH32 0x8C379A000000000000000000000000000000000000000000000000000000000 DUP2 MSTORE PUSH1 0x4 ADD PUSH2 0x1BC SWAP1 PUSH2 0x3F3 JUMP JUMPDEST PUSH1 0x40 MLOAD DUP1 SWAP2 SUB SWAP1 REVERT JUMPDEST DUP1 PUSH0 DUP1 DUP3 DUP3 SLOAD PUSH2 0x1D5 SWAP2 SWAP1 PUSH2 0x411 JUMP JUMPDEST SWAP3 POP POP DUP2 SWAP1 SSTORE POP POP JUMP JUMPDEST PUSH0 DUP2 SWAP1 POP SWAP2 SWAP1 POP JUMP JUMPDEST PUSH2 0x1F1 DUP2 PUSH2 0x1DF JUMP JUMPDEST DUP3 MSTORE POP POP JUMP JUMPDEST PUSH0 PUSH1 0x20 DUP3 ADD SWAP1 POP PUSH2 0x20A PUSH0 DUP4 ADD DUP5 PUSH2 0x1E8 JUMP JUMPDEST SWAP3 SWAP2 POP POP JUMP JUMPDEST PUSH0 DUP1 REVERT JUMPDEST PUSH2 0x21D DUP2 PUSH2 0x1DF JUMP JUMPDEST DUP2 EQ PUSH2 0x227 JUMPI PUSH0 DUP1 REVERT JUMPDEST POP JUMP JUMPDEST PUSH0 DUP2 CALLDATALOAD SWAP1 POP PUSH2 0x238 DUP2 PUSH2 0x214 JUMP JUMPDEST SWAP3 SWAP2 POP POP JUMP JUMPDEST PUSH0 PUSH1 0x20 DUP3 DUP5 SUB SLT ISZERO PUSH2 0x253 JUMPI PUSH2 0x252 PUSH2 0x210 JUMP JUMPDEST JUMPDEST PUSH0 PUSH2 0x260 DUP5 DUP3 DUP6 ADD PUSH2 0x22A JUMP JUMPDEST SWAP2 POP POP SWAP3 SWAP2 POP POP JUMP JUMPDEST PUSH0 DUP3 DUP3 MSTORE PUSH1 0x20 DUP3 ADD SWAP1 POP SWAP3 SWAP2 POP POP JUMP JUMPDEST PUSH32 0x496E73756666696369656E742042616C616E6365000000000000000000000000 PUSH0 DUP3 ADD MSTORE POP JUMP JUMPDEST PUSH0 PUSH2 0x2AD PUSH1 0x14 DUP4 PUSH2 0x269 JUMP JUMPDEST SWAP2 POP PUSH2 0x2B8 DUP3 PUSH2 0x279 JUMP JUMPDEST PUSH1 0x20 DUP3 ADD SWAP1 POP SWAP2 SWAP1 POP JUMP JUMPDEST PUSH0 PUSH1 0x20 DUP3 ADD SWAP1 POP DUP2 DUP2 SUB PUSH0 DUP4 ADD MSTORE PUSH2 0x2DA DUP2 PUSH2 0x2A1 JUMP JUMPDEST SWAP1 POP SWAP2 SWAP1 POP JUMP JUMPDEST PUSH32 0x4E487B7100000000000000000000000000000000000000000000000000000000 PUSH0 MSTORE PUSH1 0x11 PUSH1 0x4 MSTORE PUSH1 0x24 PUSH0 REVERT JUMPDEST PUSH0 PUSH2 0x318 DUP3 PUSH2 0x1DF JUMP JUMPDEST SWAP2 POP PUSH2 0x323 DUP4 PUSH2 0x1DF JUMP JUMPDEST SWAP3 POP DUP3 DUP3 SUB SWAP1 POP DUP2 DUP2 GT ISZERO PUSH2 0x33B JUMPI PUSH2 0x33A PUSH2 0x2E1 JUMP JUMPDEST JUMPDEST SWAP3 SWAP2 POP POP JUMP JUMPDEST PUSH32 0x496E73756666696369656E742046756E64730000000000000000000000000000 PUSH0 DUP3 ADD MSTORE POP JUMP JUMPDEST PUSH0 PUSH2 0x375 PUSH1 0x12 DUP4 PUSH2 0x269 JUMP JUMPDEST SWAP2 POP PUSH2 0x380 DUP3 PUSH2 0x341 JUMP JUMPDEST PUSH1 0x20 DUP3 ADD SWAP1 POP SWAP2 SWAP1 POP JUMP JUMPDEST PUSH0 PUSH1 0x20 DUP3 ADD SWAP1 POP DUP2 DUP2 SUB PUSH0 DUP4 ADD MSTORE PUSH2 0x3A2 DUP2 PUSH2 0x369 JUMP JUMPDEST SWAP1 POP SWAP2 SWAP1 POP JUMP JUMPDEST PUSH32 0x416D6F756E74206D7573742062652067726561746572207468616E207A65726F PUSH0 DUP3 ADD MSTORE POP JUMP JUMPDEST PUSH0 PUSH2 0x3DD PUSH1 0x20 DUP4 PUSH2 0x269 JUMP JUMPDEST SWAP2 POP PUSH2 0x3E8 DUP3 PUSH2 0x3A9 JUMP JUMPDEST PUSH1 0x20 DUP3 ADD SWAP1 POP SWAP2 SWAP1 POP JUMP JUMPDEST PUSH0 PUSH1 0x20 DUP3 ADD SWAP1 POP DUP2 DUP2 SUB PUSH0 DUP4 ADD MSTORE PUSH2 0x40A DUP2 PUSH2 0x3D1 JUMP JUMPDEST SWAP1 POP SWAP2 SWAP1 POP JUMP JUMPDEST PUSH0 PUSH2 0x41B DUP3 PUSH2 0x1DF JUMP JUMPDEST SWAP2 POP PUSH2 0x426 DUP4 PUSH2 0x1DF JUMP JUMPDEST SWAP3 POP DUP3 DUP3 ADD SWAP1 POP DUP1 DUP3 GT ISZERO PUSH2 0x43E JUMPI PUSH2 0x43D PUSH2 0x2E1 JUMP JUMPDEST JUMPDEST SWAP3 SWAP2 POP POP JUMP INVALID LOG2 PUSH5 0x6970667358 0x22 SLT KECCAK256 0xAB PUSH2 0x78D 0xE2 SWAP10 EXTCODECOPY LOG3 ORIGIN PUSH9 0x91E94ADD30F6A84A6A PUSH19 0x1448612ED4353F1C7C99822B64736F6C634300 ADDMOD BYTE STOP CALLER "
				},
				"gasEstimates": {
					"creation": {
						"codeDepositCost": "229200",
						"executionCost": "267",
						"totalCost": "229467"
					},
					"external": {
						"getBalance()": "2410",
						"loadWallet(uint256)": "infinite",
						"transfer(uint256)": "infinite",
						"withdraw(uint256)": "infinite"
					}
				},
				"methodIdentifiers": {
					"getBalance()": "12065fe0",
					"loadWallet(uint256)": "55fc2624",
					"transfer(uint256)": "12514bba",
					"withdraw(uint256)": "2e1a7d4d"
				}
			},
			"storageLayout": {
				"storage": [
					{
						"astId": 3,
						"contract": "errorhandling.sol:error",
						"label": "balance",
						"offset": 0,
						"slot": "0",
						"type": "t_uint256"
					}
				],
				"types": {
					"t_uint256": {
						"encoding": "inplace",
						"label": "uint256",
						"numberOfBytes": "32"
					}
				}
			},
			"userdoc": {
				"kind": "user",
				"methods": {},
				"version": 1
			}
		}
	}
}